:020000040800F2
:10000000C80A0020C90100081F110008CD0D000812
:100010001D110008CF02000889110008000000002F
:100020000000000000000000000000002311000894
:10003000D10200080000000021110008251100086D
:10004000E3010008E3010008E3010008E301000800
:10005000E3010008E3010008E3010008E3010008F0
:10006000E3010008E3010008E3010008E3010008E0
:10007000E3010008E3010008E3010008E3010008D0
:10008000E3010008E3010008E3010008E3010008C0
:10009000E3010008E3010008E3010008E3010008B0
:1000A000E3010008E3010008E3010008E3010008A0
:1000B000E3010008E3010008E3010008E301000890
:1000C000E3010008E3010008E3010008E301000880
:1000D000E3010008E3010008E3010008E301000870
:1000E000E3010008E3010008E301000800F002F862
:1000F00000F05AF80AA090E8000C82448344AAF168
:100100000107DA4501D100F04FF8AFF2090EBAE865
:100110000F0013F0010F18BFFB1A43F0010318473B
:1001200044120000641200000A444FF0000C10F862
:10013000013B13F0070408BF10F8014B1D1108BF65
:1001400010F8015B641E05D010F8016B641E01F805
:10015000016BF9D113F0080F1EBF10F8014BAD1C55
:100160000C1B09D16D1E58BF01F801CBFAD505E073
:1001700014F8016B01F8016B6D1EF9D59142D6D3CD
:10018000704700000023002400250026103A28BFF5
:1001900078C1FBD8520728BF30C148BF0B607047F9
:1001A0001FB51FBD10B510BD00F058F81146FFF780
:1001B000F7FF01F01FF800F076F803B4FFF7F2FF45
:1001C00003BC00F07DF8000009488047094800475B
:1001D000FEE7FEE7FEE7FEE7FEE7FEE7FEE7FEE7F7
:1001E000FEE7FEE704480549054A064B7047000054
:1001F00087110008ED000008C8040020C80A00208C
:10020000C8060020C80600204FF0000200B51346C3
:1002100094469646203922BFA0E80C50A0E80C5026
:10022000B1F12001BFF4F7AF090728BFA0E80C50D7
:1002300048BF0CC05DF804EB890028BF40F8042BD0
:1002400008BF704748BF20F8022B11F0804F18BF3D
:1002500000F8012B7047704770477047754600F0F3
:100260002BF8AE4605006946534620F00700854648
:1002700018B020B5FFF7B6FFBDE820404FF00006EC
:100280004FF000074FF000084FF0000B21F007017E
:10029000AC46ACE8C009ACE8C009ACE8C009ACE8C1
:1002A000C0098D46704710B50446AFF30080204664
:1002B000BDE81040FFF781BF00487047640400208C
:1002C00001491820ABBEFEE7260002007047FEE79A
:1002D000704772B6FEE700002DE9F84FDFF8B891DD
:1002E0000024A9F1040B23460F2709F1040AABF1FE
:1002F000040EC9E00125A5402A40AA427DD1674EDF
:10030000D1F804C0ACEB0608B44532D014DCBCF123
:10031000030F3AD009DCBCF1000F2AD0BCF1010F69
:100320001CD0BCF1020F31D11DE0BCF1110F17D070
:10033000BCF1120F2AD119E0B8F5881F19D006DCDC
:10034000B8F5803F15D0B8F5801F1FD111E0B8F582
:10035000001F0ED0B8F5041F18D10AE0CB6815E0D5
:10036000CB681B1D12E0CB6808330FE0CB680C3361
:100370000CE08B682BB1012B4FF0080303D04561D3
:1003800004E0042302E0056100E00023FF2A01D815
:10039000064601E000F104064FEA840501D9A5F103
:1003A0002005D6F8008007FA05FC28EA0C0803FAB5
:1003B00005F548EA0508C6F800804D68ED0062D5ED
:1003C000374DAE6946F00106AE61AD6924F0030613
:1003D00005F001050095334D06EB050CDCF80850DF
:1003E000A607360F07FA06F825EA0805DFF8B880F1
:1003F000404503D14FF0000817E044E0DFF8AC803F
:10040000404502D14FF001080FE0DFF8A4804045DD
:1004100002D14FF0020808E0DFF89880404502D191
:100420004FF0030801E04FF0040808FA06F848EA24
:100430000508CCF808804D68D9F80060ED024D46FB
:1004400001D5164300E096432E604D68DAF800604F
:10045000AD02554601D5164300E096432E604D6827
:10046000DBF80060AD035D4601D5164300E096431E
:100470002E604D68DEF80060ED03754601D5164329
:1004800000E096432E60641C0D682A46E5407FF428
:1004900031AFBDE8F88F00000804014000001110E2
:1004A000001002400000014000080140000C014023
:1004B00000100140001401400148806870470000AE
:1004C0000004002070B5040025D094F83D000025FC
:1004D00020B984F83C50204600F050F9242084F8DC
:1004E0003D002068016821F0010101602068016879
:1004F00041F4004101602068016821F4004101607D
:1005000000F08AFA4D4A6168914201D84C4900E0F6
:100510004C49884201D2012070BD4B492368B0FB91
:10052000F1F15E6826F03F060E435E606368934219
:1005300006D94FF4967359434FF47A73B1FBF3F134
:100540002368491C1E6A26F03F0631431962616820
:10055000914210D84900401EB0FBF1F2521CC2F388
:100560000B02042A01D2042022E0B0FBF1F0401C6F
:10057000C0F30B001CE0A268F2B301EBC10303EB74
:100580000116431EB3FBF6F35B1C43F480431B05CB
:1005900049D092B301EBC10202EB0111401EB0FB46
:1005A000F1F0401CC0F30B0040F4804040F40040E8
:1005B0002168CA694CF6FF739A431043C861D4E9B5
:1005C000071001432068026822F0C0021143016055
:1005D000D4E9030101432068826848F2FF339A435B
:1005E00011438160D4E9050108432168CA6822F0FB
:1005F000FF021043C86001E00EE016E020680168C9
:1006000041F0010101602564202084F83D0025634C
:1006100084F83E50002070BD01EB4106431EB3FB41
:10062000F6F35B1CB3E70120C2E701EB4101401E7A
:10063000B0FBF1F0401CC0F30B00B7E7A08601004F
:1006400080841E0000093D0040420F002DE9FF4F4D
:1006500083B09A46DDE9119793460446DDF8408061
:10066000FFF72AFF054694F83D0020287FD1192383
:10067000012240492046009500F040FC002876D138
:1006800094F83C00012872D0012084F83C002068D6
:100690000168C90703D1016841F0010101602068C8
:1006A000016821F400610160212084F83D004020B0
:1006B00084F83E0000262664C4F82480A4F82A901A
:1006C000608D20852C48E062CDE9007553465A467E
:1006D0002046049900F092FB70B930E02A46394672
:1006E000204600F0B1FC58B1206C042804D12068E9
:1006F000016841F400710160012007B0BDE8F08F8E
:10070000606A216800780861606A401C6062218D1F
:10071000491E89B22185628D521E62852268536905
:10072000DB435B070BD469B100781061606A401C41
:100730006062208D401E2085608D401E6085208D6A
:100740000028CBD12A463946204600F0ABFB0028D2
:10075000CAD154F83D0B016841F4007101602020BA
:1007600004F81E09E67766770020C6E7FFE7022057
:10077000C3E70000020010000000FFFF10B586B0C4
:100780000021009101910291039100680F49884274
:100790001AD10F4CA06940F00800A061A069694619
:1007A00000F008000490C020009012200190032067
:1007B00003900848FFF790FDE06940F40010E06105
:1007C000E06900F40010049006B010BD0054004031
:1007D00000100240000C0140024881680278114478
:1007E0008160704700040020074810B5016841F09F
:1007F00010010160032000F067F80F2000F006F8F8
:1008000000F024F8002010BD0020024070B50D4D0E
:1008100004464FF47A712878B1FBF0F00A49096870
:10082000B1FBF0F000F0BEFA48B9102C07D200225C
:100830002146501E00F028F800206C6070BD012099
:1008400070BD0000000400200C0400200C4808B516
:10085000816941F001018161816901F0010100912B
:10086000C16941F08051C161C06900F080500090C1
:100870000448416821F0E06141F00071416008BD29
:100880000010024000000140F0B40E4B1B680C4603
:10089000C3F30223C3F10705042D00D90425191D54
:1008A000072901D2002300E0DB1E012606FA05F12C
:1008B000491E214099409E40761E16403143F0BCAF
:1008C00000F063BC0CED00E0064900F00702086888
:1008D0004FF6FF03184040EA0220034A1043086025
:1008E000704700000CED00E00000FA052DE9F0472C
:1008F0000F46050061D0434E306800F00700B84253
:1009000009D2306820F0070038433060306800F0CA
:100910000700B84251D128683B4C810712D54007E7
:1009200003D5606840F4E06060602878000703D574
:10093000606840F4605060606068A96820F0F00072
:10094000084360602878C00728D06868012810D064
:100950002168022810D0890700292EDA616821F069
:10096000030101436160FFF7A7FD804641F288392A
:100970000DE021688903EFE78901EDE7FFF79CFDB2
:10098000A0EB0801494502D90320BDE8F087606863
:10099000696800F00C00B0EB810FEFD1306800F017
:1009A0000700B8420BD9306820F0070038433060A8
:1009B000306800F00700B84201D00120E5E7287850
:1009C000400705D56068E96820F4E060084360608E
:1009D0002878000706D56068296920F4605040EA4D
:1009E000C100606000F028F86168084AC1F3031193
:1009F000515CC8400649086006480068FFF706FFDA
:100A00000020C2E700200240001002404C13000802
:100A10000C040020040400200448054900684968CB
:100A2000044AC1F30221515CC84070470C04002005
:100A3000001002405C1300080E4A51680E4801F095
:100A40000C03042B11D0082B0FD10C48C1F38343A6
:100A5000C903C05C0AD55168084AC1F34041921EDF
:100A6000515C054A5043B0FBF1F0704704494843DC
:100A7000704700000010024000127A003C1300088A
:100A800000093D002DE9F84F040070D02078C04DDA
:100A9000C00749D06868C0F38100012807D06868A2
:100AA000C0F38100022809D16868C00306D5286810
:100AB000800339D560680028E7D035E06068B0F57C
:100AC000803F0BD010B1B0F5A02F11D0286820F4D2
:100AD00080302860286820F4802002E0286840F4F4
:100AE00080302860606890B1FFF7E6FC06460AE0B7
:100AF000286840F480202860F0E700BFFFF7DCFCA6
:100B0000801B642873D828688003F7D50CE0FFF7B2
:100B1000D3FC064605E000BFFFF7CEFC801B64282F
:100B2000F0D828688003F7D420789A4E80074FF0D9
:100B300001094FF0000839D5686810F00C0F07D094
:100B40006868C0F38100022809D16868C00306D430
:100B50002868800714D52069012808D110E0206991
:100B6000B0B1C6F80090FFF7A7FC074605E00AE120
:100B7000FFF7A2FCC01B0228C4D828688007F7D55D
:100B80002868616920F0F80040EAC10028600DE0A3
:100B9000C6F80080FFF790FC074604E0FFF78CFCE6
:100BA000C01B022823D828688007F7D420780007C4
:100BB0002CD57948A169D9B1C0F80090FFF77CFC29
:100BC000074604E0FFF778FCC01B02280FD8686ACC
:100BD0008007F7D571484FF4FA510068B0FBF1F087
:100BE000009000BF0098411E0091FAD20EE080E014
:100BF000C0F80080FFF760FC074604E0FFF75CFCEC
:100C0000C01B022875D8686A8007F7D4207840078F
:100C100060D5E8690027C00008D4E86940F080503A
:100C2000E861E869012700F0805000905C480168A5
:100C3000C90513D40168834641F480710160FFF750
:100C40003BFC824606E000BFFFF736FCA0EB0A0043
:100C500064284ED8DBF80000C005F5D5E06801280F
:100C60000AD008B1052813D0286A20F001002862B4
:100C7000286A20F0040002E0286A40F0010028629F
:100C8000E06841F2883B98B1FFF716FC82460BE022
:100C9000286A40F004002862EEE700BFFFF70CFC72
:100CA000A0EB0A0159455AD8286A8007F6D50CE00E
:100CB000FFF702FC824605E0FFF7FEFBA0EB0A010E
:100CC00059454CD8286A8007F6D41FB1E86920F04E
:100CD0008050E861E06988B36968C1F38101022945
:100CE00044D00228C6F8608004D0FFF7E5FB044634
:100CF00038E034E0FFF7E0FB074604E0FFF7DCFBF9
:100D0000C01B02282BD828688001F7D4206AB0F5D0
:100D1000803F05D16868A16820F40030084368600E
:100D2000D4E908010843696821F474110843686034
:100D3000C6F86090FFF7C0FB044606E025E000BF60
:100D4000FFF7BAFB001B022809D828688001F7D5F5
:100D50001BE000BFFFF7B0FB001B022802D90320F5
:100D6000BDE8F88F28688001F4D40EE00128F7D0A0
:100D70006868226A00F48031914204D1616A00F40B
:100D80007010884201D00120EAE70020E8E7000067
:100D90000010024000004242800442420C04002045
:100DA0000070004010B5401EB0F1807F01D30120DB
:100DB00010BD4FF0E02460610F21601700F0E5F9ED
:100DC0000020A06107202061002010BDFEE701681F
:100DD0004A69D24352050FD46FF480624A61002100
:100DE00040F8301F202242738173026942F00402EE
:100DF0000261017301207047002070472DE9F8431C
:100E0000044600680D46DDE90897016898461646D5
:100E100041F4807101604B4600224FF001112046E1
:100E2000009700F06BF848B120680068C00502D553
:100E30004FF4007020640320BDE8F883216805F0BA
:100E4000FE0008613B464A461549204600F09EF8E0
:100E500088B920684169806900903A464946204631
:100E600000F0F2F848B1206C042804D12068016831
:100E700041F4007101600120DEE7F5B2B8F1010F25
:100E800009D02168300A08613A464946204600F0F8
:100E9000DBF80028E7D1206805610020CCE70000DE
:100EA0000200010070B516460D4604461EE02046BD
:100EB000FFF78DFF08B1012070BD681C16D0FFF749
:100EC000FBFA801BA84200D885B920684069C0435E
:100ED00040070BD5002044F8300F20216173A07328
:100EE000216941F0200121612073E4E72068406915
:100EF000C0434007DBD4002070BD00002DE9F0475F
:100F0000984617460D460446C1F30746DDF8209083
:100F10002AE000BFB8F1FF3F26D0FFF7CDFAA0EBE3
:100F20000901414502D8B8F1000F1DD12068012EFA
:100F300016D0806925EA00000004000C12D00020C1
:100F4000B84211D1002044F8300F20216173A07302
:100F5000216941F02001216120730120BDE8F08763
:100F60004069E7E70120EBE72068012E0AD080699D
:100F700025EA00000004000C06D00020B842C9D0C9
:100F80000020EBE74069F3E70120F7E72DE9F047A0
:100F9000984616460D4604464FF000094FF0200AC9
:100FA000C1F3074723E020684069C043400515D4DA
:100FB0002068016841F40071016021686FF480606D
:100FC0004861C4F8309084F83DA084F83E90216CCC
:100FD00041F00401216484F83C9021E0701C06D0AB
:100FE000FFF76AFAA0EB0800B04203D816B1012F50
:100FF0001FD021E02068012F15D0806925EA00006C
:101000000004000C18D000BF44F8309F84F80DA0F5
:1010100084F80E90216941F02001216184F80C9040
:101020000120BDE8F087406925EA00000004000CBB
:10103000EAD12068406901E02068806925EA000063
:101040000004000CAFD1ECE770B516460D4604461F
:101050001EE02046FFF7BBFE08B1012070BD681CF2
:1010600016D0FFF729FA801BA84200D885B920685E
:101070004069C04300060BD5002044F8300F202102
:101080006173A073216941F0200121612073E4E7BD
:1010900020684069C0430006DBD4002070BD00001A
:1010A0000D4808B5816941F020018161816901F035
:1010B00020010091816941F004018161816901F0A1
:1010C00004010091816941F008018161806900F0AB
:1010D0000800009008BD0000001002400D4810B547
:1010E0000B4901600C49416000214FF4804281604E
:1010F000C0E9031241618161C1610162FFF7E2F958
:10110000002803D0BDE81040FFF7E3B810BD000091
:101110000054004010040020A0860100FEE7FEE716
:1011200070477047FFF758BB30B58FB0282168462D
:10113000FFF76AF814210AA8FFF766F801210804EE
:10114000CDE900100024029402250491CDE9075056
:101150004FF4E01009906846FFF794FC08B172B6AE
:10116000FEE70F20CDE90A054FF48060CDE90C4081
:1011700002210AA80E94FFF7B9FB002801D072B62D
:10118000FEE70FB030BD7047FEE70907090E0028E3
:1011900004DB00F1E02080F80014704700F00F003D
:1011A00000F1E02080F8141D7047000001B584B004
:1011B0000121FF2204A88DE807000B4600227821B8
:1011C0000248FFF743FA05B000BD000010040020FC
:1011D00001B584B00121FF2204A88DE807000B4669
:1011E000402278210248FFF731FA05B000BD000027
:1011F00010040020FFF7F8FAFFF796FFFFF750FF03
:10120000FFF76CFF00F045F82020FFF7CFFF02202A
:10121000FFF7CCFF00F006F8014800F01BF8FEE7EE
:101220000000002070B5002404F1B000C0B2FFF748
:10123000BDFF0020FFF7BAFF1020FFF7B7FF002522
:101240000020FFF7C5FF6D1C802DF9DB641C082C06
:10125000EADB70BD2DE9F0410646002404F1B00040
:10126000C0B2FFF7A3FF0020FFF7A0FF1020FFF799
:101270009DFFE50105F1800703E0705DFFF7A8FF22
:101280006D1CAF42F9D8641CE4B2082CE6D3BDE86B
:10129000F08110B5AE20FFF789FF0020FFF786FF31
:1012A0001020FFF783FF4020FFF780FFB020FFF7FB
:1012B0007DFF8120FFF77AFFFF20FFF777FFA12056
:1012C000FFF774FFA620FFF771FFA820FFF76EFF5E
:1012D0003F20FFF76BFFC820FFF768FFD320FFF721
:1012E00065FF0020FFF762FFD520FFF75FFF80203A
:1012F000FFF75CFFD820FFF759FF0520FFF756FFE7
:10130000D920FFF753FFF120FFF750FFDA20FFF756
:101310004DFF1220FFF74AFFDB20FFF747FF302089
:10132000FFF744FF8D20FFF741FF1420FFF73EFF3A
:10133000BDE81040AF20FFF739BF010202030405EA
:10134000060708090A0B0C0D0E0F10100000000014
:101350000000000001020304060708090000000065
:1013600001020304841300080000002010040000A0
:1013700028010008AC14000810040020B806000082
:10138000840100088100245DC03090505090207E80
:10139000C11D64447902BC90D05090882868A82868
:1013A000A804E454546468489020C000245D0304F9
:1013B000C93284651308053C46928105B9836C10D7
:1013C000101417200C03070813A4AC4A12924F20E4
:1013D0000F800FF807F0FE047288090A8A6408F08B
:1013E00080000A61C004CA71853CC20201081D194F
:1013F000031C618E13448485050402010304091A49
:1014000012141414128B4882B14CE31CFA033F06E9
:1014100006181CF008084808A88454C46202E31C9B
:1014200006020405090A0A0A020A0A1A19018B1996
:101430008C000F510C718222C45444A8086808081B
:101440004010080B17314A8A061283A28407E0E68F
:101450002607F8033CE00456020102130101180DAF
:101460000C031017141414D4348404F40859010024
:101470000F22F404C404F49454545457104FA04061
:10148000033EC0C01F060108081015014B110CF9DE
:1014900012081B080A011208140190900F4F808057
:0C14A00090908020FD3182101324F40095
:04000005080000ED02
:00000001FF
