:020000040800F2
:10000000F006002005010008DB2600087920000822
:10001000D926000829070008A92C000800000000C4
:100020000000000000000000000000006B27000836
:100030002B07000800000000692700086D27000852
:100040001F0100081F0100081F0100081F01000810
:100050001F0100081F0100081F0100081F01000800
:100060001F0100081F0100081F0100081F010008F0
:100070001F0100081F0100081F0100081F010008E0
:100080001F0100081F0100081F0100081F010008D0
:100090001F0100081F0100081F0100081F010008C0
:1000A0001F0100081F0100081F0100081F010008B0
:1000B0001F010008D12700081F0100081F010008C8
:1000C0001F0100081F0100081F0100081F01000890
:1000D0001F0100089D2C00081F0100081F010008D7
:1000E0002D0700081F0100081F010008DFF810D0CD
:1000F00000F008FB00480047C13C0008AFF3008057
:10010000F00600200648804706480047FEE7FEE765
:10011000FEE7FEE7FEE7FEE7FEE7FEE7FEE7FEE7B7
:10012000CF270008ED000008202A04DB203A21FA3E
:1001300002F00021704721FA02F3D040C2F1200200
:100140009140084319467047D2B201E000F8012BF4
:10015000491EFBD270470022F6E710B513460A4647
:1001600004461946FFF7F0FF204610BD10B50022E7
:1001700000E0521C835C8C5CA34201D1002BF8D1BF
:10018000D8B2E1B2401A10BD2DE9FE4F804681EA97
:100190000300C00F0C46009021F0004123F0004501
:1001A000B8EB0200A94105D24046214690461C46C4
:1001B0000B46024623F00040104347D0270DC7F3FB
:1001C0000A00C3F30A510290401A019040286BDAEA
:1001D000C3F3130040F4801B0098924620B1002323
:1001E000D2EB030A63EB0B0B01985946C0F14002B6
:1001F000504600F082F906460D4650465946019A8F
:1002000000F08AF910EB08006141002487EA1152DE
:1002100084EAE7731A4340D0009A62B3019A012A34
:100220004FEA075215DC001B61EB02014FF0004260
:1002300002EA0752CDE90042001C41F58011324626
:100240002B4600F08AF903B0BDE8F08F4046214606
:10025000F9E7001B61EB0201001C41F58013001857
:100260005B412018A2F5001747EB030140EAD57067
:10027000B6196D4111E06D084FEA360645EAC075C2
:100280004FEA0752001B61EB0201001C41F580118F
:1002900049084FEA30000019514132462B4603B05D
:1002A000BDE8F04F00F04AB9009801224000002359
:1002B000D0EB020263EBE073009821464FEAE07452
:1002C000B8EB000061EB0401E9E783F000435BE772
:1002D00081F0004158E72DE9FE4F81EA030404F064
:1002E000004421F0004100944FF0000B23F0004344
:1002F00050EA01045ED052EA03045BD0C3F30A540F
:10030000C1F30A552C44A4F2F3340194A0FB025427
:10031000C1F3130141F48011C3F3130343F48013B9
:1003200001FB024400FB034E840A970A44EA81540D
:1003300047EA8357A4FB076802958D0A05FB0785EA
:100340004FEA932C04FB0C542705029D4FEA0658F4
:1003500047EA1637B5EB08056EEB070C870E920ED1
:1003600047EA811742EA8312A7FB0201B6EB0B01B1
:1003700064EB00042B0D43EA0C335E1844EB1C5075
:10038000DA465146E7FB0201C5F313044FEA0B338B
:1003900043EA14534FEA0432019C43EA0603A4F1F2
:1003A0000C040294009CCDE900B400F0D6F803B030
:1003B000BDE8F08F00200146F9E770B521F0004359
:1003C00003430CD0C1F30A550024D5EB040564EBBC
:1003D0000403D617AD1AB34102DB0020014670BDFD
:1003E000201841EB025170BD0EB5C10F80EAE070DC
:1003F0000844CA07002140F233438DE80E000A4644
:100400000B4600F0AAF803B000BD000030B5041E92
:1004100071F1000404DB4FF00044404264EB010141
:10042000141E73F1000405DB1C464FF000435242DA
:1004300063EB04038B4208BF824230BD30B5041E1B
:1004400071F1000404DB4FF00044404264EB010111
:10045000141E73F1000405DB1C464FF000435242AA
:1004600063EB0403994208BF904230BD30B50B46A0
:10047000014600202022012409E021FA02F59D42D4
:1004800005D303FA02F5491B04FA02F52844151EA8
:10049000A2F10102F1DC30BD2DE9F05F054600203C
:1004A00092469B4688460646814640241BE02846E5
:1004B000414647462246FFF737FE53465A46C01A82
:1004C000914110D311461846224600F016F82D1A15
:1004D00067EB01084F4622460120002100F00DF88D
:1004E00017EB00094E41201EA4F10104DFDC484651
:1004F00031462A464346BDE8F09F202A04DB203AD5
:1005000000FA02F1002070479140C2F1200320FA66
:1005100003F3194390407047202A06DBCB17203A9B
:1005200041FA02F043EAE07306E041FA02F3D040F8
:10053000C2F12002914008431946704710B5141EBD
:1005400073F1000408DA401C41F1000192185B418C
:100550001A4301D120F0010010BD2DE9F04D924663
:100560009B4611B1B1FA81F202E0B0FA80F220327A
:100570009046FFF7C2FF04460F4640EA0A0041EAF0
:100580000B0153465A46084313D0114653EA010063
:1005900019D0C8F140025046FFF7C6FD05460E4689
:1005A000504659464246FFF7A8FF084305D00120B0
:1005B00004E020463946BDE8F08D0020054346EAB8
:1005C000E0762C4337430A986305E40AA0EB080061
:1005D0000022FD0A44EA47540A3002D500200146B1
:1005E000E9E7010510196941DDE90845001969418C
:1005F000BDE8F04DA2E72DE9F04D81EA030404F0D7
:10060000004B21F0004514464FF0000A23F0004152
:1006100050EA050220D054EA01021DD0C5F30A5762
:100620000246C5F31303C1F31300C1F30A5640F4A5
:10063000801543F48013A7EB0608101BD64608F27A
:10064000FD3873EB050002D308F1010801E09218B0
:100650005B41B8F1000F03DA00200146BDE8F08DE0
:1006600000204FF48011064684460EE0171B73EB02
:10067000050705D3121B63EB050306434CEA010C87
:1006800049084FEA300092185B4150EA0107EDD16A
:1006900052EA030012D082EA040083EA050108430B
:1006A00005D0101BAB4106D20122002306E0002238
:1006B0004FF0004302E06FF0010253101AEB060006
:1006C0004CEB085110EB0A0041EB0B01BDE8F04D7B
:1006D000FFF734BFC1F30A52C1F3130140F2FF33F5
:1006E00041F480119A4202DA00200146704740F23C
:1006F00033439A42A2F2334202DC5242FFF714BD66
:10070000FFF7FBBE064C074D06E0E06840F0010332
:1007100094E8070098471034AC42F6D3FFF7EAFCA0
:10072000D4470008F4470008FEE7704710B54FF4BF
:10073000806000F0D1F8BDE810404FF4805000F028
:10074000CBB872B6FEE710B590F82110002202294E
:1007500005D00421816380F82020012010BD0168AC
:100760000B6823F00E030B6001680B6823F0010394
:100770000B6090F84030C46B012101FA03F3636011
:1007800080F8211080F82020104610BD10B590F898
:1007900021100024022903D00421816301243DE0BB
:1007A00001680A6822F00E020A6001680A6822F0F5
:1007B00001020A601A4A0168914201D1012121E037
:1007C000174A1432914201D110211BE0144A2832F9
:1007D000914201D1891515E0114A3C32914201D173
:1007E00089140FE00E4A5032914202D14FF4803109
:1007F00008E00B4A6432914202D14FF4801101E0CB
:100800004FF08071064A083A5160012180F82110AA
:10081000002180F82010416B01B18847204610BDAF
:100820000800024070B5044600F05CF90546601C03
:1008300002D004480078044400F054F9401BA04260
:10084000FAD370BD4000002070B54FF4806188423B
:1008500009D1194800F03CF9002803D11748016874
:10086000491C016070BD4FF48055A842FAD114486C
:1008700000F086FE124C002021684862114E294685
:10088000304600F025F90128F9D00D4800F0CCFEE3
:100890002068406AFFF7A8FD0B4A0C4BFFF71BFDD1
:1008A00000220B4BFFF717FD4FF0FF32FFF785FDDE
:1008B000084AC2E9000170BD000C01403800002068
:1008C000C0000020000801407F9F71E14048363F92
:1008D0000000594028000020044910B50A6802426F
:1008E00002D00860FFF7B0FF10BD00001404014003
:1008F0002DE9F84FDFF8B8910024A9F1040B234645
:100900000F2709F1040AABF1040EC9E00125A54047
:100910002A40AA427DD1674ED1F804C0ACEB06084C
:10092000B44532D014DCBCF1030F3AD009DCBCF181
:10093000000F2AD0BCF1010F1CD0BCF1020F31D145
:100940001DE0BCF1110F17D0BCF1120F2AD119E034
:10095000B8F5881F19D006DCB8F5803F15D0B8F57A
:10096000801F1FD111E0B8F5001F0ED0B8F5041F8D
:1009700018D10AE0CB6815E0CB681B1D12E0CB68EC
:1009800008330FE0CB680C330CE08B682BB1012BE4
:100990004FF0080303D0456104E0042302E0056141
:1009A00000E00023FF2A01D8064601E000F104061A
:1009B0004FEA840501D9A5F12005D6F8008007FA91
:1009C00005FC28EA0C0803FA05F548EA0508C6F80C
:1009D00000804D68ED0062D5374DAE6946F00106E6
:1009E000AE61AD6924F0030605F001050095334DB5
:1009F00006EB050CDCF80850A607360F07FA06F8D8
:100A000025EA0805DFF8B880404503D14FF000081B
:100A100017E044E0DFF8AC80404502D14FF0010818
:100A20000FE0DFF8A480404502D14FF0020808E053
:100A3000DFF89880404502D14FF0030801E04FF005
:100A4000040808FA06F848EA0508CCF808804D685A
:100A5000D9F80060ED024D4601D5164300E09643FB
:100A60002E604D68DAF80060AD02554601D5164398
:100A700000E096432E604D68DBF80060AD035D46F4
:100A800001D5164300E096432E604D68DEF8006005
:100A9000ED03754601D5164300E096432E60641CB5
:100AA0000D682A46E5407FF431AFBDE8F88F0000BD
:100AB0000804014000001110001002400000014035
:100AC00000080140000C01400010014000140140EA
:100AD0008068084000D0012070470AB1016170476A
:100AE0000904FBE7014880687047000040000020CF
:100AF00070B5040025D094F83D00002520B984F895
:100B00003C50204600F050F9242084F83D00206835
:100B1000016821F0010101602068016841F4004191
:100B200001602068016821F40041016000F098FA3A
:100B30004D4A6168914201D84C4900E04C498842D5
:100B400001D2012070BD4B492368B0FBF1F15E6812
:100B500026F03F060E435E606368934206D94FF469
:100B6000967359434FF47A73B1FBF3F12368491C30
:100B70001E6A26F03F06314319626168914210D81F
:100B80004900401EB0FBF1F2521CC2F30B02042AD2
:100B900001D2042022E0B0FBF1F0401CC0F30B00B6
:100BA0001CE0A268F2B301EBC10303EB0116431E84
:100BB000B3FBF6F35B1C43F480431B0549D092B3AF
:100BC00001EBC10202EB0111401EB0FBF1F0401C31
:100BD000C0F30B0040F4804040F400402168CA6933
:100BE0004CF6FF739A431043C861D4E907100143E0
:100BF0002068026822F0C00211430160D4E90301B9
:100C000001432068826848F2FF339A4311438160B0
:100C1000D4E9050108432168CA6822F0FF021043A5
:100C2000C86001E00EE016E02068016841F00101B3
:100C300001602564202084F83D00256384F83E503F
:100C4000002070BD01EB4106431EB3FBF6F35B1CB5
:100C5000B3E70120C2E701EB4101401EB0FBF1F018
:100C6000401CC0F30B00B7E7A086010080841E0083
:100C700000093D0040420F002DE9FF4F83B09A4626
:100C8000DDE9119793460446DDF84080FFF72AFF1F
:100C9000054694F83D0020287FD1192301224049C0
:100CA0002046009501F080FA002876D194F83C00A7
:100CB000012872D0012084F83C0020680168C9072F
:100CC00003D1016841F0010101602068016821F44D
:100CD00000610160212084F83D00402084F83E003E
:100CE00000262664C4F82480A4F82A90608D20850C
:100CF0002C48E062CDE9007553465A4620460499D7
:100D000001F0D2F970B930E02A463946204601F0A8
:100D1000F1FA58B1206C042804D12068016841F42C
:100D200000710160012007B0BDE8F08F606A2168A2
:100D300000780861606A401C6062218D491E89B29A
:100D40002185628D521E628522685369DB435B07F1
:100D50000BD469B100781061606A401C6062208D1C
:100D6000401E2085608D401E6085208D0028CBD1DF
:100D70002A463946204601F0EBF90028CAD154F83A
:100D80003D0B016841F400710160202004F81E0948
:100D9000E67766770020C6E7FFE70220C3E700009A
:100DA000020010000000FFFF10B586B00021009186
:100DB00001910291039100680F4988421AD10F4CAA
:100DC000A06940F00800A061A069694600F0080031
:100DD0000490C02000901220019003200390084846
:100DE000FFF786FDE06940F40010E061E06900F47F
:100DF0000010049006B010BD0054004000100240E6
:100E0000000C0140024881680278114481607047FB
:100E100040000020074810B5016841F01001016052
:100E2000032000F075F8002000F006F800F024F828
:100E3000002010BD0020024070B50D4D04464FF457
:100E40007A712878B1FBF0F00A490968B1FBF0F03B
:100E500000F0DCFA48B9102C07D200222146501EBF
:100E600000F036F800206C6070BD012070BD0000FD
:100E7000400000204C0000200C4808B5816941F07A
:100E800001018161816901F001010091C16941F0B5
:100E90008051C161C06900F08050009004484168F1
:100EA00021F0E06141F00071416008BD0010024096
:100EB00000000140002809DB00F01F0201219140E1
:100EC0004009800000F1E020C0F8001170470000E8
:100ED000F0B40E4B1B680C46C3F30223C3F10705A5
:100EE000042D00D90425191D072901D2002300E093
:100EF000DB1E012606FA05F1491E214099409E405D
:100F0000761E16403143F0BC01F0F4BE0CED00E05B
:100F1000064900F0070208684FF6FF03184040EA50
:100F20000220034A10430860704700000CED00E007
:100F30000000FA052DE9F0470F46050061D0434E49
:100F4000306800F00700B84209D2306820F007008E
:100F500038433060306800F00700B84251D128684B
:100F60003B4C810712D5400703D5606840F4E06030
:100F700060602878000703D5606840F460506060C6
:100F80006068A96820F0F000084360602878C00716
:100F900028D06868012810D02168022810D089075D
:100FA00000292EDA616821F0030101436160FFF737
:100FB00099FD804641F288390DE021688903EFE709
:100FC0008901EDE7FFF78EFDA0EB0801494502D945
:100FD0000320BDE8F0876068696800F00C00B0EBA2
:100FE000810FEFD1306800F00700B8420BD93068AC
:100FF00020F0070038433060306800F00700B84246
:1010000001D00120E5E72878400705D56068E96848
:1010100020F4E060084360602878000706D5606827
:10102000296920F4605040EAC100606000F038F89F
:101030006168084AC1F30311515CC8400649086061
:1010400006480068FFF7F8FE0020C2E700200240D3
:1010500000100240BA4700084C0000204400002065
:101060000448054900684968044AC1F30221515CFB
:10107000C84070474C00002000100240CA470008DA
:101080000448054900684968044AC1F3C221515C1B
:10109000C84070474C00002000100240CA470008BA
:1010A0000E4A51680E4801F00C03042B11D0082B96
:1010B0000FD10C48C1F38343C903C05C0AD5516802
:1010C000084AC1F34041921E515C054A5043B0FBAF
:1010D000F1F0704704494843704700000010024097
:1010E00000127A00AA47000800093D002DE9F84FD8
:1010F000040070D02078C04DC00749D06868C0F3A4
:101100008100012807D06868C0F38100022809D156
:101110006868C00306D52868800339D56068002850
:10112000E7D035E06068B0F5803F0BD010B1B0F586
:10113000A02F11D0286820F480302860286820F47F
:10114000802002E0286840F480302860606890B118
:10115000FFF7C8FC06460AE0286840F480202860B3
:10116000F0E700BFFFF7BEFC801B642873D8286837
:101170008003F7D50CE0FFF7B5FC064605E000BF9D
:10118000FFF7B0FC801B6428F0D828688003F7D4F0
:1011900020789A4E80074FF001094FF0000839D5AA
:1011A000686810F00C0F07D06868C0F3810002284F
:1011B00009D16868C00306D42868800714D520695F
:1011C000012808D110E02069B0B1C6F80090FFF7FF
:1011D00089FC074605E00AE1FFF784FCC01B0228F2
:1011E000C4D828688007F7D52868616920F0F8001E
:1011F00040EAC10028600DE0C6F80080FFF772FCED
:10120000074604E0FFF76EFCC01B022823D82868BD
:101210008007F7D4207800072CD57948A169D9B187
:10122000C0F80090FFF75EFC074604E0FFF75AFCA9
:10123000C01B02280FD8686A8007F7D571484FF4A1
:10124000FA510068B0FBF1F0009000BF0098411E19
:101250000091FAD20EE080E0C0F80080FFF742FC77
:10126000074604E0FFF73EFCC01B022875D8686AF9
:101270008007F7D42078400760D5E8690027C000D0
:1012800008D4E86940F08050E861E869012700F07F
:10129000805000905C480168C90513D401688346FA
:1012A00041F480710160FFF71DFC824606E000BF3B
:1012B000FFF718FCA0EB0A0064284ED8DBF800000A
:1012C000C005F5D5E06801280AD008B1052813D07B
:1012D000286A20F001002862286A20F0040002E059
:1012E000286A40F001002862E06841F2883B98B12A
:1012F000FFF7F8FB82460BE0286A40F00400286202
:10130000EEE700BFFFF7EEFBA0EB0A0159455AD804
:10131000286A8007F6D50CE0FFF7E4FB824605E07B
:10132000FFF7E0FBA0EB0A0159454CD8286A80077B
:10133000F6D41FB1E86920F08050E861E06988B315
:101340006968C1F38101022944D00228C6F860808F
:1013500004D0FFF7C7FB044638E034E0FFF7C2FBD8
:10136000074604E0FFF7BEFBC01B02282BD8286805
:101370008001F7D4206AB0F5803F05D16868A16884
:1013800020F4003008436860D4E908010843696824
:1013900021F4741108436860C6F86090FFF7A2FB5F
:1013A000044606E025E000BFFFF79CFB001B022877
:1013B00009D828688001F7D51BE000BFFFF792FB32
:1013C000001B022802D90320BDE8F88F286880019D
:1013D000F4D40EE00128F7D06868226A00F4803166
:1013E000914204D1616A00F47010884201D001205A
:1013F000EAE70020E8E70000001002400000424257
:10140000800442424C0000200070004010B5401E95
:10141000B0F1807F01D3012010BD4FF0E024606166
:101420000F21601701F066FC0020A06107202061F9
:10143000002010BD7047704770B590F83C20012A1D
:1014400026D0012480F83C40022280F83D20036829
:101450005A689D6822F070060A6832435A600D4B44
:1014600002689A4208D0B2F1804F05D00A4B9A42E6
:1014700002D00A4B9A4204D1496825F080031943EF
:10148000916080F83D40002180F83C10084670BD16
:10149000022070BD002C0140000400400008004004
:1014A00010B5040003D094F83D0010B107E001200E
:1014B00010BD002084F83C00204600F01FF80220F8
:1014C00084F83D00211D206801F088F9012084F88E
:1014D000460084F83E0084F83F0084F8400084F819
:1014E000410084F8420084F8430084F8440084F802
:1014F000450084F83D00002010BD000008B51C4ADE
:1015000001681C48914207D1816941F40061816101
:10151000806900F400601EE0B1F1804F14D0164ADB
:1015200091421AD1C16941F00201C161C069002232
:1015300000F00200009011461D20FFF7C9FCBDE835
:1015400008401D20FFF7B6BCC16941F00101C1612F
:10155000C06900F00100009008BD084A9142FBD12B
:10156000C16941F00401C161C06900F00400F2E703
:10157000002C014000100240000400400008004020
:1015800090F83D10012901D001207047022180F818
:101590003D1000680B49884208D0B0F1804F05D05B
:1015A0000949884202D00949884204D1816801F082
:1015B0000701062903D0016841F001010160002004
:1015C00070470000002C014000040040000800406B
:1015D00090F83D10012901D001207047022180F8C8
:1015E0003D100168CA6842F00102CA6000680B49F8
:1015F000884208D0B0F1804F05D00949884202D016
:101600000849884204D1816801F00701062903D006
:10161000016841F00101016000207047002C014089
:10162000000400400008004001680A6A41F21113FA
:101630001A4207D10A6A9B101A4203D10A6822F0A3
:1016400001020A60012180F83D1000207047016806
:10165000CA6822F00102CA6001680A6A41F21113E5
:101660001A4207D10A6A9B101A4203D10A6822F073
:1016700001020A60012180F83D100020704770B51A
:10168000044690F83C000025012817D0012684F874
:101690003C60022084F83D002068826822F07702D6
:1016A00022F47F4282600868502838D00DDC202860
:1016B0004FD005DC90B3102811D14AE0022070BD54
:1016C000302846D040280AD13BE060282FD070282F
:1016D0000DD0B0F5805F03D0B0F5005F12D00125CA
:1016E00084F83D60002084F83C00284670BDCB683B
:1016F000D1E90121206801F0B4F82068816841F047
:10170000770109E0CB68D1E90121206801F0A9F84F
:101710002068816841F480418160E1E719E0CA688E
:101720004968206801F052F95021206806E0CA6833
:101730004968206801F05BF96021206801F09BF89E
:10174000CEE7CA684968206801F040F94021206866
:10175000F4E7226801461046F0E7704770B504468A
:10176000006801694FF00005C943890715D4C168B5
:10177000C943890711D4E91E01610120207720683F
:1017800080698007204602D0FFF7E7FF04E000F001
:10179000D3F8204600F065F9257720680169C94330
:1017A000490717D4C168C943490713D46FF004012E
:1017B0000161022020772068806910F4407F204674
:1017C00002D0FFF7CAFF04E000F0B6F8204600F0B0
:1017D00048F9257720680169C943090716D4C1680B
:1017E000C943090712D46FF0080101610420207772
:1017F0002068C0698007204602D0FFF7AEFF04E0F2
:1018000000F09AF8204600F02CF92577206801694D
:10181000C943C90617D4C168C943C90613D46FF0B8
:1018200010010161082020772068C06910F4407F12
:10183000204602D0FFF791FF04E000F07DF820463B
:1018400000F00FF9257720680169C943C90708D15D
:10185000C168C943C90704D1891E0161204600F04F
:1018600087F920680169C943090609D4C168C943D9
:10187000090605D46FF0800101612046FFF7DAFD0B
:1018800020680169C943490609D4C168C9434906AA
:1018900005D46FF040010161204600F085F9206811
:1018A0000169C94389060BD4C168C943890607D4B5
:1018B0006FF0200101612046BDE87040FFF7BBBD1D
:1018C00070BD000000B585B000210091019102912A
:1018D0000391026814480221B2F1804F14D0134BD7
:1018E0009A420FD1826942F00802826180690391B5
:1018F00000F0080004900802CDE9000169460C4898
:10190000FEF7F6FF05B000BD826942F00402826175
:101910008069039100F0040004900320CDE90001E8
:1019200069460448ECE7000000100240000800404F
:10193000000C014000080140704770B5044690F863
:101940003C0000260D4601280FD0012084F83C0001
:101950006AB1042A1DD0082A2FD00C2A3FD00126B4
:10196000002084F83C00304670BD022070BD206825
:1019700000F08AFF2068816941F0080181612068D8
:10198000816921F004018161206881692A6911431C
:1019900011E0206800F0A0FF2068816941F4006137
:1019A00081612068816921F4806181612068816999
:1019B0002A6941EA02218161D2E7206800F0B8FF7C
:1019C0002068C16941F00801C1612068C16921F046
:1019D0000401C1612068C1692A69114311E02068CE
:1019E00000F0D2FF2068C16941F40061C161206844
:1019F000C16921F48061C1612068C1692A6941EA35
:101A00000221C161ACE710B5040003D094F83D0099
:101A100010B107E0012010BD002084F83C002046F2
:101A200000F01EF8022084F83D00211D206800F01F
:101A3000D5FE012084F8460084F83E0084F83F007B
:101A400084F8400084F8410084F8420084F84300A0
:101A500084F8440084F8450084F83D00002010BD5F
:101A60007047704710B50446022249B104290ED0D0
:101A7000082913D094F84100012816D0012010BD88
:101A800094F83E000128F9D184F83E200FE094F844
:101A90003F000128F2D184F83F2008E094F840008C
:101AA0000128EBD184F8402001E084F84120012294
:101AB000206800F0C9FE0F492068884203D1426CBB
:101AC00042F4004242642068884208D0B0F1804F5E
:101AD00005D00949884202D00849884204D181686A
:101AE00001F00701062903D0016841F001010160FE
:101AF000002010BD002C0140000400400008004000
:101B000030B504460D460068002200F09DFE174BDC
:101B100041F2111120688A10984209D1036A0B42E0
:101B200006D1036A134203D1436C23F40043436498
:101B30002068036A0B4206D1016A114203D1016891
:101B400021F00101016001203DB1042D08D0082DD4
:101B500009D084F84100002030BD84F83E00FAE747
:101B600084F83F00F7E784F84000F4E7002C0140D8
:101B700010B5074C07A10B48226801F0A7F8022115
:101B8000084A084602F05AF90020206010BD000003
:101B90003800002073706565643A253464636D2FE6
:101BA0007300000054000020704770477047000029
:101BB000F8B5016804460868CA684B6910F00F0F51
:101BC0004FF0000559D003F0010602F49077374337
:101BD00065D0C10705D0D10503D5616C41F0010185
:101BE0006164410705D5D90703D0616C41F002015A
:101BF0006164810705D5D90703D0616C41F0040108
:101C00006164010707D502F02001314303D0616C04
:101C100041F008016164616C00293AD0800604D566
:101C2000900602D5204600F023FF20684069616CD1
:101C3000C0F38010090700D460B3204600F0F1FE25
:101C400020684069400621D52068143050E8001F04
:101C500021F0400140E80012002AF5D1E06BA8B164
:101C60006D494163E06BFEF791FD002811D0E06BF8
:101C7000416B01B0BDE8F040084783060FD59306DD
:101C80000DD52046BDE8F84000F0F2BE2046FFF733
:101C90008DFFF8BD2046FFF789FF6564F8BD266B10
:101CA0002023012E7CD1C6067AD5D60678D50868C1
:101CB0004868009048694FF00206400640D5E16B45
:101CC000086840680004000CE8D0A28D8242E5D983
:101CD000E085886920282DD020680C3050E8001F4E
:101CE00021F4807140E80012002AF5D120681430F8
:101CF00050E8001F21F0010140E80012002AF5D150
:101D00002068143050E8001F21F0400140E8001224
:101D1000002AF5D184F84230256320680C3050E861
:101D2000001F21F0100140E80012002AF5D1E06BFD
:101D3000FEF709FD6663A08DE18D401A81B22AE0AD
:101D4000A08DE18D401A81B2E08D0028A6D0002937
:101D5000A4D022680C3252E8000F20F4907042E8C0
:101D60000007002FF5D12068143050E8002F22F032
:101D7000010240E80027002FF5D184F842302563A6
:101D800020680C3050E8002F22F0100240E80023B9
:101D9000002BF5D166632046FFF707FFF8BDFFE78C
:101DA00005062BD5150629D594F841002128F5D133
:101DB000A068B0F5805F01D12069B0B1206A411CF4
:101DC0002162216800784860E08C401E0004000C0D
:101DD000E084E3D12068C16821F08001C1602068FF
:101DE000C16841F04001C160D8E7206A0088C0F3B3
:101DF00008004860206A801C2062E5E74006CDD5D7
:101E00005006CBD5CA68204622F04002CA6084F84A
:101E1000413000F030F9C1E7132A000870B5040022
:101E200004D094F84100002510B106E0012070BDF7
:101E300084F84050204600F023F8242084F8410024
:101E40002068C16821F40051C160204600F072FE94
:101E50002068016921F4904101612068416921F005
:101E60002A0141612068C16841F40051C160656484
:101E7000202084F8410084F842006563002070BD92
:101E800030B585B000240094019402940394006856
:101E9000184988422CD11848816941F480418161F8
:101EA000816901F480410491816941F004018161FB
:101EB0008069124D00F0040004904FF4007000900F
:101EC000022001900320039069462846FEF710FD8A
:101ED0002815CDE90004694628460294FEF708FD5E
:101EE000002201212520FEF7F3FF2520FEF7E2FF67
:101EF00005B030BD0038014000100240000801402C
:101F000090F84230202B01D00220704721B11AB145
:101F10000023036300F06ABE0120704770B50068BB
:101F20002649884248D1264C6088010438D421468D
:101F3000420409784FF0000526D50A292FD140F434
:101F4000004060801FA12048FEF710F91F4E70B1BD
:101F50001FA11D48FEF70AF978B11EA11A48FEF725
:101F600005F960B11CA11848FEF700F948B13570B9
:101F7000C8211548FEF7EFF811E0012002E0022029
:101F800000E003203070F3E70D2911D0C0F30D02FB
:101F90000D4B401C80B299546080C72800D96580E1
:101FA000BDE87040084801220549C830FFF7A8BFC6
:101FB00040F480406080F3E770BD000000380140CD
:101FC0003C0000204D300000E001002030000020E7
:101FD0004D3100004D3200004D3300002DE9F84333
:101FE000044690F841001F4616460D46202802D0B0
:101FF0000220BDE8F8837DB176B100206064212025
:1020000084F84100FEF76EFDA6848046E684A06851
:10201000B0F5805F02D003E00120EAE7206910B14B
:102020002E4600250EE000260CE08021204600F020
:10203000F8FDA0B9AEB116F8010B21684860E08C3C
:10204000401EE084E08C43464FF0000200970028D9
:10205000EBD14FF04001204600F0E3FD30B103200A
:10206000C7E735F8020BC0F30800E6E7202084F844
:1020700041000020BDE77047FEE701684A69D2438E
:1020800052050FD46FF480624A61002140F8301F7E
:10209000202242738173026942F0040202610173DB
:1020A00001207047002070472DE9F843044600687E
:1020B0000D46DDE9089701689846164641F480719F
:1020C00001604B4600224FF001112046009700F0BE
:1020D0006BF848B120680068C00502D54FF4007065
:1020E00020640320BDE8F883216805F0FE00086144
:1020F0003B464A461549204600F09EF888B92068BC
:102100004169806900903A464946204600F0F2F85D
:1021100048B1206C042804D12068016841F40071A2
:1021200001600120DEE7F5B2B8F1010F09D02168A6
:10213000300A08613A464946204600F0DBF800289C
:10214000E7D1206805610020CCE700000200010013
:1021500070B516460D4604461EE02046FFF78DFF7B
:1021600008B1012070BD681C16D0FEF7BBFC801BB7
:10217000A84200D885B920684069C04340070BD504
:10218000002044F8300F20216173A073216941F0D1
:10219000200121612073E4E720684069C0434007C3
:1021A000DBD4002070BD00002DE9F04798461746AB
:1021B0000D460446C1F30746DDF820902AE000BF33
:1021C000B8F1FF3F26D0FEF78DFCA0EB0901414599
:1021D00002D8B8F1000F1DD12068012E16D08069F9
:1021E00025EA00000004000C12D00020B84211D1F2
:1021F000002044F8300F20216173A073216941F061
:102200002001216120730120BDE8F0874069E7E7E4
:102210000120EBE72068012E0AD0806925EA000042
:102220000004000C06D00020B842C9D00020EBE723
:102230004069F3E70120F7E72DE9F0479846164695
:102240000D4604464FF000094FF0200AC1F307473E
:1022500023E020684069C043400515D42068016828
:1022600041F40071016021686FF480604861C4F836
:10227000309084F83DA084F83E90216C41F0040138
:10228000216484F83C9021E0701C06D0FEF72AFC03
:10229000A0EB0800B04203D816B1012F1FD021E0F7
:1022A0002068012F15D0806925EA00000004000C89
:1022B00018D000BF44F8309F84F80DA084F80E9029
:1022C000216941F02001216184F80C900120BDE8D2
:1022D000F087406925EA00000004000CEAD120687C
:1022E000406901E02068806925EA00000004000CD4
:1022F000AFD1ECE770B516460D4604461EE0204609
:10230000FFF7BBFE08B1012070BD681C16D0FEF7B8
:10231000E9FB801BA84200D885B920684069C0430A
:1023200000060BD5002044F8300F20216173A07304
:10233000216941F0200121612073E4E720684069B0
:10234000C0430006DBD4002070BD00002DE9F0473B
:1023500086B0002437480094019402940394816964
:1023600041F020018161816901F0200104918169BE
:1023700041F004018161816901F0040104918169E6
:1023800041F0080181618069DFF8AC9000F008003D
:102390000490002205214846FEF79FFBDFF89CA031
:1023A0004FF40068002241465046FEF796FB052098
:1023B00001250226CDE90005CDE9024669464846D9
:1023C000FEF796FA1E4FA802CDE90007694602946F
:1023D0004846FEF78DFA43F63800CDE90004694619
:1023E00048460294FEF784FA4FF40140CDE9000418
:1023F000694650460294FEF77BFACDF800800396BA
:10240000CDE9015469465046FEF772FA2803CDE93A
:102410000007694602945046FEF76AFA0022114608
:102420002820FEF755FD2820FEF744FD06B0BDE844
:10243000F087000000100240000C0140000801403D
:10244000000011100D4810B50B4901600C494160A6
:1024500000214FF480428160C0E903124161816133
:10246000C1610162FEF744FB002803D0BDE81040C3
:10247000FEF767B910BD0000005400406C0000205A
:10248000A086010010B586B000241848009401947D
:102490000294039404941449059401604721C0E90F
:1024A00001144FF6FF71C0E903148021C0E9054112
:1024B000FEF7F6FF08B1FEF744F94FF480500090A4
:1024C00069460A48FFF7DBF808B1FEF73AF90494C9
:1024D00004A906480594FEF7AFFF002801D0FEF7D7
:1024E00030F906B010BD0000002C0140C0000020F3
:1024F00010B58EB000240794089409940A940B94A4
:102500001C2168460C94FDF726FE22484FF08041BE
:1025100001604721C0E901141321C0E9031480219F
:102520008161FEF7BDFF08B1FEF70BF94FF4805053
:10253000079007A91748FFF7A2F808B1FEF701F9BD
:102540001448FFF760FA08B1FEF7FBF80B940BA9EB
:1025500010480C94FEF770FF08B1FEF7F2F8602007
:10256000CDE900040294002269460A480494FFF76A
:10257000E4F908B1FEF7E5F8042269460548FFF7DB
:10258000DCF908B1FEF7DDF80248FFF79BF90EB061
:1025900010BD00000801002010B586B000241848C6
:1025A00000940194029403940494144905940160E6
:1025B00041F61F41C0E9011442F20F71C0E9031452
:1025C00080218161FEF76CFF08B1FEF7BAF84FF485
:1025D0008050009069460A48FFF751F808B1FEF7AD
:1025E000B0F8049404A906480594FEF725FF0028D6
:1025F00001D0FEF7A6F806B010BD000000040040B0
:102600005001002010B58EB000240794089409945E
:102610000A940B941C2168460C94FDF79CFD1F48FE
:102620001D49016041F61F41C0E90114C721C0E9FD
:10263000031480218161FEF733FF08B1FEF781F8B2
:102640004FF48050079007A91448FFF718F808B115
:10265000FEF777F81148FFF7D6F908B1FEF771F8E1
:102660000B940BA90D480C94FEF7E6FE08B1FEF79B
:1026700068F86020CDE9000402940C2269460748FE
:102680000494FFF75AF908B1FEF75BF80348FFF727
:1026900019F90EB010BD000000080040980100209C
:1026A0000C4810B50A4901604FF4E1314160002146
:1026B00081600C22C160C0E904128161C161FFF731
:1026C000ADFB002803D0BDE81040FEF73AB810BDBE
:1026D00000380140A8020020FEE7FEE72DE9F047A0
:1026E0000C468046AE2101EB48001746C0B201F00F
:1026F00025FA04F00F00824601F020FA102000EBCA
:102700001410064601F01AFA15483D0100EB0714B3
:10271000DFF85090A5F5007505E000BF19F8050039
:1027200001F01EFA6D1CAC42F8D8AF2101EB480055
:10273000C0B201F003FA504601F000FA304601F051
:10274000FDF907484D46083000EB071603E0285D09
:1027500001F006FA641CA642F9D8BDE8F087000033
:1027600008FEFFFFB841000870477047FEF74ABBFC
:1027700030B58FB028216846FDF7EDFC14210AA87A
:10278000FDF7E9FC01210804CDE9001000240294C2
:1027900002250491CDE907504FF4E01009906846F6
:1027A000FEF7A4FC08B172B6FEE70F20CDE90A05DA
:1027B0004FF48060CDE90C4002210AA80E94FEF788
:1027C000B9FB002801D072B6FEE70FB030BD7047EC
:1027D0000148FEF7C3BF000050010020F0B50268B9
:1027E000164B174C174D4FF08047984205D0B84212
:1027F00003D0A04201D0A84203D122F070064A685B
:102800003243984205D0B84203D0A04201D0A8423A
:1028100003D122F44074CA6822434C6922F080023A
:10282000224302608A68C2620A688262984201D1C9
:102830000969016301214161F0BD0000002C0140E4
:10284000000400400008004010B501F01F03012102
:10285000046A99408C430462016A9A401143016200
:1028600010BD10B5846842EA032224F47F440A4371
:102870002243826010BD826822F070020A4342F057
:10288000070181607047000030B5036A026A22F0D8
:10289000010202624268846924F073050C682C43CB
:1028A00023F002058B682B430A4DA8420BD123F07D
:1028B0000805CB6822F440722B434D6923F00403D2
:1028C00015438A692A43426084614968416303620F
:1028D00030BD0000002C014030B5026A036A23F0CD
:1028E00010030362436884690D6824F4E64444EAF3
:1028F00005248D6822F0200242EA05120B4DA84201
:102900000ED1CD6822F0800242EA05124D6923F40F
:10291000406343EA85038D6922F0400243EA850360
:102920004360846149688163026230BD002C0140CC
:1029300030B5036A026A22F4807202624268C46996
:1029400023F4007324F073050C682C438D6843EA6C
:1029500005230C4DA8420ED1CD6823F4006343EA51
:1029600005234D6922F4405242EA05128D6923F491
:10297000806342EA05124260C4614968C163036230
:1029800030BD0000002C014030B5046A026A22F418
:10299000805202624268C3690D6823F4E64343EA49
:1029A00005238D6824F4005444EA0534064DA842FA
:1029B00004D14D6922F4804242EA85124260C3612B
:1029C00049680164046230BD002C014010B5036AFF
:1029D000046A24F001040462846924F0F00444EAE7
:1029E000021423F00A020A438461026210BD10B58A
:1029F000036A046A24F010040462846923F0A003CB
:102A000024F4704444EA023243EA01118261016213
:102A100010BD10B5406A0021C185C184FFF7C6F81A
:102A200010BD01680C3151E8002F22F4907241E88A
:102A30000023002BF5D10168143151E8002F22F05A
:102A4000010241E80023002BF5D1016B012909D1D6
:102A500001680C3151E8002F22F0100241E80023F8
:102A6000002BF5D1202180F842100021016370472E
:102A700008B590F84210222901D0022008BD8268D2
:102A80004FF480539A4201D1016921B1816A9A427F
:102A90001BD04AB10AE00268816A5268C2F3080298
:102AA0000A80816A891C08E0026972B10268526872
:102AB00002F07F020A70816A491C8162C18D491E41
:102AC0000904090CC18503D01BE002685268F1E7D4
:102AD0000168CA6822F02002CA600168CA6822F44C
:102AE0008072CA6001684A6922F001024A612021AD
:102AF00080F8421000214163026B012A03D0FFF7E6
:102B00000DFA002008BD016301680C3151E8002F67
:102B100022F0100241E80023002BF5D101680A6879
:102B2000D20602D50A6849680091818DFFF73DF809
:102B3000E7E7000070B5044600680169E26821F427
:102B40004051114301612169A0680843616908434C
:102B50002168CA6841F20C639A430243CA60206844
:102B60004169A26921F44071114341611E49206805
:102B7000884202D1FEF784FA01E0FEF771FA00EB19
:102B8000C00101EB0012606864218000B2FBF0F329
:102B9000B3FBF1F36FF018067343B2FBF0F5B2FB31
:102BA000F0F605EB8305322303EB0515B5FBF1F5D4
:102BB000B6FBF1F605F0F00505EB0615B2FBF0F6F5
:102BC000B2FBF0F0B0FBF1F06FF01802504306EBEF
:102BD000800003EB0010B0FBF1F0216800F00F0063
:102BE0002844886070BD0000003801408162828501
:102BF000C28500214164222180F84210016921B17F
:102C00000168CA6842F48072CA6001684A6942F089
:102C100001024A610068C16841F02001C1600020E2
:102C200070472DE9F041984617460E460446069D2A
:102C300027E0681C25D02DB1FDF754FFA0EB08005C
:102C4000A8421ED920680C3050E8001F21F4D07132
:102C500040E80012002AF5D12068143050E8001F27
:102C600021F0010140E80012002AF5D1202084F86B
:102C7000410084F84200002084F840000320BDE8B1
:102C8000F0812068006836EA000004D00020B842D5
:102C9000CFD00020F3E70120F9E700000148FEF75C
:102CA00087BF0000A8020020FEE700000FB4054B1C
:102CB00010B503A9044A029800F0FEF810BC5DF8B4
:102CC00014FB0000693A0008500000200FB4084BC4
:102CD00010B504A902AA039800F0EEF8044602A970
:102CE000002000F06CFC204610BC5DF814FB0000D6
:102CF000BF3500080907090E002804DB00F1E020B9
:102D000080F80014704700F00F0000F1E02080F818
:102D1000141D704702E008C8121F08C1002AFAD12A
:102D200070477047002001E001C1121F002AFBD14B
:102D3000704700002DE9FF5F82B00021DDE904301B
:102D4000020DDDF840B0034318D044F61050A2F253
:102D5000FF3242431514119801281FD0A5EB0B0038
:102D6000401C5FEA000A4FF000064E4FDFF8389132
:102D7000B046504615D5CAF1000413E0119801245D
:102D80004AA3012801D16FEA0B010298119AC0E908
:102D90000031C0E9024206B0BDE8F09FCBF100006F
:102DA000DFE704460021404A491842EB0450CDE9D0
:102DB000001012E0E00707D032463B464046494645
:102DC000FDF789FA8046894632463B461046194649
:102DD000FDF781FA06460F466410002CEAD1DDE9C2
:102DE0000401DDE90023BAF1000F06DAFDF773FAFA
:102DF00042464B46FDF76FFA05E0FDF7FCFB424605
:102E00004B46FDF7F8FB04460E460022284BFDF723
:102E100015FB03D84FF0FF30014607E00022254B99
:102E200020463146FDF7B0F9FDF754FC102409E0C7
:102E3000002C0ADB0A220023FDF72EFB039B303215
:102E40001A55641E50EA0102F2D1641C039AC4F1BF
:102E500011031444119A012A03D0012208430DD111
:102E60000AE0084304D000204FF0110B119072E7E4
:102E7000A3EB0B056D1E0DE05B4504DD4FF000027A
:102E800005F1010504E003DA4FF00002A5F10105A8
:102E9000002AECD002981199C0E90231C0E900453E
:102EA00079E70000000014400000F03F300000000F
:102EB0000000F0430000E03F2DE9FF4F95B09A4637
:102EC000884606460025EEE1252877D100242746CE
:102ED000F94A0121039400E0044316F8013F203B26
:102EE00001FA03F01042F7D130782A2811D06FF0A0
:102EF0002F033078A0F13002092A16D8039A44F043
:102F0000020402EB820203EB42021044761C03909F
:102F1000EFE758F8042B0392002A03DA504244F4F6
:102F20000054039044F00204761C30782E2816D109
:102F300016F8010F44F004042A280DD06FF02F0278
:102F40003078A0F13003092B09D807EB870302EB97
:102F50004303C718761CF3E758F8047B761C3078D7
:102F60006C280FD006DC4C2817D068280DD06A28B2
:102F700014D104E0742810D07A280FD10DE044F465
:102F800000140AE044F4801401E044F44014727820
:102F9000824202D104F58014761C761C30786628B3
:102FA0000BD013DC582877D009DC002875D04528D1
:102FB000F6D04628F4D047281AD193E118E06328C8
:102FC00035D0642879D0652812D18BE1702873D070
:102FD00008DC6728F1D069286FD06E280DD06F28E3
:102FE00006D1ACE073282CD0752874D0782853D043
:102FF0005246179990476D1C54E1C4F302500228C1
:1030000009D003280DD0D8F8001004280DD00D6089
:1030100008F1040846E1D8F80010EA17C1E90052A7
:10302000F6E7D8F800100D80F2E70D70F0E718F819
:10303000041B8DF8001000208DF80100EB460120E4
:1030400003E058F804BB4FF0FF3061074FF0000178
:1030500002D40DE009F101018946B9420FDA814538
:10306000F8DB1BF809100029F4D108E009F101018F
:1030700089468142FADB1BF809100029F6D1039832
:103080005346A0EB090721463846179A00F080FA0C
:10309000284400EB090507E044E008E10DE01BF8D7
:1030A000010B524617999047B9F10109F7D25346DF
:1030B00021463846179AF2E039E00A21C4F3025259
:1030C0004FF0000B0091022A06D058F8040BC117EC
:1030D000032A09D00AE023E008F1070020F00702E4
:1030E000F2E80201904605E000B2C117042A01D1BE
:1030F00040B2C117002906DA0A460021404261EBBE
:1031000002012D2202E0220504D52B228DF8042095
:10311000012203E0E20701D02022F7E7914657E0C1
:103120000A2100E010214FF0000B00910BE010216C
:103130004FF0000B44F004040827009103E008203E
:103140004FF0000B0090C4F30252022A05D058F849
:10315000040B0021032A08D008E008F1070020F042
:103160000702F2E80201904603E080B2042A00D18F
:10317000C0B24FF0000922072AD53278702A07D052
:10318000DDF800C08CF0100C5CEA0B0C05D00EE0F2
:1031900040228DF80420012208E050EA010306D005
:1031A00030238DF804308DF8052002229146009BD3
:1031B00083F0080353EA0B030AD150EA010201D15C
:1031C000620705D530228DF804204FF001097F1EDB
:1031D0003278582A04D039A20C920CAA02920BE041
:1031E0003BA2F9E75B46009AFDF756F90C9B9B5C06
:1031F000029A521E0292137050EA0102F2D1029812
:1032000004A9081A00F1200B600702D524F48034C9
:1032100000E001275F4502DDA7EB0B0000E0002086
:1032200000EB0B01009003984944401A0390E0031F
:1032300006D453462146179A039800F0A9F905448D
:10324000002706E001A85246C05D179990476D1C03
:103250007F1C4F45F6DBE0030CD553462146179AF9
:10326000039800F095F9054404E030205246179980
:1032700090476D1C0099481E00900029F5DC08E07D
:103280000298029952460078491C0291179990477A
:103290006D1CBBF10001ABF1010BF1DC5BE100F057
:1032A00065F90544761C307800287FF40DAE19B01E
:1032B0002846BDE8F08F0000092801003031323384
:1032C0003435363738396162636465660000000062
:1032D000303132333435363738394142434445464C
:1032E00000000000600700D4062708F1070020F066
:1032F0000700F0E80223804603F0004C5FEA0C0070
:1033000001D097A009E0200501D596A005E0E007CF
:1033100001D095A001E0AFF24C001390307823F07B
:10332000004365280CD006DC452809D046281DD06E
:1033300047287FD13BE0662818D067287AD136E04D
:103340000021112F01DB112000E0781CCDE90001E4
:1033500004A90CA8FFF7EEFCDDE90D010C9A4FF073
:10336000000B07F10109109200914EE04FF0004070
:103370000097CDE9011004A90CA8FFF7DBFCDDE9FB
:103380000D020C9B0F994FF0000B91461093009289
:1033900011B9791C00EB0109B7EB090003D4C0F1A6
:1033A000FF3B07F10109A9EB0700019042E0012F63
:1033B00000DA01270021112F01DD112000E038463D
:1033C000CDE9000104A90CA8FFF7B4FCDDE90D016B
:1033D0000C9A00914FF0000BB946109221070FD4C0
:1033E000009A4A4503DA914601E0A9F10109B9F1D1
:1033F000010F05DD109AA9F10101515C3029F4D0CB
:10340000B84202DA10F1040F03DA0121CDE901100C
:1034100010E0002803DC8344A9EB000102E0411C1A
:10342000494500DD8946A0EB0B00401C01904FF0A0
:1034300000400290200705D40198484502DB4FF078
:10344000FF30019000208DF84B0002980DF14B07E2
:10345000B0F1004F25D002200C902B200D90029847
:1034600000280CDA404202902D200D9007E00A213E
:103470000298FCF7FBFF3031029007F8011D0C9910
:10348000481E0C900029F2DC02980028EFD1791E2A
:103490000D980870307800F0200040F0450007F8E3
:1034A000020D11A8C01BC01D02901398007800B136
:1034B000012000EB0901019801EBE0710298014441
:1034C0000398401A401E0390E00306D45346214659
:1034D000179A039800F05CF805441398007818B127
:1034E0005246179990476D1CE00323D55346214659
:1034F000179A039800F04CF805441BE0BBF1000F4D
:1035000007DB0098584504DD1098179910F80B0058
:1035100001E0179930205246904701980BF1010BBA
:10352000401E05F10105019004D12E205246179945
:1035300090476D1CB9F10001A9F10109DEDC05E03D
:1035400017F8010B5246179990476D1C0299481EB7
:1035500002900029F4DC53462146179A03989EE610
:103560002D0000002B000000200000002DE9F0419C
:10357000044600251E461746880404D405E0394653
:103580002020B0476D1C641EF9D52846BDE8F081A7
:103590002DE9F041044600251E469046C80301D59A
:1035A000302700E02027880404D505E0414638464E
:1035B000B0476D1C641EF9D52846BDE8F0810A6845
:1035C000531C0B60107070472DE9F0476D486E4C2E
:1035D0000078617888420ED06070002000F01EF9FB
:1035E00000F0CCFB69A20221012000F027FC4FF47F
:1035F000FA70FDF717F920784FF4967830B1002073
:10360000207000F0D1FD4046FDF70CF9634D00201D
:10361000C5E9000000F070FD614EDFF88891D5E942
:10362000000100221346FCF7F1FEF8D0D5E90001B5
:10363000B2463346002206460F46FCF746FEC4E972
:10364000040132463B4658A0FFF730FBD4E90401A1
:103650000022584BFCF7F2FE03D2BDE8F04700F021
:10366000D7B9D4E9040100224B46FCF7CFFE03D2C0
:10367000BDE8F04700F0AEB800F08CFC00F08CFD27
:103680004046FDF7CFF80020C5E9000000F034FD0A
:10369000D5E9000100221346FCF7B8FEF8D0D5E9C1
:1036A00000010022534606460F46FCF70EFEC4E911
:1036B000020132463B4640A0FFF7F8FA00F074FDE5
:1036C00046464046FDF7AEF80020C5E9000000F090
:1036D00013FD3C4FD5E9000100221346FCF796FE8E
:1036E000F8D0D5E9000100223B46FCF7EEFD0022B0
:1036F0004B46C4E90401FCF789FE01D200F06AF8E8
:1037000000F042FD022020703046FDF78BF80020CB
:10371000C5E9000000F0F0FCD5E9000100221346E5
:10372000FCF774FEF8D0D5E9000100223B460546BF
:103730000E46FCF7CAFDC4E906012A46334622A01C
:10374000FFF7B4FAD4E90201D4E90623FCF75EFEE0
:1037500006D200F0E7FB9620FDF764F800F01AFCB3
:10376000D4E90201D4E90623FCF768FE08D200F090
:103770007BFA9620FDF756F8BDE8F04700F00ABC4A
:10378000BDE8F08730000020000000206D6F646508
:10379000203A2061766F6964000000002800002054
:1037A00000000C400000244066726F6E743A25667B
:1037B0000D0A0000008041406C6566743A25660D74
:1037C0000A00000000001C4072696768743A2566B0
:1037D0000D0A000070B50E480078002817D10D4C76
:1037E000012204212046FDF778F90B4D002201212A
:1037F0002846FDF772F9012211462046FDF76DF9C2
:103800002846BDE8704000220221FDF766B970BD70
:1038100020000020000C0140000801400F4910B5B5
:10382000087078B1FEF764FE00210D48FEF71AF922
:1038300004210B48FEF716F9BDE810404FF4FA706A
:10384000FCF7F0BF00210648FEF75AF904210448AE
:10385000FEF756F9BDE8104000F0D2B92000002074
:103860000801002071B54FF461754FF0E023104E50
:10387000009819E02C46A04200D80446986961429D
:1038800001EBC10110EBC10105D49A69824208DA4B
:103890008A42FADA05E08A1999698142FCDD91428F
:1038A000FADC0098001B00900028E3D178BD0000EE
:1038B0004019010000B585B0002102910A498A69CA
:1038C00042F004028A61896901F0040104914FF415
:1038D0008071CDE900100220039069460348FDF78E
:1038E00007F805B000BD00000010024000080140CC
:1038F0001FB517480078002829D116494860164896
:10390000FDF7A5FE00F00CFC00F0A8FA8023382299
:103910000821042000F008FA104C11A16846E37851
:10392000A278FFF7D3F96A460221032000F086FA55
:10393000637822780EA16846FFF7C8F96A4602212B
:10394000042000F07BFA4FF4FA70FCF76BFF1FBD08
:103950003000002000000020500100203100002035
:1039600054656D70203A2025642E256420430000A4
:1039700048756D69203A2025642E25642025250090
:103980001D4810B501781D48427891420DD0417014
:103990000020FFF743FF00F0F1F919A202210120F6
:1039A00000F04CFA6420FCF73DFF00F051F920B91B
:1039B00000F0AAFA08B900F02BF800F049F928B98C
:1039C00000F0A2FA012801D100F04EF900F040F910
:1039D000012804D100F098FA08B900F0A3FA00F029
:1039E00037F9012807D100F08FFA012803D1BDE88B
:1039F000104000F0CFBA10BD3000002000000020C1
:103A00006D6F6465203A20666F6C6C6F7700000004
:103A100070B51148007838B110480A210268516326
:103A200000680D21816370BD0D4C002204212046E9
:103A3000FDF753F80B4D012211462846FDF74DF8CE
:103A4000002201212046FDF748F82846BDE87040D5
:103A500001220221FDF741B82000002008010020CA
:103A6000000C01400008014038B504468DF8000004
:103A700040F6FF73012269460248FEF7AFFA20467E
:103A800038BD0000A80200202DE9F041294C4FF478
:103A9000006631462046FDF71BF8274DA7144FF46A
:103AA000005860B939462046FDF712F8012806D1C2
:103AB00041462046FDF70CF8012800D12870314618
:103AC0002046FDF705F801280CD139462046FCF7C1
:103AD000FFFF38B941462046FCF7FAFF012801D123
:103AE0000320287031462046FCF7F2FF01280CD154
:103AF00039462046FCF7ECFF012806D14146204616
:103B0000FCF7E6FF08B90220287031462046FCF792
:103B1000DFFF58B939462046FCF7DAFF30B9414695
:103B20002046FCF7D5FF08B9002028702878BDE8AA
:103B3000F0810000000C01403000002001B584B08D
:103B40000121FF2204A88DE807000B4600227821FE
:103B50000248FDF791F805B000BD00006C000020A0
:103B600001B584B00121FF2204A88DE807000B46AF
:103B7000402278210248FDF77FF805B000BD000023
:103B80006C00002010B501220F491048FEF7B8F96B
:103B900000F0F4F900F0FEF800F0F6F80CA20221B3
:103BA000012000F04BF902210CA2084600F046F972
:103BB0000DA20221032000F041F90221BDE81040CE
:103BC0000CA2042000F03AB93C000020A80200201A
:103BD0006D6F6465203A2073746F70007370656553
:103BE000643A202D2D2D2D0054656D70203A2D2D19
:103BF0002E2D2D0048756D69203A2D2D2E2D2D006E
:103C000030B585B0002410480094019402940394C8
:103C1000816941F00401816180690C4D00F004006C
:103C20000490224603212846FCF757FF032000900A
:103C30000120CDE901040220039069462846FCF7E3
:103C400057FE05B030BD00000010024000080140E2
:103C500020210148FCF73CBF000C0140082101482D
:103C6000FCF736BF000C014070B51148007838B140
:103C7000104801210268516300680D21816370BD05
:103C80000D4C002204212046FCF727FF0B4D01229A
:103C900011462846FCF721FF002201212046FCF7AF
:103CA0001CFF2846BDE8704000220221FCF715BF2A
:103CB0002000002008010020000C01400008014005
:103CC000FDF7A8F8FEF754FDFEF740FBFEF7E8FC11
:103CD000FEF70EFCFEF796FCFEF7D4FBFEF75CFC4D
:103CE000FEF7B0FBFFF74EFF0E4C00BFFFF7CCFE18
:103CF00000F0EEF8207878B1012804D0022808D02E
:103D000003280BD102E000F0ADF907E0FFF738FE21
:103D100004E0FFF759FC01E000F068F9FFF7E8FD67
:103D2000E4E70000300000202DE9F04704461F467C
:103D3000164689462020FFF701FF0220FFF7FEFE0E
:103D4000102000EB161806F00F0A13E004F1B00083
:103D5000C0B2FFF7F3FE5046FFF7F0FE4046FFF714
:103D6000EDFE354603E00020FFF7FAFE6D1CBD4274
:103D7000F9DB641C4C45E9DBBDE8F08700228023B9
:103D800002211046FFF7D0BF0022802308211046F1
:103D9000FFF7CABF10B5AE20FFF7D0FE0020FFF737
:103DA000CDFE1020FFF7CAFE4020FFF7C7FEB0206F
:103DB000FFF7C4FE8120FFF7C1FEFF20FFF7BEFE24
:103DC000A120FFF7BBFEA620FFF7B8FEA820FFF753
:103DD000B5FE3F20FFF7B2FEC820FFF7AFFED320AD
:103DE000FFF7ACFE0020FFF7A9FED520FFF7A6FEE7
:103DF0008020FFF7A3FED820FFF7A0FE0520FFF7E5
:103E00009DFED920FFF79AFEF120FFF797FEDA20FA
:103E1000FFF794FE1220FFF791FEDB20FFF78EFEE6
:103E20003020FFF78BFE8D20FFF788FE1420FFF770
:103E300085FEBDE81040AF20FFF780BE70B5144688
:103E40000D46064606E029463046FEF747FC083593
:103E5000EDB2641C2278002AF5D170BD2DE9F0473F
:103E60000020FFF727FDDFF86080DFF860A0002466
:103E70004FF4807900254F4649464046FCF728FE1E
:103E80000028F8D02820FFF7EDFCB9463946404617
:103E9000FCF71EFE01280ED05FF0000707EB46007E
:103EA0006D1CC6B2082DE6DB0AF80460641C052C04
:103EB000E0DBBDE8F087012749464046FCF708FEF5
:103EC0000028F9D1EAE70000000801403100002095
:103ED00010B50B4C207803280DD001280BD00228F8
:103EE00009D00848FDF7B3FB2078012807D0BDE8CA
:103EF000104000F059B90348FDF76AFBF4E710BD24
:103F000030000020500100204FF400410148FCF730
:103F1000DFBD00000008014010210148FCF7D8BDBA
:103F2000000C014070B51148007838B110480D21DF
:103F30000268516300680121816370BD0D4C00224D
:103F400004212046FCF7C9FD0B4D00220121284623
:103F5000FCF7C3FD002201212046FCF7BEFD2846E8
:103F6000BDE8704001220221FCF7B7BD200000200F
:103F700008010020000C01400008014010B50C2190
:103F80000348FDF76FFD024911200968086410BD60
:103F90009801002070B51148007830B11049002018
:103FA0000A6850630968886370BD0E4C00220421C2
:103FB0002046FCF792FD0C4D002201212846FCF71B
:103FC0008CFD002201212046FCF787FD2846BDE834
:103FD000704000220221FCF780BD0000200000207C
:103FE00008010020000C014000080140094810B5FC
:103FF00001780948427891420BD04170FFF7BEFE2C
:1040000006A202210120FFF719FFBDE81040FFF7CB
:104010005FBF10BD30000020000000206D6F6465A0
:10402000203A2073746F70000D490A68136843F0DA
:10403000010313600B6800225A620968401E4A6A35
:104040008242FCD3086A41F21112104207D1086A79
:104050009210104203D1086820F0010008607047F8
:10406000C00000201E4810B501781E4842789142D9
:104070000ED041700120FFF7D1FB4FF4FA70FCF72E
:10408000D1FBFFF77BFE18A202210120FFF7D6FE2D
:10409000FFF7E4FD20B9FFF73FFF08B9FFF7B8FCD1
:1040A000FFF7DCFD28B9FFF737FF012801D1FFF743
:1040B000DBFDFFF7D3FD012804D1FFF72DFF08B981
:1040C000FFF730FFFFF7CAFD012807D1FFF724FFF4
:1040D000012803D1BDE81040FFF75CBF10BD000010
:1040E00030000020000000206D6F6465203A2074CD
:1040F000726163650000000070B50122074DD402B3
:1041000021462846FCF7E9FC1420FFF78DFF2146E5
:104110002846BDE870400022FCF7DFBC00080140E3
:1041200070B50120FFF7C6FB0122164C1502294687
:104130002046FCF7D2FC002229462046FCF7CDFCA5
:1041400047F23050FFF78EFB012229462046FCF74C
:10415000C4FC3C20FFF786FB0020FFF7ABFB2946A1
:104160002046FCF7B5FC0028F9D129462046FCF78B
:10417000AFFC0028F9D029462046FCF7A9FC00280E
:10418000F9D170BD000801400249052009680864A2
:10419000704700009801002002491920096808644E
:1041A0007047000098010020024911200968086446
:1041B000704700009801002000000000000000008F
:1041C0000000000000000000000000F800000000F7
:1041D000000000333000000000100C06100C060038
:1041E000000000000000000040C07840C07840009F
:1041F000043F04043F040400007088FC0830000001
:10420000001820FF211E0000F008F000E018000058
:1042100000211C031E211E0000F008887000000011
:104220001E2123241927211010160E000000000063
:104230000000000000000000000000E01804020080
:10424000000000071820400000020418E0000000F1
:104250000040201807000000404080F080404000EF
:104260000202010F01020200000000F00000000045
:104270000101011F01010100000000000000000019
:1042800080B070000000000000000000000000008E
:104290000001010101010101000000000000000017
:1042A00000303000000000000000000080601804B2
:1042B000006018060100000000E010080810E0008F
:1042C000000F102020100F00001010F80000000058
:1042D0000020203F2020000000700808088870009F
:1042E000003028242221300000300888884830001F
:1042F0000018202020110E000000C02010F800003F
:1043000000070424243F240000F8088888080800D7
:104310000019212020110E0000E0108888180000EC
:10432000000F112020110E0000380808C8380800BE
:104330000000003F0000000000708808088870003E
:10434000001C222121221C0000E010080810E000BF
:104350000000312222110F00000000C0C000000048
:10436000000000303000000000000080000000006D
:104370000000806000000000000080402010080065
:10438000000102040810200040404040404040002E
:104390000404040404040400000810204080000009
:1043A0000020100804020100007048080808F0000E
:1043B0000000003036010000C030C828E810E000DE
:1043C0000718272423140B000000C038E000000069
:1043D000203C23020227382008F8888888700000D3
:1043E000203F202020110E00C030080808083800A7
:1043F000071820202010080008F808080810E0001E
:10440000203F202020100F0008F88888E8081000BE
:10441000203F20202320180008F88888E808100092
:10442000203F200003000000C030080808380000CA
:1044300007182020221E020008F808000008F808CB
:10444000203F210101213F20000808F80808000052
:104450000020203F2020000000000808F808080085
:10446000C08080807F00000008F888C028180800FD
:10447000203F20012638200008F808000000000036
:10448000203F20202020300008F8F800F8F808002D
:10449000203F003F003F200008F830C00008F80827
:1044A000203F200007183F00E01008080810E00037
:1044B0000F10202020100F0008F808080808F0004E
:1044C000203F210101010000E01008080810E00071
:1044D0000F18242438504F0008F888888888700006
:1044E000203F2000030C30200070880808083800A6
:1044F0000038202121221C00180808F8080818009C
:104500000000203F2000000008F808000008F8081C
:10451000001F202020201F000878880000C83808CD
:10452000000007380E010000F80800F80008F80045
:10453000033C0700073C03000818688080681808DF
:1045400020302C03032C30200838C800C83808005D
:104550000000203F2000000010080808C8380800AC
:104560002038262120201800000000FE0202020050
:104570000000007F40404000000C30C00000000000
:10458000000000010638C00000020202FE00000028
:10459000004040407F0000000000040202020400CE
:1045A000000000000000000000000000000000000B
:1045B00080808080808080800002020400000000F3
:1045C00000000000000000000000808080800000EB
:1045D0000019242222223F2008F8008080000000D9
:1045E000003F112020110E0000000080808000009C
:1045F000000E112020201100000000808088F800AB
:10460000000E112020103F200000808080800000DC
:10461000001F222222221300008080F08888881840
:104620000020203F2020000000008080808080004B
:10463000006B94949493600008F8008080800000E0
:10464000203F210000203F200080989800000000BB
:104650000020203F202000000000008098980000EB
:1046600000C08080807F000008F80000808080000B
:10467000203F24022D302000000808F80000000030
:104680000020203F202000008080808080808000EB
:10469000203F20003F20003F80800080808000007D
:1046A000203F210000203F2000008080808000000B
:1046B000001F202020201F0080800080800000003C
:1046C00080FFA12020110E0000000080808080006B
:1046D000000E112020A0FF8080808000808080005C
:1046E00020203F2120000100000080808080800089
:1046F0000033242424241900008080E080800000FE
:104700000000001F2020000080800000008080004A
:10471000001F202020103F208080800000808080AB
:1047200000010E300806010080800080008080803B
:104730000F300C030C300F00008080008080800060
:104740000020312E0E31200080808000008080808B
:1047500080818E701806010000808080808080003B
:104760000021302C2221300000000000807C020259
:1047700000000000003F404000000000FF0000007B
:1047800000000000FF0000000002027C800000002A
:104790000040403F00000000000601010202040446
:1047A00000000000000000000102020304050607EB
:1047B00008090A0B0C0D0E0F10100000000000007D
:1047C00000000102030406070809000000000102BE
:1047D00003040000F447000800000020540000001B
:1047E000142D000848480008540000209C060000D2
:1047F000242D000800000000000000000000000060
:1048000000000000000000000000000000000000A8
:104810000000000000000000000000000000000098
:104820000000000000000000000000000000000088
:104830000000000001000000100000000000000067
:084840000024F4000000000058
:04000005080000ED02
:00000001FF
