:03000000020003F8
:0C000300787FE4F6D8FD75810902004A00
:04010B0002080000E6
:0D00DA00007F047E817D77DDFEDEFCDFFA15
:0100E70022F6
:0D00E800007F0F7E027DEBDDFEDEFCDFFA07
:0100F50022E8
:080102007FB47E49DEFEDFFC44
:01010A0022D2
:1000BA0020B309C2B71200E8D2B780F4D2B780F0F1
:1000CA0020B309C2911200E8D29180F4D29180F053
:0C00F600309202C2913093F8D29180F455
:10008F0030920DC2911200E8D291750800750901E6
:10009F0030930CC2911200DAD291E4F508F509E51C
:0B00AF0009450860DBA2B3929180D5E8
:0301100002008F5B
:10000F00020110E493A3F8E493A34003F68001F2F6
:10001F0008DFF48029E493A3F85407240CC8C333F2
:10002F00C4540F4420C8834004F456800146F6DFC1
:10003F00E4800B010204081020408090010BE47E45
:10004F00019360BCA3FF543F30E509541FFEE493B6
:10005F00A360010ECF54C025E060A840B8E493A37D
:10006F00FAE493A3F8E493A3C8C582C8CAC583CAA8
:10007F00F0A3C8C582C8CAC583CADFE9DEE780BE60
:01010F0000EF
:00000001FF
