:0300000002016991
:0C016900787FE4F6D8FD75810902008063
:09017500D283D28100C283002272
:09017E00C283D28100D283002269
:0B0122001200FA12012DAF051200FAC6
:0E012D00D28300D281A283E433FF00C281009E
:01013B0022A1
:0700F300AD071201757F78D3
:1000FA00EF3395E0FEE4FBFAC281EF33928300D23C
:10010A008100C28100EF25E0FFEE33FE0BBB000148
:07011A000AEB64084A70E1E2
:0101210022BB
:0A013C00120146E4FF1201467F1095
:0E0146001200F312012DE4FF12012202017ECD
:070154007FFF12015B7FFF3A
:0E015B001200F312012D7F4012012202017EDC
:1000C000900000AF82EF24B0FF12013CE4F508F588
:1000D00009E4FF12015B0509E50970020508C394F4
:1000E00080E5086480948040E8A3E5826408458345
:0200F00070D1CD
:0100F20022EB
:010187002255
:100003007FAE12013C7F401201467FB01201467F52
:10001300811201467FFF1201467FA11201467FA68E
:100023001201467FA81201467F3F1201467FC81284
:1000330001467FD3120146E4FF1201467FD5120128
:10004300467F801201467FD81201467F0512014682
:100053007FD91201467FF11201467FDA1201467FF2
:10006300121201467FDB1201467F301201467F8D5B
:0D0073001201467F141201467FAF020146C4
:100080001200037F201201467F021201461200C0B7
:100090007FB012013C1201541201547FFF12015B28
:1000A0007FB512013C7F0812015B7F0812015B7F64
:1000B0000812015B7F0812015B7F0812015B80FE62
:00000001FF
