:020000040800F2
:10000000B006002005010008EB1C0008C716000818
:10001000E91C00088D0100083522000800000000DE
:100020000000000000000000000000007B1D000830
:100030008F01000800000000791D00087D1D0008E8
:100040001F0100081F0100081F0100081F01000810
:100050001F0100081F0100081F0100081F01000800
:100060001F0100081F0100081F0100081F010008F0
:100070001F0100081F0100081F0100081F010008E0
:100080001F0100081F0100081F0100081F010008D0
:100090001F0100081F0100081F0100081F010008C0
:1000A0001F0100081F0100081F0100081F010008B0
:1000B0001F0100081F0100081F0100081F010008A0
:1000C0001F0100081F0100081F0100081F01000890
:1000D0001F010008292200081F0100081F01000855
:1000E0001F0100081F0100081F010008DFF810D0E1
:1000F00000F03AF8004800479D240008AFF3008064
:10010000B00600200648804706480047FEE7FEE7A5
:10011000FEE7FEE7FEE7FEE7FEE7FEE7FEE7FEE7B7
:10012000DF1D0008ED000008D2B201E000F8012B4D
:10013000491EFBD270470022F6E710B513460A4667
:1001400004461946FFF7F0FF204610BD10B5002207
:1001500000E0521C835C8C5CA34201D1002BF8D1DF
:10016000D8B2E1B2401A10BD064C074D06E0E06877
:1001700040F0010394E8070098471034AC42F6D3EE
:10018000FFF7B8FF602D0008802D0008FEE77047DC
:1001900072B6FEE710B590F821100022022905D0B2
:1001A0000421816380F82020012010BD01680B68C4
:1001B00023F00E030B6001680B6823F001030B6052
:1001C00090F84030C46B012101FA03F3636080F8BA
:1001D000211080F82020104610BD000010B590F8C6
:1001E00021100024022903D00421816301243DE071
:1001F00001680A6822F00E020A6001680A6822F0AB
:1002000001020A601A4A0168914201D1012121E0EC
:10021000174A1432914201D110211BE0144A2832AE
:10022000914201D1891515E0114A3C32914201D128
:1002300089140FE00E4A5032914202D14FF48031BE
:1002400008E00B4A6432914202D14FF4801101E080
:100250004FF08071064A083A5160012180F8211060
:10026000002180F82010416B01B18847204610BD65
:100270000800024070B5044600F008F90546601C0D
:1002800002D004480078044400F000F9401BA0426A
:10029000FAD370BD180000202DE9F84FDFF8B891AF
:1002A0000024A9F1040B23460F2709F1040AABF13E
:1002B000040EC9E00125A5402A40AA427DD1674E1F
:1002C000D1F804C0ACEB0608B44532D014DCBCF164
:1002D000030F3AD009DCBCF1000F2AD0BCF1010FAA
:1002E0001CD0BCF1020F31D11DE0BCF1110F17D0B1
:1002F000BCF1120F2AD119E0B8F5881F19D006DC1D
:10030000B8F5803F15D0B8F5801F1FD111E0B8F5C2
:10031000001F0ED0B8F5041F18D10AE0CB6815E015
:10032000CB681B1D12E0CB6808330FE0CB680C33A1
:100330000CE08B682BB1012B4FF0080303D0456113
:1003400004E0042302E0056100E00023FF2A01D855
:10035000064601E000F104064FEA840501D9A5F143
:100360002005D6F8008007FA05FC28EA0C0803FAF5
:1003700005F548EA0508C6F800804D68ED0062D52D
:10038000374DAE6946F00106AE61AD6924F0030653
:1003900005F001050095334D06EB050CDCF808501F
:1003A000A607360F07FA06F825EA0805DFF8B88031
:1003B000404503D14FF0000817E044E0DFF8AC807F
:1003C000404502D14FF001080FE0DFF8A48040451E
:1003D00002D14FF0020808E0DFF89880404502D1D2
:1003E0004FF0030801E04FF0040808FA06F848EA65
:1003F0000508CCF808804D68D9F80060ED024D463C
:1004000001D5164300E096432E604D68DAF800608F
:10041000AD02554601D5164300E096432E604D6867
:10042000DBF80060AD035D4601D5164300E096435E
:100430002E604D68DEF80060ED03754601D5164369
:1004400000E096432E60641C0D682A46E5407FF468
:1004500031AFBDE8F88F0000080401400000111022
:10046000001002400000014000080140000C014063
:1004700000100140001401408068084000D00120B5
:1004800070470AB1016170470904FBE701488068C1
:10049000704700001800002070B5040025D094F8C3
:1004A0003D00002520B984F83C50204600F050F96A
:1004B000242084F83D002068016821F001010160DA
:1004C0002068016841F4004101602068016821F45E
:1004D0000041016000F098FA4D4A6168914201D8EC
:1004E0004C4900E04C49884201D2012070BD4B4983
:1004F0002368B0FBF1F15E6826F03F060E435E60B4
:100500006368934206D94FF4967359434FF47A7354
:10051000B1FBF3F12368491C1E6A26F03F06314304
:1005200019626168914210D84900401EB0FBF1F297
:10053000521CC2F30B02042A01D2042022E0B0FBB9
:10054000F1F0401CC0F30B001CE0A268F2B301EB19
:10055000C10303EB0116431EB3FBF6F35B1C43F42C
:1005600080431B0549D092B301EBC10202EB01119C
:10057000401EB0FBF1F0401CC0F30B0040F4804083
:1005800040F400402168CA694CF6FF739A43104357
:10059000C861D4E9071001432068026822F0C00254
:1005A00011430160D4E9030101432068826848F2E5
:1005B000FF339A4311438160D4E905010843216860
:1005C000CA6822F0FF021043C86001E00EE016E0A6
:1005D0002068016841F0010101602564202084F851
:1005E0003D00256384F83E50002070BD01EB4106BC
:1005F000431EB3FBF6F35B1CB3E70120C2E701EB3C
:100600004101401EB0FBF1F0401CC0F30B00B7E706
:10061000A086010080841E0000093D0040420F00BA
:100620002DE9FF4F83B09A46DDE9119793460446C2
:10063000DDF84080FFF72AFF054694F83D002028AA
:100640007FD11923012240492046009501F0D4F8BA
:10065000002876D194F83C00012872D0012084F85B
:100660003C0020680168C90703D1016841F001011D
:1006700001602068016821F400610160212084F894
:100680003D00402084F83E0000262664C4F8248003
:10069000A4F82A90608D20852C48E062CDE9007591
:1006A00053465A462046049901F026F870B930E0C6
:1006B0002A463946204601F045F958B1206C0428F5
:1006C00004D12068016841F400710160012007B085
:1006D000BDE8F08F606A216800780861606A401C9C
:1006E0006062218D491E89B22185628D521E62850C
:1006F00022685369DB435B070BD469B10078106152
:10070000606A401C6062208D401E2085608D401E06
:100710006085208D0028CBD12A463946204601F03D
:100720003FF80028CAD154F83D0B016841F400712C
:100730000160202004F81E09E67766770020C6E7EE
:10074000FFE70220C3E70000020010000000FFFFE7
:1007500010B586B0002100910191029103910068CB
:100760000F4988421AD10F4CA06940F00800A061DF
:10077000A069694600F008000490C0200090122093
:100780000190032003900848FFF786FDE06940F4DC
:100790000010E061E06900F40010049006B010BDA4
:1007A0000054004000100240000C014002488168E3
:1007B000027811448160704718000020074810B586
:1007C000016841F010010160032000F075F800207D
:1007D00000F006F800F024F8002010BD00200240D0
:1007E00070B50D4D04464FF47A712878B1FBF0F0E6
:1007F0000A490968B1FBF0F000F0DCFA48B9102CA6
:1008000007D200222146501E00F036F800206C600E
:1008100070BD012070BD00001800002024000020E1
:100820000C4808B5816941F001018161816901F0DD
:1008300001010091C16941F08051C161C06900F0BE
:10084000805000900448416821F0E06141F000715F
:10085000416008BD0010024000000140002809DB93
:1008600000F01F02012191404009800000F1E020CA
:10087000C0F8001170470000F0B40E4B1B680C4626
:10088000C3F30223C3F10705042D00D90425191D64
:10089000072901D2002300E0DB1E012606FA05F13C
:1008A000491E214099409E40761E16403143F0BCBF
:1008B00001F0C1BC0CED00E0064900F00702086839
:1008C0004FF6FF03184040EA0220034A1043086035
:1008D000704700000CED00E00000FA052DE9F0473C
:1008E0000F46050061D0434E306800F00700B84263
:1008F00009D2306820F0070038433060306800F0DB
:100900000700B84251D128683B4C810712D54007F7
:1009100003D5606840F4E06060602878000703D584
:10092000606840F4605060606068A96820F0F00082
:10093000084360602878C00728D06868012810D074
:100940002168022810D0890700292EDA616821F079
:10095000030101436160FFF799FD804641F2883948
:100960000DE021688903EFE78901EDE7FFF78EFDD0
:10097000A0EB0801494502D90320BDE8F087606873
:10098000696800F00C00B0EB810FEFD1306800F027
:100990000700B8420BD9306820F0070038433060B8
:1009A000306800F00700B84201D00120E5E7287860
:1009B000400705D56068E96820F4E060084360609E
:1009C0002878000706D56068296920F4605040EA5D
:1009D000C100606000F038F86168084AC1F3031193
:1009E000515CC8400649086006480068FFF7F8FEF9
:1009F0000020C2E70020024000100240462D0008FF
:100A0000240000201C0000200448054900684968B3
:100A1000044AC1F30221515CC84070472400002001
:100A200000100240562D0008044805490068496836
:100A3000044AC1F3C221515CC84070472400002021
:100A400000100240562D00080E4A51680E4801F071
:100A50000C03042B11D0082B0FD10C48C1F3834396
:100A6000C903C05C0AD55168084AC1F34041921ECF
:100A7000515C054A5043B0FBF1F0704704494843CC
:100A8000704700000010024000127A00362D000866
:100A900000093D002DE9F84F040070D02078C04DCA
:100AA000C00749D06868C0F38100012807D0686892
:100AB000C0F38100022809D16868C00306D5286800
:100AC000800339D560680028E7D035E06068B0F56C
:100AD000803F0BD010B1B0F5A02F11D0286820F4C2
:100AE00080302860286820F4802002E0286840F4E4
:100AF00080302860606890B1FFF7C8FC06460AE0C5
:100B0000286840F480202860F0E700BFFFF7BEFCB3
:100B1000801B642873D828688003F7D50CE0FFF7A2
:100B2000B5FC064605E000BFFFF7B0FC801B64285B
:100B3000F0D828688003F7D420789A4E80074FF0C9
:100B400001094FF0000839D5686810F00C0F07D084
:100B50006868C0F38100022809D16868C00306D420
:100B60002868800714D52069012808D110E0206981
:100B7000B0B1C6F80090FFF789FC074605E00AE12E
:100B8000FFF784FCC01B0228C4D828688007F7D56B
:100B90002868616920F0F80040EAC10028600DE093
:100BA000C6F80080FFF772FC074604E0FFF76EFC12
:100BB000C01B022823D828688007F7D420780007B4
:100BC0002CD57948A169D9B1C0F80090FFF75EFC37
:100BD000074604E0FFF75AFCC01B02280FD8686ADA
:100BE0008007F7D571484FF4FA510068B0FBF1F077
:100BF000009000BF0098411E0091FAD20EE080E004
:100C0000C0F80080FFF742FC074604E0FFF73EFC17
:100C1000C01B022875D8686A8007F7D4207840077F
:100C200060D5E8690027C00008D4E86940F080502A
:100C3000E861E869012700F0805000905C48016895
:100C4000C90513D40168834641F480710160FFF740
:100C50001DFC824606E000BFFFF718FCA0EB0A006F
:100C600064284ED8DBF80000C005F5D5E0680128FF
:100C70000AD008B1052813D0286A20F001002862A4
:100C8000286A20F0040002E0286A40F0010028628F
:100C9000E06841F2883B98B1FFF7F8FB82460BE031
:100CA000286A40F004002862EEE700BFFFF7EEFB81
:100CB000A0EB0A0159455AD8286A8007F6D50CE0FE
:100CC000FFF7E4FB824605E0FFF7E0FBA0EB0A013B
:100CD00059454CD8286A8007F6D41FB1E86920F03E
:100CE0008050E861E06988B36968C1F38101022935
:100CF00044D00228C6F8608004D0FFF7C7FB044642
:100D000038E034E0FFF7C2FB074604E0FFF7BEFB24
:100D1000C01B02282BD828688001F7D4206AB0F5C0
:100D2000803F05D16868A16820F4003008436860FE
:100D3000D4E908010843696821F474110843686024
:100D4000C6F86090FFF7A2FB044606E025E000BF6E
:100D5000FFF79CFB001B022809D828688001F7D503
:100D60001BE000BFFFF792FB001B022802D9032003
:100D7000BDE8F88F28688001F4D40EE00128F7D090
:100D80006868226A00F48031914204D1616A00F4FB
:100D90007010884201D00120EAE70020E8E7000057
:100DA0000010024000004242800442422400002021
:100DB0000070004010B5401EB0F1807F01D30120CB
:100DC00010BD4FF0E02460610F21601701F033FA8D
:100DD0000020A06107202061002010BD70B590F8B0
:100DE0003C20012A26D0012480F83C40022280F8D1
:100DF0003D2003685A689D6822F070060A683243F5
:100E00005A600D4B02689A4208D0B2F1804F05D06B
:100E10000A4B9A4202D00A4B9A4204D1496825F003
:100E200080031943916080F83D40002180F83C1018
:100E3000084670BD022070BD002C01400004004037
:100E40000008004010B5040003D094F83D0010B134
:100E500007E0012010BD002084F83C00204600F08F
:100E60001FF8022084F83D00211D206800F0B8FF23
:100E7000012084F8460084F83E0084F83F0084F89E
:100E8000400084F8410084F8420084F8430084F86C
:100E9000440084F8450084F83D00002010BD0000A7
:100EA00008B5174A01681748914207D1816941F492
:100EB00000618161806900F4006014E0B1F1804F4D
:100EC0000AD0114A914210D1C16941F00201C161B9
:100ED000C06900F0020006E0C16941F00101C16192
:100EE000C06900F00100009008BD084A9142FBD1A2
:100EF000C16941F00401C161C06900F00400F2E77A
:100F0000002C014000100240000400400008004096
:100F100070B5044690F83C000025012817D0012642
:100F200084F83C60022084F83D002068826822F04A
:100F3000770222F47F4282600868502838D00DDCA6
:100F400020284FD005DC90B3102811D14AE00220B0
:100F500070BD302846D040280AD13BE060282FD011
:100F600070280DD0B0F5805F03D0B0F5005F12D0CF
:100F7000012584F83D60002084F83C00284670BDBF
:100F8000CB68D1E90121206800F06DFF20688168FD
:100F900041F0770109E0CB68D1E90121206800F038
:100FA00062FF2068816841F480418160E1E719E0D7
:100FB000CA684968206801F00BF85021206806E0F3
:100FC000CA684968206801F014F86021206800F0C0
:100FD00054FFCEE7CA684968206800F0F9FF402155
:100FE0002068F4E7226801461046F0E700B585B0B6
:100FF000002100910191029103910268144802219D
:10100000B2F1804F14D0134B9A420FD1826942F053
:10101000080282618069039100F0080004900802D0
:10102000CDE9000169460C48FFF736F905B000BD6F
:10103000826942F0040282618069039100F0040039
:1010400004900320CDE9000169460448ECE7000064
:101050000010024000080040000C01400008014060
:1010600070B5044690F83C0000260D4601280FD0CC
:10107000012084F83C006AB1042A1DD0082A2FD030
:101080000C2A3FD00126002084F83C00304670BD79
:10109000022070BD206800F0F9FE2068816941F0EF
:1010A000080181612068816921F004018161206863
:1010B00081692A69114311E0206800F00FFF206860
:1010C000816941F4006181612068816921F4806156
:1010D0008161206881692A6941EA02218161D2E740
:1010E000206800F027FF2068C16941F00801C16154
:1010F0002068C16921F00401C1612068C1692A69C1
:10110000114311E0206800F041FF2068C16941F4FB
:101110000061C1612068C16921F48061C1612068FA
:10112000C1692A6941EA0221C161ACE710B5040036
:1011300003D094F83D0010B107E0012010BD00205D
:1011400084F83C00204600F01EF8022084F83D00A0
:10115000211D206800F044FE012084F8460084F838
:101160003E0084F83F0084F8400084F8410084F891
:10117000420084F8430084F8440084F8450084F871
:101180003D00002010BD704710B50446022249B151
:1011900004290ED0082913D094F84100012816D054
:1011A000012010BD94F83E000128F9D184F83E20BA
:1011B0000FE094F83F000128F2D184F83F2008E0C6
:1011C00094F840000128EBD184F8402001E084F835
:1011D00041200122206800F039FE0F492068884232
:1011E00003D1426C42F4004242642068884208D035
:1011F000B0F1804F05D00949884202D008498842A1
:1012000004D1816801F00701062903D0016841F08B
:1012100001010160002010BD002C014000040040CD
:101220000008004030B504460D460068002200F07A
:101230000DFE174B41F2111120688A10984209D116
:10124000036A0B4206D1036A134203D1436C23F4B1
:10125000004343642068036A0B4206D1016A1142CD
:1012600003D1016821F00101016001203DB1042D8D
:1012700008D0082D09D084F84100002030BD84F842
:101280003E00FAE784F83F00F7E784F84000F4E70F
:10129000002C014070477047F8B5016804460868A3
:1012A000CA684B6910F00F0F4FF0000559D003F0DA
:1012B000010602F49077374365D0C10705D0D10508
:1012C00003D5616C41F001016164410705D5D9077F
:1012D00003D0616C41F002016164810705D5D90733
:1012E00003D0616C41F004016164010707D502F08D
:1012F0002001314303D0616C41F008016164616CED
:1013000000293AD0800604D5900602D5204600F088
:10131000B1FE20684069616CC0F38010090700D4F9
:1013200060B3204600F07FFE20684069400621D56A
:101330002068143050E8001F21F0400140E80012FE
:10134000002AF5D1E06BA8B16D494163E06BFEF76F
:1013500045FF002811D0E06B416B01B0BDE8F040C3
:10136000084783060FD593060DD52046BDE8F84003
:1013700000F080BE2046FFF78EFFF8BD2046FFF745
:101380008AFF6564F8BD266B2023012E7CD1C6063A
:101390007AD5D60678D508684868009048694FF035
:1013A0000206400640D5E16B086840680004000C66
:1013B000E8D0A28D8242E5D9E085886920282DD029
:1013C00020680C3050E8001F21F4807140E80012C2
:1013D000002AF5D12068143050E8001F21F00101E7
:1013E00040E80012002AF5D12068143050E8001FB0
:1013F00021F0400140E80012002AF5D184F8423083
:10140000256320680C3050E8001F21F0100140E8EF
:101410000012002AF5D1E06BFEF7BCFE6663A08DDA
:10142000E18D401A81B22AE0A08DE18D401A81B28F
:10143000E08D0028A6D00029A4D022680C3252E802
:10144000000F20F4907042E80007002FF5D12068CB
:10145000143050E8002F22F0010240E80027002F4E
:10146000F5D184F84230256320680C3050E8002F15
:1014700022F0100240E80023002BF5D166632046DD
:10148000FFF708FFF8BDFFE705062BD5150629D5A0
:1014900094F841002128F5D1A068B0F5805F01D112
:1014A0002069B0B1206A411C21622168007848603F
:1014B000E08C401E0004000CE084E3D12068C16889
:1014C00021F08001C1602068C16841F04001C16025
:1014D000D8E7206A0088C0F308004860206A801CB2
:1014E0002062E5E74006CDD55006CBD5CA68204638
:1014F00022F04002CA6084F8413000F0E3F8C1E70E
:101500001720000870B5040004D094F841000025AD
:1015100010B106E0012070BD84F84050204600F074
:1015200023F8242084F841002068C16821F4005188
:10153000C160204600F000FE2068016921F490415E
:1015400001612068416921F02A0141612068C16878
:1015500041F40051C1606564202084F8410084F8A2
:1015600042006563002070BD30B585B00024009452
:101570000194029403940068184988422CD11848B9
:10158000816941F480418161816901F48041049164
:10159000816941F0040181618069124D00F004000D
:1015A00004904FF4007000900220019003200390FB
:1015B00069462846FEF770FE2815CDE90004694605
:1015C00028460294FEF768FE002201212520FFF73D
:1015D00053F92520FFF742F905B030BD003801402E
:1015E000001002400008014090F84230202B01D04A
:1015F0000220704721B11AB10023036300F0F8BD47
:101600000120704770B500682649884248D1264CB1
:101610006088010438D42146420409784FF000055F
:1016200026D50A292FD140F4004060801FA1204810
:10163000FEF78CFD1F4E70B11FA11D48FEF786FD01
:1016400078B11EA11A48FEF781FD60B11CA11848AF
:10165000FEF77CFD48B13570C8211548FEF76BFDDB
:1016600011E0012002E0022000E003203070F3E7E7
:101670000D2911D0C0F30D020D4B401C80B29954BE
:101680006080C72800D96580BDE870400848012205
:101690000549C830FFF7A8BF40F480406080F3E7F9
:1016A00070BD000000380140020000204D300000F5
:1016B00028000020060000204D3100004D320000BF
:1016C0004D3300007047FEE701684A69D243520576
:1016D0000FD46FF480624A61002140F8301F20224D
:1016E00042738173026942F00402026101730120B6
:1016F00070470020704700002DE9F8430446006859
:101700000D46DDE9089701689846164641F4807158
:1017100001604B4600224FF001112046009700F077
:101720006BF848B120680068C00502D54FF400701E
:1017300020640320BDE8F883216805F0FE000861FD
:101740003B464A461549204600F09EF888B9206875
:101750004169806900903A464946204600F0F2F817
:1017600048B1206C042804D12068016841F400715C
:1017700001600120DEE7F5B2B8F1010F09D0216860
:10178000300A08613A464946204600F0DBF8002856
:10179000E7D1206805610020CCE7000002000100CD
:1017A00070B516460D4604461EE02046FFF78CFF36
:1017B00008B1012070BD681C16D0FEF767FE801BC3
:1017C000A84200D885B920684069C04340070BD5BE
:1017D000002044F8300F20216173A073216941F08B
:1017E000200121612073E4E720684069C04340077D
:1017F000DBD4002070BD00002DE9F0479846174665
:101800000D460446C1F30746DDF820902AE000BFEC
:10181000B8F1FF3F26D0FEF739FEA0EB09014145A4
:1018200002D8B8F1000F1DD12068012E16D08069B2
:1018300025EA00000004000C12D00020B84211D1AB
:10184000002044F8300F20216173A073216941F01A
:101850002001216120730120BDE8F0874069E7E79E
:101860000120EBE72068012E0AD0806925EA0000FC
:101870000004000C06D00020B842C9D00020EBE7DD
:101880004069F3E70120F7E72DE9F047984616464F
:101890000D4604464FF000094FF0200AC1F30747F8
:1018A00023E020684069C043400515D420680168E2
:1018B00041F40071016021686FF480604861C4F8F0
:1018C000309084F83DA084F83E90216C41F00401F2
:1018D000216484F83C9021E0701C06D0FEF7D6FD10
:1018E000A0EB0800B04203D816B1012F1FD021E0B1
:1018F0002068012F15D0806925EA00000004000C43
:1019000018D000BF44F8309F84F80DA084F80E90E2
:10191000216941F02001216184F80C900120BDE88B
:10192000F087406925EA00000004000CEAD1206835
:10193000406901E02068806925EA00000004000C8D
:10194000AFD1ECE770B516460D4604461EE02046C2
:10195000FFF7BAFE08B1012070BD681C16D0FEF773
:1019600095FD801BA84200D885B920684069C04316
:1019700000060BD5002044F8300F20216173A073BE
:10198000216941F0200121612073E4E7206840696A
:10199000C0430006DBD4002070BD00002DE9F043F9
:1019A00085B000242A48009401940294039481692C
:1019B00041F020018161816901F020010491816978
:1019C00041F004018161816901F0040104918169A0
:1019D00041F0080181618069DFF8788000F008003B
:1019E00040F207450490002229464046FEF749FD93
:1019F000DFF864904FF40067002239464846FEF74E
:101A000040FD0095022601250396CDE90154694663
:101A10004046FEF741FC43F63800CDE90004694634
:101A200040460294FEF738FC00970396CDE9015436
:101A300069464846FEF730FC4FF41040CDE90004FB
:101A4000694648460294FEF727FC05B0BDE8F083DE
:101A500000100240000C0140000801400D4810B584
:101A60000B4901600C49416000214FF480428160C4
:101A7000C0E9031241618161C1610162FEF70CFDA1
:101A8000002803D0BDE81040FEF782BB10BD000067
:101A90000054004058020020A086010010B586B016
:101AA0000024184800940194029403940494144967
:101AB000059401604721C0E901144FF6FF71C0E9A8
:101AC00003148021C0E90541FFF7BCF908B1FEF716
:101AD0005FFB4FF48050009069460A48FFF718FA00
:101AE00008B1FEF755FB049404A906480594FFF7D6
:101AF00075F9002801D0FEF74BFB06B010BD0000C1
:101B0000002C01403801002010B58EB0002407944D
:101B1000089409940A940B941C2168460C94FEF7CF
:101B20000AFB22484FF0804101604721C0E90114BF
:101B30001321C0E9031480218161FFF783F908B103
:101B4000FEF726FB4FF48050079007A91748FFF7D0
:101B5000DFF908B1FEF71CFB1448FFF7E7FA08B1FC
:101B6000FEF716FB0B940BA910480C94FFF736F9FF
:101B700008B1FEF70DFB6020CDE9000402940022BD
:101B800069460A480494FFF76BFA08B1FEF700FBB8
:101B9000042269460548FFF763FA08B1FEF7F8FA30
:101BA0000248FFF723FA0EB010BD000080010020AC
:101BB00010B586B000241648009401940294039452
:101BC000049412490594C0E900144FF6FF71C0E96E
:101BD000024104618461FFF735F908B1FEF7D8FAD4
:101BE0004FF48050009069460948FFF791F908B119
:101BF000FEF7CEFA049404A905480594FFF7EEF821
:101C0000002801D0FEF7C4FA06B010BD0004004061
:101C1000C801002010B58EB00024079408940994E0
:101C20000A940B941C2168460C94FEF784FA1F4812
:101C30001D49016041F61F41C0E90114C721C0E9F7
:101C4000031480218161FFF7FDF808B1FEF7A0FAC7
:101C50004FF48050079007A91448FFF759F908B1CD
:101C6000FEF796FA1148FFF761FA08B1FEF790FA0D
:101C70000B940BA90D480C94FFF7B0F808B1FEF7D0
:101C800087FA6020CDE9000402940C2269460748D7
:101C90000494FFF7E5F908B1FEF77AFA0348FFF775
:101CA000A5F90EB010BD0000000800401002002091
:101CB0000C4810B50A4901604FF4E1314160002140
:101CC00081600C22C160C0E904128161C161FFF72B
:101CD00019FC002803D0BDE81040FEF759BA10BD2A
:101CE00000380140F0000020FEE7FEE72DE9F04754
:101CF0000C468046AE2101EB48001746C0B200F00A
:101D000081FB04F00F00824600F07CFB102000EB0A
:101D10001410064600F076FB15483D0100EB071451
:101D2000DFF85090A5F5007505E000BF19F8050033
:101D300000F07AFB6D1CAC42F8D8AF2101EB4800F3
:101D4000C0B200F05FFB504600F05CFB304600F094
:101D500059FB07484D46083000EB071603E0285DA5
:101D600000F062FB641CA642F9D8BDE8F0870000D1
:101D700008FEFFFF4427000870477047FEF716BDB6
:101D800030B58FB028216846FEF7D5F914210AA88E
:101D9000FEF7D1F901210804CDE9001000240294D6
:101DA00002250491CDE907504FF4E01009906846F0
:101DB000FEF770FE08B172B6FEE70F20CDE90A0506
:101DC0004FF48060CDE90C4002210AA80E94FEF782
:101DD00085FD002801D072B6FEE70FB030BD704718
:101DE000F0B50268164B174C174D4FF080479842DC
:101DF00005D0B84203D0A04201D0A84203D122F0BE
:101E000070064A683243984205D0B84203D0A042D7
:101E100001D0A84203D122F44074CA6822434C691D
:101E200022F08002224302608A68C2620A688262EB
:101E3000984201D10969016301214161F0BD0000AF
:101E4000002C0140000400400008004010B501F0E3
:101E50001F030121046A99408C430462016A9A407D
:101E60001143016210BD10B5846842EA032224F4D4
:101E70007F440A432243826010BD826822F07002D0
:101E80000A4342F0070181607047000030B5036AE1
:101E9000026A22F0010202624268846924F073053A
:101EA0000C682C4323F002058B682B430A4DA84293
:101EB0000BD123F00805CB6822F440722B434D6907
:101EC00023F0040315438A692A4342608461496808
:101ED0004163036230BD0000002C014030B5026A4E
:101EE000036A23F010030362436884690D6824F4D5
:101EF000E64444EA05248D6822F0200242EA0512F5
:101F00000B4DA8420ED1CD6822F0800242EA0512A4
:101F10004D6923F4406343EA85038D6922F0400252
:101F200043EA85034360846149688163026230BD8E
:101F3000002C014030B5036A026A22F4807202620A
:101F40004268C46923F4007324F073050C682C43C1
:101F50008D6843EA05230C4DA8420ED1CD6823F4C9
:101F6000006343EA05234D6922F4405242EA051218
:101F70008D6923F4806342EA05124260C4614968B6
:101F8000C163036230BD0000002C014030B5046A1B
:101F9000026A22F4805202624268C3690D6823F427
:101FA000E64343EA05238D6824F4005444EA0534EB
:101FB000064DA84204D14D6922F4804242EA8512BE
:101FC0004260C36149680164046230BD002C014075
:101FD00010B5036A046A24F001040462846924F0E1
:101FE000F00444EA021423F00A020A438461026204
:101FF00010BD10B5036A046A24F0100404628469F9
:1020000023F0A00324F4704444EA023243EA0111AD
:102010008261016210BD10B5406A0021C185C18492
:10202000FFF739F910BD01680C3151E8002F22F497
:10203000907241E80023002BF5D10168143151E87A
:10204000002F22F0010241E80023002BF5D1016BA3
:10205000012909D101680C3151E8002F22F010024A
:1020600041E80023002BF5D1202180F84210002107
:102070000163704708B590F84210222901D0022070
:1020800008BD82684FF480539A4201D1016921B1A1
:10209000816A9A421BD04AB10AE00268816A52689A
:1020A000C2F308020A80816A891C08E0026972B1E1
:1020B0000268526802F07F020A70816A491C8162DC
:1020C000C18D491E0904090CC18503D01BE00268BB
:1020D0005268F1E70168CA6822F02002CA6001680C
:1020E000CA6822F48072CA6001684A6922F001025B
:1020F0004A61202180F8421000214163026B012ACD
:1021000003D0FFF77FFA002008BD016301680C319E
:1021100051E8002F22F0100241E80023002BF5D1F6
:1021200001680A68D20602D50A6849680091818D63
:10213000FFF7B0F8E7E7000070B5044600680169F2
:10214000E26821F44051114301612169A06808430C
:10215000616908432168CA6841F20C639A430243EB
:10216000CA6020684169A26921F44071114341614C
:102170001E492068884202D1FEF756FC01E0FEF7B6
:1021800043FC00EBC00101EB001260686421800099
:10219000B2FBF0F3B3FBF1F36FF018067343B2FB3D
:1021A000F0F5B2FBF0F605EB8305322303EB0515E2
:1021B000B5FBF1F5B6FBF1F605F0F00505EB0615FC
:1021C000B2FBF0F6B2FBF0F0B0FBF1F06FF01802EA
:1021D000504306EB800003EB0010B0FBF1F02168E8
:1021E00000F00F002844886070BD000000380140F6
:1021F00081628285C28500214164222180F84210DB
:10220000016921B10168CA6842F48072CA6001683C
:102210004A6942F001024A610068C16841F0200148
:10222000C1600020704700000148FFF735B800008A
:10223000F0000020FEE70907090E002804DB00F18A
:10224000E02080F80014704700F00F0000F1E0205B
:1022500080F8141D704702E008C8121F08C1002A48
:10226000FAD170477047002001E001C1121F002A17
:10227000FBD170470C4810B501780C4802789142A8
:1022800010D00170002000F01BF84FF4FA70FDF739
:10229000F1FF00F04FF90221BDE8104004A208460A
:1022A00000F0BAB910BD00000600002008000020B0
:1022B0002D2D2D2D2D41766F69642D2D2D2D000096
:1022C0000F4910B5087078B1FFF71EFC00210D48CA
:1022D000FEF75AFF04210B48FEF756FFBDE81040F9
:1022E0004FF4FA70FDF7C6BF00210648FEF79AFFCB
:1022F00004210448FEF796FFBDE8104000F0A6B8A0
:1023000000000020800100200B4810B501780B4828
:10231000027891420FD001700020FFF7D1FF6420B6
:10232000FDF7A8FF00F006F90221BDE8104004A265
:10233000084600F071B910BD06000020080000201A
:102340002D2D2D2D2D466F6C6C6F772D2D2D2D0085
:102350002DE9F041294C4FF4006631462046FEF746
:102360008BF8274DA7144FF4005860B93946204622
:10237000FEF782F8012806D141462046FEF77CF898
:10238000012800D1287031462046FEF775F8012853
:102390000CD139462046FEF76FF838B94146204641
:1023A000FEF76AF8012801D1032028703146204643
:1023B000FEF762F801280CD139462046FEF75CF89A
:1023C000012806D141462046FEF756F808B90220FA
:1023D000287031462046FEF74FF858B93946204656
:1023E000FEF74AF830B941462046FEF745F808B9ED
:1023F000002028702878BDE8F0810000000C014022
:102400000600002001B584B00121FF2204A88DE858
:1024100007000B46002278210248FEF701F905B0BB
:1024200000BD00005802002001B584B00121FF2248
:1024300004A88DE807000B46402278210248FEF7E9
:10244000EFF805B000BD00005802002030B585B09F
:10245000002410480094019402940394816941F08F
:102460000401816180690C4D00F004000490224653
:1024700003212846FEF705F8032000900120CDE94E
:1024800001040220039069462846FDF705FF05B0C8
:1024900030BD00000010024000080140FEF78EF938
:1024A000FFF76EFCFFF77AFAFFF702FCFFF72CFB51
:1024B000FFF7B0FBFFF7F2FAFFF77AFBFFF7CEFA70
:1024C000012216491648FFF78FF800F0B5F8C8202A
:1024D000FDF7D0FE00F02EF900F0BAF800F048F851
:1024E00000F028F802210FA2084600F095F800BF7E
:1024F000FFF72EFF70B1012806D0022807D003286D
:10250000F6D1FFF701FFF3E700F0ECF8F0E7FFF793
:10251000B1FEEDE700F0C8F8EAE700000200002095
:10252000F00000202D2D2D2D2D52656164792D2D6B
:102530002D2D000070B52020FFF764FF0220FFF76B
:1025400061FF002404F1B000C0B2FFF75BFF002080
:10255000FFF758FF1020FFF755FF00250020FFF779
:1025600063FF6D1C802DF9DB641C082CEADB70BD59
:1025700010B5AE20FFF746FF0020FFF743FF102005
:10258000FFF740FF4020FFF73DFFB020FFF73AFF85
:102590008120FFF737FFFF20FFF734FFA120FFF76F
:1025A00031FFA620FFF72EFFA820FFF72BFF3F20CB
:1025B000FFF728FFC820FFF725FFD320FFF722FFF2
:1025C0000020FFF71FFFD520FFF71CFF8020FFF73B
:1025D00019FFD820FFF716FF0520FFF713FFD920BA
:1025E000FFF710FFF120FFF70DFFDA20FFF70AFFDA
:1025F0001220FFF707FFDB20FFF704FF3020FFF773
:1026000001FF8D20FFF7FEFE1420FFF7FBFEBDE863
:102610001040AF20FFF7F6BE70B514460D460646D3
:1026200006E029463046FFF761FB0835EDB2641C31
:102630002278002AF5D170BD10B50C210348FEF7B1
:10264000A3FD024911200968086410BD1002002092
:1026500070B51148007830B1104900200A68506305
:102660000968886370BD0E4C002204212046FDF7E6
:1026700008FF0C4D002201212846FDF702FF002231
:1026800001212046FDF7FDFE2846BDE870400022EE
:102690000221FDF7F6BE00000000002080010020AE
:1026A000000C014000080140084810B501780848B6
:1026B0000278914209D00170FFF73CFF0221BDE88A
:1026C000104004A20846FFF7A7BF10BD0600002077
:1026D000080000202D2D2D2D2D53746F702D2D2DC4
:1026E0002D0000000C4810B501780C48027891428A
:1026F00010D001700120FFF7E3FD4FF4FA70FDF7F1
:10270000B9FDFFF717FF0221BDE8104004A20846FB
:10271000FFF782BF10BD0000060000200800002067
:102720002D2D2D2D2D54726163696E672D2D2D2D4C
:102730000000000002491120096808647047000089
:102740001002002000000000000000000000000057
:1027500000000000000000F800000000000000334E
:102760003000000000100C06100C060000000000F5
:102770000000000040C07840C0784000043F0404DE
:102780003F040400007088FC08300000001820FF9F
:10279000211E0000F008F000E018000000211C03DA
:1027A0001E211E0000F00888700000001E21232456
:1027B0001927211010160E00000000000000000074
:1027C00000000000000000E0180402000000000704
:1027D0001820400000020418E0000000004020180B
:1027E00007000000404080F0804040000202010FDE
:1027F00001020200000000F0000000000101011FC2
:1028000001010100000000000000000080B0700025
:1028100000000000000000000000000000010101B5
:102820000101010100000000000000000030300044
:10283000000000000000000080601804006018061E
:102840000100000000E010080810E000000F102058
:1028500020100F00001010F8000000000020203FA2
:10286000202000000070080808887000003028242C
:1028700022213000003008888848300000182020CD
:1028800020110E000000C02010F8000000070424F2
:10289000243F240000F80888880808000019212037
:1028A00020110E0000E0108888180000000F112091
:1028B00020110E0000380808C83808000000003F4A
:1028C000000000000070880808887000001C2221A9
:1028D00021221C0000E010080810E0000000312256
:1028E00022110F00000000C0C000000000000030F6
:1028F0003000000000000080000000000000806048
:1029000000000000000080402010080000010204C8
:1029100008102000404040404040400004040404AF
:10292000040404000008102040800000002010086B
:1029300004020100007048080808F00000000030A0
:1029400036010000C030C828E810E000071827242E
:1029500023140B000000C038E0000000203C2302DC
:102960000227382008F8888888700000203F20203F
:1029700020110E00C0300808080838000718202071
:102980002010080008F808080810E000203F202068
:1029900020100F0008F88888E8081000203F202049
:1029A0002320180008F88888E8081000203F20003D
:1029B00003000000C0300808083800000718202075
:1029C000221E020008F808000008F808203F210134
:1029D00001213F20000808F8080800000020203FDF
:1029E0002020000000000808F8080800C08080804F
:1029F0007F00000008F888C028180800203F200148
:102A00002638200008F8080000000000203F2020A1
:102A10002020300008F8F800F8F80800203F003FB8
:102A2000003F200008F830C00008F808203F2000D0
:102A300007183F00E01008080810E0000F102020E1
:102A400020100F0008F808080808F000203F2101B6
:102A500001010000E01008080810E0000F1824240D
:102A600038504F0008F8888888887000203F200080
:102A7000030C302000708808080838000038202136
:102A800021221C00180808F8080818000000203F40
:102A90002000000008F808000008F808001F2020A7
:102AA00020201F000878880000C838080000073878
:102AB0000E010000F80800F80008F800033C0700C9
:102AC000073C0300081868808068180820302C0331
:102AD000032C30200838C800C83808000000203F08
:102AE0002000000010080808C838080020382621F7
:102AF00020201800000000FE020202000000007FFB
:102B000040404000000C30C0000000000000000108
:102B10000638C00000020202FE00000000404040F3
:102B20007F00000000000402020204000000000018
:102B30000000000000000000000000008080808095
:102B4000808080800002020400000000000000007D
:102B50000000000000008080808000000019242216
:102B600022223F2008F8008080000000003F112052
:102B700020110E000000008080800000000E112057
:102B800020201100000000808088F800000E112035
:102B900020103F200000808080800000001F222243
:102BA00022221300008080F0888888180020203FAF
:102BB000202000000000808080808000006B9494C2
:102BC0009493600008F8008080800000203F21007E
:102BD00000203F2000809898000000000020203F47
:102BE00020200000000000809898000000C0808035
:102BF000807F000008F8000080808000203F2402D1
:102C00002D302000000808F8000000000020203FC0
:102C1000202000008080808080808000203F200075
:102C20003F20003F8080008080800000203F210006
:102C300000203F200000808080800000001F2020B6
:102C400020201F00808000808000000080FFA120E5
:102C500020110E000000008080808000000E1120F6
:102C600020A0FF80808080008080800020203F2185
:102C70002000010000008080808080000033242438
:102C800024241900008080E0808000000000001FE4
:102C9000202000008080000000808000001F202095
:102CA00020103F20808080000080808000010E3056
:102CB0000806010080800080008080800F300C03B7
:102CC0000C300F0000808000808080000020312EBA
:102CD0000E312000808080000080808080818E7096
:102CE0001806010000808080808080000021302C48
:102CF0002221300000000000807C02020000000061
:102D0000003F404000000000FF0000000000000005
:102D1000FF0000000002027C800000000040403FF5
:102D2000000000000006010102020404000000008F
:102D300000000000010202030405060708090A0B4F
:102D40000C0D0E0F1010000000000000000001022A
:102D50000304060708090000000001020304000044
:102D6000802D0008000000202800000056220008E6
:102D7000A82D000828000020880600006622000810
:102D80000000000000000000000000000000000043
:102D90000000000000000000010000001000000022
:082DA000000000000024F40013
:04000005080000ED02
:00000001FF
