:020000040800F2
:10000000581400209D010008C30F0008930E00083B
:10001000C10F00082D0200080D12000800000000AA
:1000200000000000000000000000000005010008C2
:100030002F0200080000000049010008E50F000839
:10004000B7010008B7010008B7010008B7010008B0
:10005000B7010008B7010008B7010008B7010008A0
:10006000B7010008B7010008B7010008B701000890
:10007000B7010008B7010008B7010008B701000880
:10008000B7010008B7010008B7010008B701000870
:10009000B7010008B7010008B7010008B701000860
:1000A000B7010008B7010008B7010008B701000850
:1000B00065100008B7010008B7010008B701000883
:1000C000B7010008B7010008B7010008B701000830
:1000D000B7010008B7010008B7010008B701000820
:1000E000B7010008B7010008B7010008DFF810D019
:1000F00000F08AF800480047A1120008AFF3008022
:1001000058140020224B19680868B0E8F00F80F3FB
:100110000988BFF36F8F4FF0000080F311884EF015
:100120000D0E70470000000006480068006880F36C
:10013000088862B661B6BFF34F8FBFF36F8F00DFE1
:1001400000BF00BF08ED00E0EFF30980BFF36F8F41
:100150000F4B1A6820E9F00F106008B54FF05000FF
:1001600080F31188BFF34F8FBFF36F8F01F07EFDD7
:100170004FF0000080F31188BDE808401968086856
:10018000B0E8F00F80F30988BFF36F8F704700BFAE
:1001900020000020EFF305807047000006488047EC
:1001A00006480047FEE7FEE7FEE7FEE7FEE7FEE75C
:1001B000FEE7FEE7FEE7FEE761100008ED0000083D
:1001C00040EA01039B0703D009E008C9121F08C0D9
:1001D000042AFAD203E011F8013B00F8013B521E59
:1001E000F9D27047D2B201E000F8012B491EFBD2D0
:1001F00070470022F6E710B513460A460446194632
:10020000FFF7F0FF204610BD064C074D06E0E06802
:1002100040F0010394E8070098471034AC42F6D34D
:10022000FFF768FFCC250008EC250008FEE77047C3
:1002300072B6FEE72DE9F84FDFF8B8910024A9F176
:10024000040B23460F2709F1040AABF1040EC9E0A1
:100250000125A5402A40AA427DD1674ED1F804C0AD
:10026000ACEB0608B44532D014DCBCF1030F3AD035
:1002700009DCBCF1000F2AD0BCF1010F1CD0BCF18D
:10028000020F31D11DE0BCF1110F17D0BCF1120FDC
:100290002AD119E0B8F5881F19D006DCB8F5803FDF
:1002A00015D0B8F5801F1FD111E0B8F5001F0ED092
:1002B000B8F5041F18D10AE0CB6815E0CB681B1D08
:1002C00012E0CB6808330FE0CB680C330CE08B688E
:1002D0002BB1012B4FF0080303D0456104E0042348
:1002E00002E0056100E00023FF2A01D8064601E094
:1002F00000F104064FEA840501D9A5F12005D6F8DE
:10030000008007FA05FC28EA0C0803FA05F548EA1C
:100310000508C6F800804D68ED0062D5374DAE691E
:1003200046F00106AE61AD6924F0030605F0010553
:100330000095334D06EB050CDCF80850A607360F88
:1003400007FA06F825EA0805DFF8B880404503D12A
:100350004FF0000817E044E0DFF8AC80404502D1E0
:100360004FF001080FE0DFF8A480404502D14FF0C4
:10037000020808E0DFF89880404502D14FF00308FA
:1003800001E04FF0040808FA06F848EA0508CCF83E
:1003900008804D68D9F80060ED024D4601D516433E
:1003A00000E096432E604D68DAF80060AD025546D5
:1003B00001D5164300E096432E604D68DBF80060DF
:1003C000AD035D4601D5164300E096432E604D68AF
:1003D000DEF80060ED03754601D5164300E0964354
:1003E0002E60641C0D682A46E5407FF431AFBDE8FD
:1003F000F88F0000080401400000111000100240B6
:100400000000014000080140000C014000100140C4
:10041000001401408068084000D001207047C26885
:1004200021EA02030A4043EA0241016170470AB12E
:10043000016170470904FBE70148806870470000CC
:1004400010000020024881680278114481607047E2
:1004500010000020074810B5016841F0100101604C
:10046000032000F0A7F80F2000F006F800F050F885
:10047000002010BD0020024030B50546204887B05E
:10048000C16941F00101C161C06906A900F0010024
:10049000009001A800F036F90498B8B100F052F9C4
:1004A000400018494FF08042B0FBF1F11648491E58
:1004B0000260416040F2E7320021C0E9032181601F
:1004C000816100F017FB040003D015E000F03AF959
:1004D000E7E70D4800F03CFB04000DD11C2000F0C4
:1004E0003BF8102D07D2002229461C2000F042F8CC
:1004F0000648056000E0012407B0204630BD00003A
:100500000010024040420F00200300201400002091
:100510000F4808B5816941F001018161816901F0ED
:1005200001010091C16941F08051C161C06900229F
:1005300000F0805000900F21901E00F01BF805483D
:10054000416821F0E06141F00071416008BD0000A8
:100550000010024000000140002809DB00F01F02EB
:10056000012191404009800000F1E020C0F8001115
:1005700070470000F0B40E4B1B680C46C3F3022317
:10058000C3F10705042D00D90425191D072901D23F
:10059000002300E0DB1E012606FA05F1491E21407A
:1005A00099409E40761E16403143F0BC00F038BEA4
:1005B0000CED00E0064900F0070208684FF6FF0363
:1005C000184040EA0220034A1043086070470000C8
:1005D0000CED00E00000FA052DE9F0470F4605009C
:1005E00061D0434E306800F00700B84209D230684D
:1005F00020F0070038433060306800F00700B84250
:1006000051D128683B4C810712D5400703D560685B
:1006100040F4E06060602878000703D5606840F42B
:10062000605060606068A96820F0F0000843606076
:100630002878C00728D06868012810D021680228CF
:1006400010D0890700292EDA616821F003010143E7
:100650006160FFF7F1FE804641F288390DE02168C4
:100660008903EFE78901EDE7FFF7E6FEA0EB08015C
:10067000494502D90320BDE8F0876068696800F049
:100680000C00B0EB810FEFD1306800F00700B842EA
:100690000BD9306820F0070038433060306800F034
:1006A0000700B84201D00120E5E72878400705D5CA
:1006B0006068E96820F4E06008436060287800071B
:1006C00006D56068296920F4605040EAC100606086
:1006D00000F058F86168084AC1F30311515CC84042
:1006E0000649086006480068FFF7C6FE0020C2E71A
:1006F00000200240001002408E2500081C0000204F
:10070000140000200F2202600C4A536803F0030318
:100710004360536803F0F0038360536803F4E063BD
:10072000C36052684FF4E06303EAD20202610448F6
:10073000006800F0070008607047000000100240E9
:10074000002002400448054900684968044AC1F392
:100750000221515CC84070471C000020001002407C
:100760009E2500080448054900684968044AC1F309
:10077000C221515CC84070471C000020001002409C
:100780009E2500080E4A51680E4801F00C03042B08
:1007900011D0082B0FD10C48C1F38343C903C05CAF
:1007A0000AD55168084AC1F34041921E515C054A7E
:1007B0005043B0FBF1F070470449484370470000D4
:1007C0000010024000127A007E25000800093D005A
:1007D0002DE9F84F040070D02078C04DC00749D0F3
:1007E0006868C0F38100012807D06868C0F3810001
:1007F000022809D16868C00306D52868800339D566
:1008000060680028E7D035E06068B0F5803F0BD025
:1008100010B1B0F5A02F11D0286820F480302860E6
:10082000286820F4802002E0286840F480302860A6
:10083000606890B1FFF700FE06460AE0286840F4C1
:1008400080202860F0E700BFFFF7F6FD801B6428DA
:1008500073D828688003F7D50CE0FFF7EDFD064656
:1008600005E000BFFFF7E8FD801B6428F0D828688A
:100870008003F7D420789A4E80074FF001094FF09B
:10088000000839D5686810F00C0F07D06868C0F30D
:100890008100022809D16868C00306D4286880074F
:1008A00014D52069012808D110E02069B0B1C6F83C
:1008B0000090FFF7C1FD074605E00AE1FFF7BCFD28
:1008C000C01B0228C4D828688007F7D5286861694A
:1008D00020F0F80040EAC10028600DE0C6F8008072
:1008E000FFF7AAFD074604E0FFF7A6FDC01B02289C
:1008F00023D828688007F7D4207800072CD57948BA
:10090000A169D9B1C0F80090FFF796FD074604E051
:10091000FFF792FDC01B02280FD8686A8007F7D541
:1009200071484FF4FA510068B0FBF1F0009000BF3D
:100930000098411E0091FAD20EE080E0C0F80080DD
:10094000FFF77AFD074604E0FFF776FDC01B02289B
:1009500075D8686A8007F7D42078400760D5E869C1
:100960000027C00008D4E86940F08050E861E869D9
:10097000012700F0805000905C480168C90513D43D
:100980000168834641F480710160FFF755FD82469E
:1009900006E000BFFFF750FDA0EB0A0064284ED828
:1009A000DBF80000C005F5D5E06801280AD008B1E1
:1009B000052813D0286A20F001002862286A20F058
:1009C000040002E0286A40F001002862E06841F279
:1009D000883B98B1FFF730FD82460BE0286A40F073
:1009E00004002862EEE700BFFFF726FDA0EB0A0136
:1009F00059455AD8286A8007F6D50CE0FFF71CFD48
:100A0000824605E0FFF718FDA0EB0A0159454CD8D6
:100A1000286A8007F6D41FB1E86920F08050E861A9
:100A2000E06988B36968C1F38101022944D00228D2
:100A3000C6F8608004D0FFF7FFFC044638E034E0DD
:100A4000FFF7FAFC074604E0FFF7F6FCC01B02289C
:100A50002BD828688001F7D4206AB0F5803F05D1F3
:100A60006868A16820F4003008436860D4E9080190
:100A70000843696821F4741108436860C6F86090FF
:100A8000FFF7DAFC044606E025E000BFFFF7D4FCE0
:100A9000001B022809D828688001F7D51BE000BF99
:100AA000FFF7CAFC001B022802D90320BDE8F88F1B
:100AB00028688001F4D40EE00128F7D06868226A23
:100AC00000F48031914204D1616A00F470108842D0
:100AD00001D00120EAE70020E8E700000010024012
:100AE00000004242800442421C000020007000408E
:100AF0007047704710B5040003D094F83D0010B162
:100B000007E0012010BD002084F83C00204600F0E2
:100B10001EF8022084F83D00211D206800F0A8FA8C
:100B2000012084F8460084F83E0084F83F0084F8F1
:100B3000400084F8410084F8420084F8430084F8BF
:100B4000440084F8450084F83D00002010BD704743
:100B500090F83D10012901D001207047022180F852
:100B60003D100168CA6842F00102CA6000680B4982
:100B7000884208D0B0F1804F05D00949884202D0A0
:100B80000849884204D1816801F00701062903D091
:100B9000016841F00101016000207047002C014014
:100BA0000004004000080040704770B5044600682B
:100BB00001694FF00005C943890715D4C168C943CD
:100BC000890711D4E91E016101202077206880691E
:100BD0008007204602D0FFF7E7FF04E000F098F816
:100BE000204600F096F8257720680169C943490737
:100BF00017D4C168C943490713D46FF004010161D8
:100C0000022020772068806910F4407F204602D0BF
:100C1000FFF7CAFF04E000F07BF8204600F079F807
:100C2000257720680169C943090716D4C168C943FB
:100C3000090712D46FF008010161042020772068B1
:100C4000C0698007204602D0FFF7AEFF04E000F045
:100C50005FF8204600F05DF8257720680169C943F8
:100C6000C90617D4C168C943C90613D46FF010016F
:100C70000161082020772068C06910F4407F204679
:100C800002D0FFF791FF04E000F042F8204600F0A8
:100C900040F8257720680169C943C90708D1C168B0
:100CA000C943C90704D1891E0161204600F032F80A
:100CB00020680169C943090609D4C168C943090606
:100CC00005D46FF0800101612046FFF711FF206815
:100CD0000169C943490609D4C168C943490605D415
:100CE0006FF040010161204600F01BF820680169A7
:100CF000C94389060BD4C168C943890607D46FF07C
:100D0000200101612046BDE87040FFF7F2BE70BDD2
:100D1000704770470068B0F1804F01D1FFF792BB78
:100D20007047704770B5040004D094F84100002566
:100D300010B106E0012070BD84F84050204600F05C
:100D400023F8242084F841002068C16821F4005170
:100D5000C160204600F0C2F92068016921F4904189
:100D600001612068416921F02A0141612068C16860
:100D700041F40051C1606564202084F8410084F88A
:100D800042006563002070BD30B585B0002400943A
:100D900001940294039400681449884224D11448B1
:100DA000816941F480418161816901F4804104914C
:100DB000816941F00401816180690E4D00F00400F9
:100DC00004904FF4007000900220019003200390E3
:100DD00069462846FFF72EFA2815CDE90004694632
:100DE00028460294FFF726FA05B030BD00380140CE
:100DF00000100240000801402DE9F843044690F835
:100E000041001F4616460D46202802D00220BDE8AC
:100E1000F8837DB176B100206064212084F8410020
:100E2000FFF70AFBA6848046E684A068B0F5805FE1
:100E300002D003E00120EAE7206910B12E46002528
:100E40000EE000260CE08021204600F0A3F9A0B9B6
:100E5000AEB116F8010B21684860E08C401EE084BA
:100E6000E08C43464FF0000200970028EBD14FF092
:100E70004001204600F08EF930B10320C7E735F875
:100E8000020BC0F30800E6E7202084F841000020B0
:100E9000BDE7FEE710B5174B9AB015AC0FCB84E851
:100EA0000F00002115A800F021FA134C11491C2253
:100EB000E06010316846FFF783F90021684600F0D2
:100EC00028FA0C4920601C222C3107A8FFF778F97A
:100ED000002107A800F01DFA064960601C22483175
:100EE0000EA8FFF76DF900210EA800F012FAA0601D
:100EF0001AB010BD18250008000000202DE9F043AD
:100F000085B000241D4800940194029403948169E3
:100F100041F004018161816901F00401049181695A
:100F200041F0080181618069DFF8548000F0080019
:100F30000490012203214046FFF779FADFF844903C
:100F40004FF44077012239464846FFF770FA0320F4
:100F500001250226CDE90005CDE902466946404655
:100F6000FFF768F900970396CDE9015469464846B2
:100F7000FFF760F905B0BDE8F08300000010024003
:100F800000080140000C01400C4810B50A490160FE
:100F90004FF4E1314160002181600C22C160C0E961
:100FA00004128161C161FFF7BDFE002803D0BDE8D6
:100FB0001040FFF73DB910BD00380140D8020020B5
:100FC000FEE7FEE7064D4FF400744FF47A762146B3
:100FD0002846FFF724FA304600F07CF9F7E70000D6
:100FE000000C014010B5502080F31188BFF34F8FE3
:100FF000BFF36F8F01F044F918B104494FF08050EE
:101000000860002080F3118810BD000004ED00E0AE
:1010100010B590B028216846FFF7EBF814210AA814
:10102000FFF7E7F802200090012004901020002430
:10103000059007946846FFF7CBFB08B172B6FEE750
:101040000F20CDE90A040C940D9400210AA80E94F7
:10105000FFF7C2FA002801D072B6FEE710B010BD4B
:10106000704700000148FFF7A0BD000020030020EA
:10107000F0B50268164B174C174D4FF08047984259
:1010800005D0B84203D0A04201D0A84203D122F03B
:1010900070064A683243984205D0B84203D0A04255
:1010A00001D0A84203D122F44074CA6822434C699B
:1010B00022F08002224302608A68C2620A68826269
:1010C000984201D10969016301214161F0BD00002D
:1010D000002C0140000400400008004070B50446A8
:1010E00000680169E26821F44051114301612169FE
:1010F000A0680843616908432168CA6841F20C632B
:101100009A430243CA6020684169A26921F4407190
:10111000114341611E492068884202D1FFF722FB3A
:1011200001E0FFF70FFB00EBC00101EB001260686C
:1011300064218000B2FBF0F3B3FBF1F36FF018060B
:101140007343B2FBF0F5B2FBF0F605EB83053223F7
:1011500003EB0515B5FBF1F5B6FBF1F605F0F0056F
:1011600005EB0615B2FBF0F6B2FBF0F0B0FBF1F0C8
:101170006FF01802504306EB800003EB0010B0FB49
:10118000F1F0216800F00F002844886070BD000075
:10119000003801402DE9F041984617460E460446B6
:1011A000069D27E0681C25D02DB1FFF745F9A0EB7F
:1011B0000800A8421ED920680C3050E8001F21F416
:1011C000D07140E80012002AF5D12068143050E8B0
:1011D000001F21F0010140E80012002AF5D1202073
:1011E00084F8410084F84200002084F84000032085
:1011F000BDE8F0812068006836EA000004D00020D5
:10120000B842CFD00020F3E70120F9E7FEE7000065
:10121000014A024900F023B8811200088000002032
:101220000907090E002804DB00F1E02080F8001413
:10123000704700F00F0000F1E02080F8141D7047A7
:1012400002E008C8121F08C1002AFAD1704770478F
:10125000002001E001C1121F002AFBD170472DE9D7
:10126000F04116460F460446002503E03946B047D4
:10127000641C6D1C20780028F8D12846BDE8F08158
:1012800038B504468DF8000040F6FF730122694628
:101290000248FFF7B1FD204638BD0000D80200200B
:1012A000FFF7D8F8FFF7B4FEFFF728FEFFF76CFE54
:1012B00003A0FFF7ADFFFFF7EDFD00F012F8FEE72A
:1012C000746573740D0A000001460020842900D063
:1012D000C81C704710B500B9012000F03DFC00208B
:1012E00010BD10B500F084FC002010BD38B5D0E969
:1012F000011204683AB1C3682BB100200090204667
:1013000000F05AFD38BD2046BDE83840002200F00C
:101310002FBD7FB50D4604464169B0F9080081B183
:10132000A16971B1FFF7D0FFD4E905128DE807007C
:10133000D4E900102B46226900F069FF039004B045
:1013400070BDFFF7C1FF03A9CDE90001208A2B463C
:1013500082B2D4E9001000F02DFF012801D0002056
:10136000EDE70398EBE700002DE9F041184C0F463C
:10137000054666692068001D00F02AFB38B9206820
:1013800090F82C1001208840A1698143A161681C5C
:1013900007D137B12168BDE8F0410E48091D00F0C2
:1013A0005BBB20683544B5424560216805D2A06822
:1013B000BDE8F041091D00F037BB6068091D00F071
:1013C00033FB206B854200D22563BDE8F08100002D
:1013D00020000020440400202DE9F041054600F0E3
:1013E00047FB2E4C2069401C206120682C4F10B117
:1013F000E06940B32DE025602069012829D100264D
:1014000006EB860007EB800000F000FB761C072E41
:10141000F6D323488C3000F0F9FA2148A03000F0D0
:10142000F5FA1F48B43000F0F1FA1D48C83000F05A
:10143000EDFA1B48DC3000F0E9FA19488C306060A6
:101440001430A06005E02068E96AC06A884200D8CC
:101450002560E06A401CE062E96A0120A2698840D8
:101460001043A06101EB810007EB8000291D00F013
:10147000F3FA00F01DFBE06900280CD02068E96A4F
:10148000C06A884207D207494FF080500860BFF316
:101490004F8FBFF36F8FBDE8F08100002000002068
:1014A0006803002004ED00E030B4026C0B46002A13
:1014B0000BD0C1681144C1604468A14201D30168E6
:1014C000C16030BC1846FEF77BBE30BC70472DE9CA
:1014D000F041856B174604460026026C82B1C7B105
:1014E000E068FEF76DFEE168206C091AE160226891
:1014F000914202D26168081AE060022F16D017E00C
:101500002068A8B9606800F01FFF064600206060F0
:101510000EE0A068FEF754FE216CA0680844A060AD
:101520006168884204D32068A06001E005B16D1EA7
:101530006D1CA5633046BDE8F08110B5044690F8F7
:10154000510058B101280CD002280FD0502080F350
:101550001188BFF34F8FBFF36F8FFEE7206B00F052
:10156000BBFA2046BDE8104000F0B6BA10BD00003E
:1015700010484FF44061420706D0C01D0D4920F0CD
:101580000700411AC1F540610B4A00230144C2E93A
:1015900000030839103A21F0070111604B600B601D
:1015A0000B1AC0E9001393604FF000405360D06005
:1015B00070470000580400206C000020144E154CA9
:1015C000A6F1C8074FF08058DFF84C9012E000BF3A
:1015D00000F04EFAF068C568281D00F0F9F920699E
:1015E000401E2061E068401EE06000F061FA28467D
:1015F000FFF7A3FFE0680028EAD138680128F9D98D
:10160000C9F80080BFF34F8FBFF36F8FF2E7000080
:10161000300400202000002004ED00E00346009884
:1016200029B10260C0E90F31012100F0F9BB00606F
:10163000F8E72DE9F0479A46DDE9098481466FF025
:101640000303206B03EB82021044089D20F0070681
:10165000700707D0502080F31188BFF34F8FBFF37E
:101660006F8FFEE723180A5C83F834200A5C12B1FE
:10167000401C1028F6D3002784F84370072D00D3B0
:101680000625E562C4E91157201D00F0CAF904F1EE
:10169000180000F0C6F92461C5F107006462A0617A
:1016A000E76484F8507052464946304600F002F92B
:1016B0002060B8F1000F01D0C8F80040BDE8F08705
:1016C00030B5114900E011460A688242FBD34B68ED
:1016D0005C18844203D14068184448600846436857
:1016E0001C18944209D1084C103C2468A24209D02D
:1016F00052681A4442600A6812680260814200D04F
:10170000086030BD0460F9E76C00002010B50446A5
:1017100000F0AEF9A06B28B15FF0000400F0C8F94A
:10172000204610BD0124F9E706484168096829B13F
:101730004168C968C9684968016370474FF0FF3163
:10174000FAE700002000002008484068401C4FF0E5
:10175000500080F3118804D0BFF34F8FBFF36F8F19
:10176000FEE7BFF34F8FBFF36F8FFEE774000020DB
:101770002DE9F041044600F07BF994F9455004F15D
:10178000240609E0606A48B1304600F029FE08B13D
:1017900000F010FA6D1E6DB2002DF3DC4FF0FF3635
:1017A00084F8456000F084F900F062F994F944503F
:1017B00004F1100709E0206948B1384600F010FE36
:1017C00008B100F0F7F96D1E6DB2002DF3DC84F85E
:1017D0004460BDE8F04100F06BB900002DE9F04134
:1017E0000546002700F03AFA314E306808B9FFF795
:1017F000BFFEF06805424BD1C5B3083568070ED06F
:1018000005F00700C0F108000544680707D0502024
:1018100080F31188BFF34F8FBFF36F8FFEE72DB3B7
:101820007068854234D82248103001460C6801E0C7
:1018300020460C466168A94202D221680029F7D1EE
:1018400031688C4224D007682168016060680837DD
:10185000411B10290FD96019420708D0502080F38E
:101860001188BFF34F8FBFF36F8FFEE710E0416029
:101870006560FFF725FF61687068401A7060B268A4
:10188000904200D2B060F06801430020C4E900013A
:1018900000F0E0FD780707D0502080F31188BFF3F7
:1018A0004F8FBFF36F8FFEE73846BDE8F081000031
:1018B0005C00002010B5031F4FF080741C601B1FDC
:1018C00021F001011960191F024B0B6014394038D7
:1018D0000A6010BD4917000808B5124D124C0221CC
:1018E0002046FEF797FDB8B91420FFF7F3FC02215C
:1018F0002046FEF78FFD48B900226946E86800F0EF
:1019000083FB01280CD009A0FFF782FC02212046AE
:10191000FEF780FD0028F9D00A20FFF7DBFCDEE7A8
:1019200007A0F1E700000020000801407265636530
:10193000766965206661696C7572650D0A00000044
:1019400072656365766965207375636365730D0AF7
:101950000000000008B56420134D144CADF80000E1
:1019600001212046FEF756FDC0B91420FFF7B2FC56
:1019700001212046FEF74EFD50B900231A46694664
:10198000E86800F091FA01280CD009A0FFF740FCAC
:1019900001212046FEF73EFD0028F9D00A20FFF77E
:1019A00099FCDDE706A0F1E70000002000080140F7
:1019B00073656E64206661696C7572650D0A00005E
:1019C00073656E6420737563636573730D0A00003D
:1019D000D0E9013201699A60D0E901235A604A686E
:1019E000824201D182684A60002202610868401E7A
:1019F0000860086870470000034B036003F154005F
:101A000008608020106070478400002000F1080109
:101A10004FF0FF32C0E90112C16001610021016095
:101A2000704700210161704730B50B685A1C02D025
:101A300000F1080202E0026904E0224654682568C9
:101A40009D42FAD953684B6099608A605160086181
:101A50000168491C016030BD42684A6093688B6030
:101A600093685960916008610168491C0160704782
:101A7000502080F31188BFF34F8FBFF36F8F0A4957
:101A80004868401C486001280CD10848006810F0E4
:101A9000FF0F07D0502080F31188BFF34F8FBFF3A3
:101AA0006F8FFEE7704700007400002004ED00E037
:101AB0000849486828B1401E486001D180F3118868
:101AC0007047502080F31188BFF34F8FBFF36F8FA3
:101AD000FEE700007400002070B5002827D0144DE8
:101AE000A0F108046168E868014207D1502080F342
:101AF0001188BFF34F8FBFF36F8FFEE722683AB1B3
:101B0000502080F31188BFF34F8FBFF36F8FFEE734
:101B10008143616000F0A2F8606869680844686009
:101B20002046FFF7CDFDBDE8704000F093BC70BDCE
:101B30005C0000204FF0E020002101618161054937
:101B40004FF47A720968B1FBF2F1491E4161072135
:101B5000016170471C00002010B5020014D00F482E
:101B6000806B38B1502080F31188BFF34F8FBFF3E3
:101B70006F8FFEE700F072F800211046FFF7F4FBCC
:101B800000F068FC002807D105494FF0805008603C
:101B9000BFF34F8FBFF36F8F10BD000020000020F8
:101BA00004ED00E002498A6A0260496941607047B9
:101BB00020000020014901204862704720000020D9
:101BC00010B50C4650B1094909681831FFF72CFFD0
:101BD0002046BDE810400121FFF7C6BB502080F32E
:101BE0001188BFF34F8FBFF36F8FFEE720000020F7
:101BF00010B586B00024039405AA04A903A8049490
:101C0000FFF7FAFEDDE903010094CDE9011000239E
:101C10000EA11048059A00F0FAFA0F49002848630F
:101C200011D0502080F31188BFF34F8FBFF36F8F17
:101C30004FF0FF3008630120C8614C6106B0BDE879
:101C4000104000F041B806B010BD000049444C45BA
:101C500000000000BD150008200000200248816B34
:101C6000491C816370470000200000201448816BEC
:101C700011B1012141627047002141628169B1FACD
:101C800081F1C1F11F0101EB81020E4951F82230AF
:101C90006BB101EB820101F108034A6852684A60A6
:101CA0009A4201D152684A60D16801607047502061
:101CB00080F31188BFF34F8FBFF36F8FFEE70000F3
:101CC00020000020680300201CB5264908780190F8
:101CD000FF20087008788DF800009DF800009DF83E
:101CE000002000F0F000904207D0502080F31188CF
:101CF000BFF34F8FBFF36F8FFEE79DF800001A4BC5
:101D000000F0500018700720986005E09DF8002052
:101D100052008DF80020401E9DF800201206F5D4D8
:101D20009860032807D0502080F31188BFF34F8FAD
:101D3000BFF36F8FFEE74FF4407098600198087012
:101D40000A48016841F470010160016841F0704186
:101D50000160FFF7EFFE00205860FEF7E5F9002074
:101D60001CBD000000E400E07400002020ED00E055
:101D7000F8B517460E46050014D0DEB105FB06F097
:101D80004830FFF72BFD04000AD0002084F84600FD
:101D900004F148023B46314628460094FFF73EFCDA
:101DA0002046F8BD502080F31188BFF34F8FBFF35A
:101DB0006F8FFEE70020E3E738B5049D18B153B1FB
:101DC000CAB181B120E0502080F31188BFF34F8F5A
:101DD000BFF36F8FFEE7502080F31188BFF34F8F62
:101DE000BFF36F8FFEE7502080F31188BFF34F8F52
:101DF000BFF36F8FFEE739B1502080F31188BFF336
:101E00004F8FBFF36F8FFEE748241C46012384F8F1
:101E100046302B460094FFF701FC204638BD0000F9
:101E200070B50D46040025D0FFF722FED4E90F203F
:101E3000216802FB001161600021A1632168A1609B
:101E40000A46D4E90F01401E00FB0121E160214652
:101E50004FF0FF3001F8440F487004F110008DB1CD
:101E6000FFF7D4FD04F12400FFF7D0FDFFF720FEBB
:101E7000012070BD502080F31188BFF34F8FBFF356
:101E80006F8FFEE721690029F0D000F0A9FA002841
:101E9000ECD004494FF080500860BFF34F8FBFF380
:101EA0006F8FE3E704ED00E02DE9FF4782B01D46A8
:101EB0008A464FF00008040003D0BAF1000F08D0A2
:101EC00011E0502080F31188BFF34F8FBFF36F8F65
:101ED000FEE7206C38B1502080F31188BFF34F8F9C
:101EE000BFF36F8FFEE7022D0AD1E06B012807D008
:101EF000502080F31188BFF34F8FBFF36F8FFEE741
:101F000000F0B0F93F4F4FF000094FF0805648B94C
:101F1000049838B1502080F31188BFF34F8FBFF37E
:101F20006F8FFEE7FFF7A4FDA06BE16B884207D33C
:101F3000022D05D00498D0B1B8F1000F1AD01EE0E0
:101F40002A4651462046FFF7C2FA616A19B104F1E8
:101F5000240000F045FA20B13E60BFF34F8FBFF37D
:101F60006F8FFFF7A5FD012006B0BDE8F087FFF7F2
:101F70009FFD22E06846FFF715FE4FF00108FFF7CE
:101F800097FDFFF76BFEFFF773FD94F94400401CCB
:101F900001D184F8449094F94500401C01D184F8A3
:101FA0004590FFF785FD04A9684600F0C9F830B1F7
:101FB0002046FFF7DDFB00F04DFA0020D4E7FFF7E5
:101FC00057FDA06BE16B884213D1FFF771FD04F15F
:101FD00010000499FFF7F4FD2046FFF7C9FB00F05D
:101FE00039FA00289ED13E60BFF34F8FBFF36F8F49
:101FF00098E7FFF75DFD2046FFF7BAFB00F02AFAED
:1020000090E7000004ED00E02DE9F747002683B0DB
:102010008A46040003D0BAF1000F08D011E0502026
:1020200080F31188BFF34F8FBFF36F8FFEE7206CF3
:1020300038B1502080F31188BFF34F8FBFF36F8FFB
:10204000FEE700F00FF9DFF8F4804FF000094FF0E1
:10205000805748B9059838B1502080F31188BFF3F4
:102060004F8FBFF36F8FFEE7FFF702FDA56BC5B182
:1020700051462046FFF718FA6D1EA563206950B13E
:1020800004F1100000F0ACF928B1C8F80070BFF3FB
:102090004F8FBFF36F8FFFF70BFD012006B0BDE838
:1020A000F087059808B11EB106E0FFF701FD27E0B3
:1020B0006846FFF777FD0126FFF7FAFCFFF7CEFD34
:1020C000FFF7D6FC94F94400401C01D184F84490F9
:1020D00094F94500401C01D184F84590FFF7E8FCD5
:1020E00005A9684600F02CF8002820460AD0FFF722
:1020F0003FFB00F0AFF92046FFF708FB0028B3D004
:102100000020CBE7FFF702FB90B104F12400059912
:10211000FFF756FD2046FFF72BFB00F09BF9002848
:10212000A2D1C8F80070BFF34F8FBFF36F8F9BE74A
:102130002046FFF71DFB00F08DF995E704ED00E068
:102140002DE9F0410C46050011D0C4B1FFF790FC19
:10215000174B5A696E682068911B471C17D02F686F
:102160009B6A9F4219D0964217D8012410E0502054
:1021700080F31188BFF34F8FBFF36F8FFEE75020BE
:1021800080F31188BFF34F8FBFF36F8FFEE70024FA
:10219000FFF78EFC2046BDE8F081884205D9401A41
:1021A00020602846FFF7FEFCF1E700202060DCE716
:1021B000200000202DE9FF5F8346DDE90E87994668
:1021C00016468A469000FFF709FB05001CD05420F4
:1021D000FFF704FB040014D00020256384F85100AD
:1021E000CDE90240CDE900874B463246514658467C
:1021F000FFF71FFA2046FFF7EFF8012004B0BDE813
:10220000F09F2846FFF768FC4FF0FF30F6E7F0B587
:1022100085B0DDE90B640A9DA6B1DCB154270097B7
:102220002663022684F85160002604AFCDE90246F9
:10223000CDE90057FFF7FDF92046FFF7CDF80498E8
:1022400005B0F0BD502080F31188BFF34F8FBFF36E
:102250006F8FFEE7502080F31188BFF34F8FBFF3DD
:102260006F8FFEE70548C16919B1806B18B1002076
:1022700070470120704702207047000020000020B6
:102280002DE9F0412E4C0027A06B40B1206A401C84
:102290002062606A00B101273846BDE8F0816669B6
:1022A000761C666113D16068006838B1502080F3F5
:1022B0001188BFF34F8FBFF36F8FFEE76068A1688F
:1022C0006160A060A06A401CA062FFF72DFA206B3D
:1022D000DFF87080864209D36068006880B160686A
:1022E000C068C568686886420DD220632068C06AED
:1022F00000EB800158F821000128CAD90127C8E75E
:102300004FF0FF30F1E7281DFFF762FBA86A18B114
:1023100005F11800FFF75CFBE86A0121A269814022
:102320001143A16100EB800108EB8100291DFFF73B
:1023300093FBE86A2168C96A8842CDD30127CBE7BD
:10234000200000206803002070B504004FF0000159
:1023500040D0214D2868844207D0502080F3118856
:10236000BFF34F8FBFF36F8FFEE7A06C38B1401EF5
:10237000A064636CE26A9A422CD040B12AE05020FB
:1023800080F31188BFF34F8FBFF36F8FFEE7201DDF
:10239000FFF71EFB114A012150B9E06A00EB8003F0
:1023A00052F8233023B9AB6901FA00F08343AB61E3
:1023B000606CE062C0F10700A061E06AAB69814037
:1023C0001943A96100EB800002EB8000211DFFF79B
:1023D00043FB0121084670BD200000206803002057
:1023E0002DE9F041C068C468ACB104F1180007469B
:1023F000FFF7EEFA154DA86B0126A0B13946144837
:10240000FFF72AFBE06A2968C96A88421CD90120C3
:102410006E62BDE8F081502080F31188BFF34F8FCA
:10242000BFF36F8FFEE7201DFFF7D2FAE16AAA69BA
:1024300006FA01F01043A86101EB81000449B439A8
:1024400001EB8000211DDBE70020E2E720000020F7
:102450001C0400202DE9F0472C4D00242746A86BD2
:1024600038B1FFF705FBA86B401EA863A86B40B10D
:1024700046E0502080F31188BFF34F8FBFF36F8F7A
:10248000FEE72969224E0120D1B3A6F1B4098046A6
:102490003068E8B1F068C46804F11800FFF798FAF2
:1024A000201DFFF795FAE06AAA6908FA00F11143C6
:1024B000A96100EB800109EB8100211DFFF7CCFA37
:1024C000E06A2968C96A8842E2D3C5F82480DFE758
:1024D0000CB1FFF729F92C6A44B14646FFF7D0FE4C
:1024E00000B16E62641EF9D100202862686A38B1BA
:1024F0000849012738070860BFF34F8FBFF36F8F7C
:10250000FFF7D6FA3846BDE8F0870000200000202B
:102510001C04002004ED00E00200000002000000A6
:102520000000000000000000A8250008C50F0008FA
:10253000000000000000000080000000000000001B
:1025400000000000B425000855190008FDFF000038
:1025500000000000800000000000000000000000FB
:10256000C0250008D9180008FDFF00000000000089
:1025700080000000000000000000000001020203D3
:102580000405060708090A0B0C0D0E0F10100000B9
:102590000000000000000102030406070809000013
:1025A00000000102030400005461736B4C65643148
:1025B000000000006D795461736B3033000000003F
:1025C0006D795461736B303400000000EC25000815
:1025D000000000208400000040120008702600085F
:1025E00084000020D41300005012000800000000F6
:1025F00000000000000000000000000001000000DA
:1026000010000000000000000024F40000000000A2
:1026100000000000000000000000000000000000BA
:1026200000000000000000000000000000000000AA
:10263000000000000000000000000000000000009A
:10264000000000000000000000000000000000008A
:10265000000000000000000000000000000000007A
:1026600000000000AAAAAAAA0000000000000000C2
:04000005080000ED02
:00000001FF
