:020000040800F2
:100000009004002005010008F318000827180008D4
:10001000F11800087D070008A91A00080000000078
:10002000000000000000000000000000F7180008B9
:100030007F07000800000000F5180008F918000804
:100040001F0100081F0100081F0100081F01000810
:100050001F0100081F0100081F0100081F01000800
:100060001F0100081F0100081F0100081F010008F0
:100070001F0100081F0100081F0100081F010008E0
:100080001F0100081F0100081F0100081F010008D0
:100090001F0100081F0100081F0100081F010008C0
:1000A0001F0100081F0100081F0100081F010008B0
:1000B0001F0100081F0100081F0100081F010008A0
:1000C0001F0100081F0100081F0100081F01000890
:1000D0001F0100081F0100081F0100081F01000880
:1000E0001F0100081F0100081F010008DFF810D0E1
:1000F00000F0A6FA00480047B9230008AFF30080DB
:10010000900400200648804706480047FEE7FEE7C7
:10011000FEE7FEE7FEE7FEE7FEE7FEE7FEE7FEE7B7
:1001200075190008ED000008202A04DB203A21FAA6
:1001300002F00021704721FA02F3D040C2F1200200
:100140009140084319467047D2B201E000F8012BF4
:10015000491EFBD270470022F6E710B513460A4647
:1001600004461946FFF7F0FF204610BD2DE9FE4F6B
:1001700081EA030404F0004421F0004100944FF0B0
:10018000000B23F0004350EA01045ED052EA03045E
:100190005BD0C3F30A54C1F30A552C44A4F2F334E0
:1001A0000194A0FB0254C1F3130141F48011C3F385
:1001B000130343F4801301FB024400FB034E840A43
:1001C000970A44EA815447EA8357A4FB07680295DB
:1001D0008D0A05FB07854FEA932C04FB0C54270579
:1001E000029D4FEA065847EA1637B5EB08056EEB55
:1001F000070C870E920E47EA811742EA8312A7FB8B
:100200000201B6EB0B0164EB00042B0D43EA0C3347
:100210005E1844EB1C50DA465146E7FB0201C5F379
:1002200013044FEA0B3343EA14534FEA0432019CA0
:1002300043EA0603A4F10C040294009CCDE900B447
:1002400000F069F803B0BDE8F08F00200146F9E73F
:100250000EB540F2334102910021CDE900110A466A
:100260000B4600F058F803B000BD30B50B46014610
:1002700000202022012409E021FA02F59D4205D345
:1002800003FA02F5491B04FA02F52844151EA2F1EF
:100290000102F1DC30BD2DE9F05F054600209246F9
:1002A0009B4688460646814640241BE02846414638
:1002B00047462246FFF738FF53465A46C01A914137
:1002C00010D311461846224600F0CCF92D1A67EBE0
:1002D00001084F4622460120002100F0C3F917EB28
:1002E00000094E41201EA4F10104DFDC48463146DE
:1002F0002A464346BDE8F09F10B5141E73F1000472
:1003000008DA401C41F1000192185B411A4301D107
:1003100020F0010010BD2DE9F04D92469B4611B131
:10032000B1FA81F202E0B0FA80F22032904600F099
:1003300099F904460F4640EA0A0041EA0B01534688
:100340005A46084313D0114653EA010019D0C8F1A8
:1003500040025046FFF7E8FE05460E465046594615
:10036000424600F07FF9084305D0012004E0204612
:100370003946BDE8F08D0020054346EAE0762C437F
:1003800037430A986305E40AA0EB08000022FD0A3F
:1003900044EA47540A3002D500200146E9E7010546
:1003A00010196941DDE9084500196941BDE8F04DC2
:1003B000A2E72DE9FE4F804681EA0300C00F0C46FC
:1003C000009021F0004123F00045B8EB0200A94164
:1003D00005D24046214690461C460B46024623F075
:1003E0000040104347D0270DC7F30A00C3F30A515A
:1003F0000290401A019040286BDAC3F3130040F4D6
:10040000801B0098924620B10023D2EB030A63EBD5
:100410000B0B01985946C0F14002504600F022F9FA
:1004200006460D4650465946019A00F02AF910EB4F
:1004300008006141002487EA115284EAE7731A43F5
:1004400040D0009A62B3019A012A4FEA075215DCA4
:10045000001B61EB02014FF0004202EA0752CDE9B6
:100460000042001C41F5801132462B46FFF753FF36
:1004700003B0BDE8F08F40462146F9E7001B61EB71
:100480000201001C41F5801300185B412018A2F501
:10049000001747EB030140EAD570B6196D4111E032
:1004A0006D084FEA360645EAC0754FEA0752001B51
:1004B00061EB0201001C41F5801149084FEA300050
:1004C0000019514132462B4603B0BDE8F04FFFF70B
:1004D00013BF0098012240000023D0EB020263EB1F
:1004E000E073009821464FEAE074B8EB000061EB3E
:1004F0000401E9E783F000435BE781F0004158E73E
:100500002DE9F04D81EA030404F0004B21F0004591
:1005100014464FF0000A23F0004150EA050220D0B3
:1005200054EA01021DD0C5F30A570246C5F313036E
:10053000C1F31300C1F30A5640F4801543F480134D
:10054000A7EB0608101BD64608F2FD3873EB050032
:1005500002D308F1010801E092185B41B8F1000FE5
:1005600003DA00200146BDE8F08D00204FF4801131
:10057000064684460EE0171B73EB050705D3121BD6
:1005800063EB050306434CEA010C49084FEA3000CF
:1005900092185B4150EA0107EDD152EA030012D0F4
:1005A00082EA040083EA0501084305D0101BAB4131
:1005B00006D20122002306E000224FF0004302E0B1
:1005C0006FF0010253101AEB06004CEB085110EBD0
:1005D0000A0041EB0B01BDE8F04DFFF78DBEC1F302
:1005E0000A52C1F3130140F2FF3341F480119A42E1
:1005F00002DA00200146704740F233439A42A2F2E9
:10060000334202DC5242FFF78FBD00F02BB80000EE
:1006100030B5041E71F1000404DB4FF00044404289
:1006200064EB0101141E73F1000405DB1C464FF05E
:100630000043524263EB0403994208BF904230BD2D
:10064000064C074D06E0E06840F0010394E807001F
:1006500098471034AC42F6D3FFF74CFDAC240008A9
:10066000CC240008202A04DB203A00FA02F1002002
:1006700070479140C2F1200320FA03F319439040E0
:100680007047202A06DBCB17203A41FA02F043EAF2
:10069000E07306E041FA02F3D040C2F1200291403B
:1006A000084319467047000070B504460068816829
:1006B000C943C90717D1816821F00101816000F0A9
:1006C00023FC05460AE000BF00F01EFC401B022888
:1006D00004D920688068C043C00706D020688068BD
:1006E000C043C007F0D0002070BDA06A40F01000E9
:1006F000A062E06A40F00100E062012070BD0000ED
:10070000F8B500260446009600688168C943C90709
:100710002DD0816841F001018160164816490068BA
:10072000B0FBF1F000E0401E00900028FBD100F08B
:10073000EBFB054616E000BF00F0E6FB401B02287D
:1007400010D920688068C043C0070BD0A06A40F071
:100750001000A062E06A40F00100E06284F82460CA
:100760000120F8BD20688068C043C007E4D10020A4
:10077000F8BD00000C00002040420F00FEE770476B
:1007800072B6FEE7F8B500250446009590F82400FF
:1007900001280BD0012084F824002046FFF784FFB5
:1007A0002046FFF7ADFF060002D050E00220F8BD62
:1007B000A06A20F4885040F00200A062022000F0FD
:1007C00033FC25490968B1FBF0F0400000E0401E11
:1007D00000900028FBD12068816841F00801816009
:1007E00000F092FB074608E000F08EFBC01B0A28D1
:1007F00003D920688068000715D420688068000746
:10080000F2D42068816841F00401816000F07CFB33
:10081000074612E000F078FBC01B0A280DD92068BB
:100820008068400709D5A06A20F0020040F010005F
:10083000A06284F824500120F8BD20688068400739
:10084000E8D4A06A20F0020040F00100A06284F821
:1008500024503046F8BD00000C000020F8B50024FC
:10086000009490F824202546012A12D0012280F815
:1008700024204A681F23072A0DD20668776B521E70
:1008800002EB820293409F430B6893401F437763C0
:1008900019E00220F8BD06680D2A0AD2376BD21F74
:1008A00002EB820293409F430B6893401F433763E0
:1008B00009E0F76A0D3A02EB820293409F430B680E
:1008C00093401F43F7620A68072306680A2A0AD37F
:1008D000F7680A3A02EB420293409F438B689340C9
:1008E0001F43F76008E0376902EB420293409F43E1
:1008F0008B6893401F4337610A68102A01D0112A80
:1009000020D1124B02689A4217D193681B0219D466
:10091000936843F4000393600968102912D10C49CD
:100920000C4A0968B1FBF2F101EB8101490000E0DA
:10093000491E00910029FBD104E0816A41F02001A9
:100940008162012480F824502046F8BD0024014033
:100950000C00002040420F000068C06C704700008F
:100960002DE9F0414FF0000704003D467ED0A06A1B
:10097000002628B9E66284F82460204600F07EF85C
:100980002046FFF791FEA16AC90600D420B1A06AF3
:1009900040F01000A06269E0A16A21F4885141F0A2
:1009A0000201A1626268E169237B0A4347EA4301CD
:1009B0000A43A1684FF48077B94209D0012907D0D2
:1009C0005FF0000194F814C0BCF1010F02D00AE0FE
:1009D0003946F7E7F3B1A36A43F02003A362E36A61
:1009E00043F00103E3622368D3F804C02CF4694C9C
:1009F0004CEA010CC3F804C021688B68DFF870C0B2
:100A000003EA0C0313438B60A168B9420BD00129A0
:100A100009D00CE0DFF85CC0A3690CEB43330B4357
:100A200043F40061DFE7218A0D05A5F580152168F3
:100A3000CB6A23F470032B43CB62216889680E4B89
:100A40001940914208D1E662A16A21F0020141F009
:100A50000101A162BDE8F081A06A20F0020040F02F
:100A60001000A062E06A40F00100E0620120F1E7BE
:100A7000FDF7E1FF00E0FFFFFE0E1FFF00B585B0B0
:100A80000021009101910291039100680E49884272
:100A900017D10E48816941F400718161816901F4C7
:100AA00000710491816941F00401816180696946A6
:100AB00000F004000490032000900190044800F02E
:100AC00033F905B000BD00000024014000100240D1
:100AD000000801402DE9F84300270D460446009721
:100AE00000F012FA804620688168C90508D5A06A1E
:100AF00040F02000A06284F824700120BDE8F88353
:100B00004168C90503D4C06A10F4700F2AD00220CE
:100B100000F08AFA3B490968B1FBF0F620680369E6
:100B200039490B424FEA61014FEAA1121FD1C36854
:100B30004FEA611C13EA0C0F19D103690B4225D14E
:100B4000C068104222D1142023E0681C0AD02DB1C5
:100B500000F0DAF9A0EB0800A84203D92068006889
:100B6000800725D5206800688007EED52DE0036951
:100B70000B4202D1C168114206D0026923490A42E0
:100B800006D1C068084203D1542002E0292000E0C9
:100B9000FC204643009816E0681C11D02DB100F0EF
:100BA000B3F9A0EB0800A8420AD90098B04207D2D6
:100BB000A06A40F00400A06284F8247003209DE73E
:100BC0000098401C0090B042E6D321686FF01200FC
:100BD0000860A06A40F40070A06220688068C0F3DA
:100BE000424007280CD1207B50B9A06A20F48070C5
:100BF000A062A06AC00403D4A06A40F00100A06211
:100C000000207BE70C000020244992244992240014
:100C100070B5044690F8240001280DD0012084F816
:100C200024002046FFF76CFD02004FF0000005D0C5
:100C300084F82400104670BD022070BDA16A40F205
:100C40000123994341F48071A1621F4D23681F491C
:100C5000AB4218D10E6816F4702F14D0A66A46F471
:100C60008016A6620E68760505D5A66A26F400569B
:100C700046F48056A662A66AF6040AD5E66A26F00D
:100C80000606E66206E0A66A26F48016A6625E689C
:100C9000E9E7E06284F824006FF002001860206841
:100CA0008368C3F34243072B05D1A84208D10968E2
:100CB00011F4702F04D0816841F480118160B9E78C
:100CC000816841F4A001F9E70028014004240140B3
:100CD00010B5044690F82400012807D0012084F8BC
:100CE00024002046FFF7E0FC10B107E0022010BD11
:100CF000A16A21F4885141F00101A162002184F828
:100D0000241010BD70B5044600F0FEF80546601CC6
:100D100002D004480078044400F0F6F8401BA042DA
:100D2000FAD370BD000000202DE9F84FDFF8B8912C
:100D30000024A9F1040B23460F2709F1040AABF1A3
:100D4000040EC9E00125A5402A40AA427DD1674E84
:100D5000D1F804C0ACEB0608B44532D014DCBCF1C9
:100D6000030F3AD009DCBCF1000F2AD0BCF1010F0F
:100D70001CD0BCF1020F31D11DE0BCF1110F17D016
:100D8000BCF1120F2AD119E0B8F5881F19D006DC82
:100D9000B8F5803F15D0B8F5801F1FD111E0B8F528
:100DA000001F0ED0B8F5041F18D10AE0CB6815E07B
:100DB000CB681B1D12E0CB6808330FE0CB680C3307
:100DC0000CE08B682BB1012B4FF0080303D0456179
:100DD00004E0042302E0056100E00023FF2A01D8BB
:100DE000064601E000F104064FEA840501D9A5F1A9
:100DF0002005D6F8008007FA05FC28EA0C0803FA5B
:100E000005F548EA0508C6F800804D68ED0062D592
:100E1000374DAE6946F00106AE61AD6924F00306B8
:100E200005F001050095334D06EB050CDCF8085084
:100E3000A607360F07FA06F825EA0805DFF8B88096
:100E4000404503D14FF0000817E044E0DFF8AC80E4
:100E5000404502D14FF001080FE0DFF8A480404583
:100E600002D14FF0020808E0DFF89880404502D137
:100E70004FF0030801E04FF0040808FA06F848EACA
:100E80000508CCF808804D68D9F80060ED024D46A1
:100E900001D5164300E096432E604D68DAF80060F5
:100EA000AD02554601D5164300E096432E604D68CD
:100EB000DBF80060AD035D4601D5164300E09643C4
:100EC0002E604D68DEF80060ED03754601D51643CF
:100ED00000E096432E60641C0D682A46E5407FF4CE
:100EE00031AFBDE8F88F0000080401400000111088
:100EF000001002400000014000080140000C0140C9
:100F00000010014000140140014880687047000053
:100F10000000002002488168027811448160704717
:100F200000000020074810B5016841F01001016081
:100F3000032000F067F80F2000F006F800F024F816
:100F4000002010BD0020024070B50D4D04464FF446
:100F50007A712878B1FBF0F00A490968B1FBF0F02A
:100F600000F096FB48B9102C07D200222146501EF3
:100F700000F028F800206C6070BD012070BD0000FA
:100F8000000000200C0000200C4808B5816941F0E9
:100F900001018161816901F001010091C16941F0A4
:100FA0008051C161C06900F08050009004484168E0
:100FB00021F0E06141F00071416008BD0010024085
:100FC00000000140F0B40E4B1B680C46C3F3022333
:100FD000C3F10705042D00D90425191D072901D2E5
:100FE000002300E0DB1E012606FA05F1491E214020
:100FF00099409E40761E16403143F0BC00F066BD1D
:101000000CED00E0064900F0070208684FF6FF0308
:10101000184040EA0220034A10430860704700006D
:101020000CED00E00000FA0510B501460020234C4D
:10103000012922D0022939D010291DD161682268E6
:10104000D20119D51E48C1F38342C903805C0AD579
:1010500061681B4AC1F34041921E515C194AB2FBC0
:10106000F1F1484301E0184948436168490203D45B
:1010700040000321B0FBF1F010BD226AC2F3012150
:10108000012903D1920701D5C80310BD022905D15A
:10109000626A920702D549F6404010BD0329FCD18F
:1010A00021688903F9D54FF2244010BD00F02AF9D8
:1010B0006168C1F38131491C4900DBE7001002403F
:1010C0008424000800127A0000093D002DE9F8434D
:1010D00005460078354CC00754D0E0690026C000B2
:1010E00008D4E06940F08050E061E069012600F03A
:1010F000805000902E480168C90512D401688046CE
:1011000041F480710160FFF7FFFE074605E000BF74
:10111000FFF7FAFEC01B642823D8D8F80000C005EA
:10112000F6D5206A10F4407021D0A98801F44071EE
:1011300081421CD0206A1F49012220F440700A60BD
:1011400000220A602062C00711D0FFF7DDFE0746CB
:1011500041F2883808E000BFFFF7D6FEC11B4145C9
:1011600002D90320BDE8F883206A8007F4D5206AFD
:10117000696820F44070084320621EB1E06920F0E5
:101180008050E0612878800705D56068A96820F460
:101190004040084360602878C00605D56068E9686B
:1011A00020F48000084360600020DBE7001002406C
:1011B00000700040400442422DE9F0470F46050010
:1011C00061D0434E306800F00700B84209D2306861
:1011D00020F0070038433060306800F00700B84264
:1011E00051D128683B4C810712D5400703D5606870
:1011F00040F4E06060602878000703D5606840F440
:10120000605060606068A96820F0F000084360608A
:101210002878C00728D06868012810D021680228E3
:1012200010D0890700292EDA616821F003010143FB
:101230006160FFF769FE804641F288390DE0216860
:101240008903EFE78901EDE7FFF75EFEA0EB0801F8
:10125000494502D90320BDE8F0876068696800F05D
:101260000C00B0EB810FEFD1306800F00700B842FE
:101270000BD9306820F0070038433060306800F048
:101280000700B84201D00120E5E72878400705D5DE
:101290006068E96820F4E06008436060287800072F
:1012A00006D56068296920F4605040EAC10060609A
:1012B00000F038F86168084AC1F30311515CC84076
:1012C0000649086006480068FFF73EFE0020C2E7B6
:1012D0000020024000100240942400080C0000206E
:1012E000040000200448054900684968044AC1F325
:1012F0000221515CC84070470C00002000100240E1
:10130000A42400080448054900684968044AC1F358
:10131000C221515CC84070470C0000200010024000
:10132000A42400080E4A51680E4801F00C03042B57
:1013300011D0082B0FD10C48C1F38343C903C05C03
:101340000AD55168084AC1F34041921E515C054AD2
:101350005043B0FBF1F07047044948437047000028
:101360000010024000127A007224000800093D00BB
:101370002DE9F84F040070D02078C04DC00749D047
:101380006868C0F38100012807D06868C0F3810055
:10139000022809D16868C00306D52868800339D5BA
:1013A00060680028E7D035E06068B0F5803F0BD07A
:1013B00010B1B0F5A02F11D0286820F4803028603B
:1013C000286820F4802002E0286840F480302860FB
:1013D000606890B1FFF798FD06460AE0286840F47F
:1013E00080202860F0E700BFFFF78EFD801B642897
:1013F00073D828688003F7D50CE0FFF785FD064613
:1014000005E000BFFFF780FD801B6428F0D8286846
:101410008003F7D420789A4E80074FF001094FF0EF
:10142000000839D5686810F00C0F07D06868C0F361
:101430008100022809D16868C00306D428688007A3
:1014400014D52069012808D110E02069B0B1C6F890
:101450000090FFF759FD074605E00AE1FFF754FD4C
:10146000C01B0228C4D828688007F7D5286861699E
:1014700020F0F80040EAC10028600DE0C6F80080C6
:10148000FFF742FD074604E0FFF73EFDC01B0228C0
:1014900023D828688007F7D4207800072CD579480E
:1014A000A169D9B1C0F80090FFF72EFD074604E00E
:1014B000FFF72AFDC01B02280FD8686A8007F7D5FE
:1014C00071484FF4FA510068B0FBF1F0009000BF92
:1014D0000098411E0091FAD20EE080E0C0F8008032
:1014E000FFF712FD074604E0FFF70EFDC01B0228C0
:1014F00075D8686A8007F7D42078400760D5E86916
:101500000027C00008D4E86940F08050E861E8692D
:10151000012700F0805000905C480168C90513D491
:101520000168834641F480710160FFF7EDFC82465B
:1015300006E000BFFFF7E8FCA0EB0A0064284ED8E5
:10154000DBF80000C005F5D5E06801280AD008B135
:10155000052813D0286A20F001002862286A20F0AC
:10156000040002E0286A40F001002862E06841F2CD
:10157000883B98B1FFF7C8FC82460BE0286A40F030
:1015800004002862EEE700BFFFF7BEFCA0EB0A01F3
:1015900059455AD8286A8007F6D50CE0FFF7B4FC05
:1015A000824605E0FFF7B0FCA0EB0A0159454CD894
:1015B000286A8007F6D41FB1E86920F08050E861FE
:1015C000E06988B36968C1F38101022944D0022827
:1015D000C6F8608004D0FFF797FC044638E034E09A
:1015E000FFF792FC074604E0FFF78EFCC01B0228C1
:1015F0002BD828688001F7D4206AB0F5803F05D148
:101600006868A16820F4003008436860D4E90801E4
:101610000843696821F4741108436860C6F8609053
:10162000FFF772FC044606E025E000BFFFF76CFC04
:10163000001B022809D828688001F7D51BE000BFED
:10164000FFF762FC001B022802D90320BDE8F88FD7
:1016500028688001F4D40EE00128F7D06868226A77
:1016600000F48031914204D1616A00F47010884224
:1016700001D00120EAE70020E8E700000010024066
:1016800000004242800442420C00002000700040F2
:1016900010B5401EB0F1807F01D3012010BD4FF086
:1016A000E02460610F21601700F010FA0020A061B3
:1016B00007202061002010BD70B5040004D094F80C
:1016C0004100002510B106E0012070BD84F84050B3
:1016D000204600F023F8242084F841002068C168E7
:1016E00021F40051C160204600F046F920680169EC
:1016F00021F4904101612068416921F02A01416192
:101700002068C16841F40051C1606564202084F8FC
:10171000410084F842006563002070BD30B585B09B
:1017200000240094019402940394006814498842B0
:1017300024D11448816941F480418161816901F4B7
:1017400080410491816941F00401816180690E4DFD
:1017500000F0040004904FF400700090022001900B
:101760000320039069462846FFF7DEFA2815CDE9E5
:101770000004694628460294FFF7D6FA05B030BD4A
:101780000038014000100240000801402DE9F843F4
:10179000044690F841001F4616460D46202802D008
:1017A0000220BDE8F8837DB176B10020606421207D
:1017B00084F84100FFF7A8FBA6848046E684A06871
:1017C000B0F5805F02D003E00120EAE7206910B1A4
:1017D0002E4600250EE000260CE08021204600F079
:1017E00027F9A0B9AEB116F8010B21684860E08C6A
:1017F000401EE084E08C43464FF000020097002832
:10180000EBD14FF04001204600F012F930B1032037
:10181000C7E735F8020BC0F30800E6E7202084F89C
:1018200041000020BDE7FEE7FEB500251648009503
:1018300001951449029501608915816005730124A1
:101840000475022606614FF460214560C0E9064137
:10185000FFF786F808B1FEF793FFCDE9005469461B
:1018600009480295FEF7FAFF08B1FEF789FFCDE9B6
:10187000004669460448FEF7F1FF002801D0FEF754
:101880007FFFFEBD0024014014000020094808B578
:10189000816941F020018161816901F0200100919D
:1018A000816941F004018161806900F004000090C9
:1018B00008BD0000001002400C4810B50A49016044
:1018C0004FF4E1314160002181600C22C160C0E928
:1018D00004128161C161FFF7EFFE002803D0BDE86B
:1018E0001040FEF74DBF10BD0038014044000020FD
:1018F000FEE7FEE770477047FFF70CBB30B593B0CB
:1019000028216846FEF727FC14210AA8FEF723FCCD
:10191000002501200F9510951195010412958DE871
:10192000230004904FF4E010CDE90810022407943E
:101930006846FFF71DFD08B172B6FEE70AA90F2041
:1019400081E831004FF48060CDE90D0502210AA83D
:10195000FFF732FC08B172B6FEE74FF40040119079
:101960000F940FA8FFF7B2FB002801D072B6FEE774
:1019700013B030BD7047000070B5044600680169BF
:10198000E26821F44051114301612169A0680843D4
:10199000616908432168CA6841F20C639A430243B3
:1019A000CA6020684169A26921F440711143416114
:1019B0001E492068884202D1FFF7A4FC01E0FFF72E
:1019C00091FC00EBC00101EB001260686421800013
:1019D000B2FBF0F3B3FBF1F36FF018067343B2FB05
:1019E000F0F5B2FBF0F605EB8305322303EB0515AA
:1019F000B5FBF1F5B6FBF1F605F0F00505EB0615C4
:101A0000B2FBF0F6B2FBF0F0B0FBF1F06FF01802B1
:101A1000504306EB800003EB0010B0FBF1F02168AF
:101A200000F00F002844886070BD000000380140BD
:101A30002DE9F041984617460E460446069D27E0DC
:101A4000681C25D02DB1FFF75FFAA0EB0800A84273
:101A50001ED920680C3050E8001F21F4D07140E8F6
:101A60000012002AF5D12068143050E8001F21F040
:101A7000010140E80012002AF5D1202084F841003D
:101A800084F84200002084F840000320BDE8F08183
:101A90002068006836EA000004D00020B842CFD0A9
:101AA0000020F3E70120F9E7FEE700000FB4054B43
:101AB00010B503A9044A029800F0EAF810BC5DF8DA
:101AC00014FB000099230008100000200907090EEC
:101AD000002804DB00F1E02080F80014704700F0DB
:101AE0000F0000F1E02080F8141D704702E008C8E4
:101AF000121F08C1002AFAD170477047002001E088
:101B000001C1121F002AFBD1704700002DE9FF5FC1
:101B100082B00021DDE90430020DDDF840B003435E
:101B200018D044F61050A2F2FF3242431514119817
:101B300001281FD0A5EB0B00401C5FEA000A4FF004
:101B400000064E4FDFF83891B046504615D5CAF121
:101B5000000413E0119801244AA3012801D16FEA7F
:101B60000B010298119AC0E90031C0E9024206B0A7
:101B7000BDE8F09FCBF10000DFE704460021404ABA
:101B8000491842EB0450CDE9001012E0E00707D0FD
:101B900032463B4640464946FEF7E8FA80468946CB
:101BA00032463B4610461946FEF7E0FA06460F4617
:101BB0006410002CEAD1DDE90401DDE90023BAF16B
:101BC000000F06DAFEF7D2FA42464B46FEF7CEFA8F
:101BD00005E0FEF795FC42464B46FEF791FC0446B5
:101BE0000E460022284BFEF713FD03D84FF0FF30BE
:101BF000014607E00022254B20463146FEF7D9FB7F
:101C0000FEF7EDFC102409E0002C0ADB0A22002379
:101C1000FEF741FB039B30321A55641E50EA010265
:101C2000F2D1641C039AC4F111031444119A012ADD
:101C300003D0012208430DD10AE0084304D000205C
:101C40004FF0110B119072E7A3EB0B056D1E0DE029
:101C50005B4504DD4FF0000205F1010504E003DA05
:101C60004FF00002A5F10105002AECD0029811996D
:101C7000C0E90231C0E9004579E7000000001440E6
:101C80000000F03F300000000000F0430000E03FA3
:101C90002DE9FF4F95B09A46884606460025EEE1AD
:101CA000252877D100242746F94A0121039400E032
:101CB000044316F8013F203B01FA03F01042F7D12C
:101CC00030782A2811D06FF02F033078A0F130023D
:101CD000092A16D8039A44F0020402EB820203EBAD
:101CE00042021044761C0390EFE758F8042B03924D
:101CF000002A03DA504244F40054039044F00204F2
:101D0000761C30782E2816D116F8010F44F0040402
:101D10002A280DD06FF02F023078A0F13003092B64
:101D200009D807EB870302EB4303C718761CF3E7D8
:101D300058F8047B761C30786C280FD006DC4C28D1
:101D400017D068280DD06A2814D104E0742810D068
:101D50007A280FD10DE044F400140AE044F4801412
:101D600001E044F440147278824202D104F58014F8
:101D7000761C761C307866280BD013DC582877D078
:101D800009DC002875D04528F6D04628F4D047282D
:101D90001AD193E118E0632835D0642879D06528FA
:101DA00012D18BE1702873D008DC6728F1D0692844
:101DB0006FD06E280DD06F2806D1ACE073282CD0E0
:101DC000752874D0782853D05246179990476D1CC7
:101DD00054E1C4F30250022809D003280DD0D8F8EA
:101DE000001004280DD00D6008F1040846E1D8F871
:101DF0000010EA17C1E90052F6E7D8F800100D808C
:101E0000F2E70D70F0E718F8041B8DF800100020C1
:101E10008DF80100EB46012003E058F804BB4FF0B9
:101E2000FF3061074FF0000102D40DE009F101011C
:101E30008946B9420FDA8145F8DB1BF80910002901
:101E4000F4D108E009F1010189468142FADB1BF86F
:101E500009100029F6D103985346A0EB0907214643
:101E60003846179A00F080FA284400EB090507E08D
:101E700044E008E10DE01BF8010B5246179990472A
:101E8000B9F10109F7D2534621463846179AF2E0D4
:101E900039E00A21C4F302524FF0000B0091022AEC
:101EA00006D058F8040BC117032A09D00AE023E032
:101EB00008F1070020F00702F2E80201904605E071
:101EC00000B2C117042A01D140B2C117002906DAB5
:101ED0000A460021404261EB02012D2202E0220568
:101EE00004D52B228DF80420012203E0E20701D063
:101EF0002022F7E7914657E00A2100E010214FF039
:101F0000000B00910BE010214FF0000B44F0040493
:101F10000827009103E008204FF0000B0090C4F365
:101F20000252022A05D058F8040B0021032A08D0D7
:101F300008E008F1070020F00702F2E802019046ED
:101F400003E080B2042A00D1C0B24FF0000922079A
:101F50002AD53278702A07D0DDF800C08CF0100C3A
:101F60005CEA0B0C05D00EE040228DF80420012223
:101F700008E050EA010306D030238DF804308DF8D4
:101F8000052002229146009B83F0080353EA0B03CD
:101F90000AD150EA010201D1620705D530228DF83D
:101FA00004204FF001097F1E3278582A04D039A24C
:101FB0000C920CAA02920BE03BA2F9E75B46009A56
:101FC000FEF769F90C9B9B5C029A521E02921370F9
:101FD00050EA0102F2D1029804A9081A00F1200B7C
:101FE000600702D524F4803400E001275F4502DD5C
:101FF000A7EB0B0000E0002000EB0B010090039822
:102000004944401A0390E00306D453462146179AE8
:10201000039800F0A9F90544002706E001A85246FC
:10202000C05D179990476D1C7F1C4F45F6DBE003A0
:102030000CD553462146179A039800F095F90544AC
:1020400004E030205246179990476D1C0099481EB5
:1020500000900029F5DC08E00298029952460078C9
:10206000491C0291179990476D1CBBF10001ABF11F
:10207000010BF1DC5BE100F065F90544761C30787A
:1020800000287FF40DAE19B02846BDE8F08F00009F
:10209000092801003031323334353637383961623E
:1020A0006364656600000000303132333435363702
:1020B000383941424344454600000000600700D4DF
:1020C000062708F1070020F00700F0E80223804609
:1020D00003F0004C5FEA0C0001D097A009E0200556
:1020E00001D596A005E0E00701D095A001E0AFF290
:1020F0004C001390307823F0004365280CD006DCA8
:10210000452809D046281DD047287FD13BE06628C6
:1021100018D067287AD136E00021112F01DB112079
:1021200000E0781CCDE9000104A90CA8FFF7EEFC43
:10213000DDE90D010C9A4FF0000B07F10109109237
:1021400000914EE04FF000400097CDE9011004A946
:102150000CA8FFF7DBFCDDE90D020C9B0F994FF09B
:10216000000B91461093009211B9791C00EB010904
:10217000B7EB090003D4C0F1FF3B07F10109A9EB5C
:102180000700019042E0012F00DA01270021112F02
:1021900001DD112000E03846CDE9000104A90CA8BA
:1021A000FFF7B4FCDDE90D010C9A00914FF0000B34
:1021B000B946109221070FD4009A4A4503DA914696
:1021C00001E0A9F10109B9F1010F05DD109AA9F1AA
:1021D0000101515C3029F4D0B84202DA10F1040F49
:1021E00003DA0121CDE9011010E0002803DC83446B
:1021F000A9EB000102E0411C494500DD8946A0EB46
:102200000B00401C01904FF000400290200705D4C5
:102210000198484502DB4FF0FF30019000208DF817
:102220004B0002980DF14B07B0F1004F25D0022072
:102230000C902B200D90029800280CDA404202905E
:102240002D200D9007E00A210298FEF70EF830319C
:10225000029007F8011D0C99481E0C900029F2DC31
:1022600002980028EFD1791E0D980870307800F0A0
:10227000200040F0450007F8020D11A8C01BC01D4A
:1022800002901398007800B1012000EB0901019839
:1022900001EBE071029801440398401A401E03903C
:1022A000E00306D453462146179A039800F05CF8E1
:1022B00005441398007818B15246179990476D1C41
:1022C000E00323D553462146179A039800F04CF8B3
:1022D00005441BE0BBF1000F07DB0098584504DD07
:1022E0001098179910F80B0001E01799302052460A
:1022F000904701980BF1010B401E05F1010501907B
:1023000004D12E205246179990476D1CB9F1000157
:10231000A9F10109DEDC05E017F8010B5246179917
:1023200090476D1C0299481E02900029F4DC534628
:102330002146179A03989EE62D0000002B0000000E
:10234000200000002DE9F041044600251E461746F6
:10235000880404D405E039462020B0476D1C641E73
:10236000F9D52846BDE8F0812DE9F0410446002565
:102370001E469046C80301D5302700E02027880478
:1023800004D505E041463846B0476D1C641EF9D5BA
:102390002846BDE8F081000038B504468DF80000FD
:1023A00040F6FF73012269460248FFF7EFF9204625
:1023B00038BD000044000020FEF7B4FDFFF79EFA90
:1023C000FFF764FAFFF730FAFFF776FA1E48FEF7D8
:1023D000D9F91E4C4FF066364FF47A781A48FEF75A
:1023E00017FC32211848FEF775FB1748FEF7B4FAC0
:1023F00007461548FEF70CFC32211348FEF76AFB2E
:102400001148FEF7A9FA05463846FDF721FF324686
:102410002346FDF7ABFE02460B460DA0FFF746FB39
:102420002846FDF715FF32462346FDF79FFE02467C
:102430000B460BA0FFF73AFB0348FEF749FC40466A
:10244000FEF760FCCAE700001400002066664A3F01
:10245000726573756C74203D2025660D0A000000BE
:10246000726573756C7431203D2025660D0A00007D
:10247000010202030405060708090A0B0C0D0E0FE2
:102480001010010202030405060708090A0B0C0DCF
:102490000E0F1010000000000000000001020304F5
:1024A000060708090000000001020304CC2400080C
:1024B0000000002014000000EC1A0008E0240008CE
:1024C000140000207C040000FC1A00080100000039
:1024D00010000000000000000024F40000000000D4
:04000005080000ED02
:00000001FF
