:020000040800F2
:10000000700A0020C9010008170B0008A10A0008A7
:10001000150B0008CF020008A70C00080000000024
:10002000000000000000000000000000410C00087B
:10003000D1020008000000003F0C0008430C00083B
:10004000E3010008E3010008E3010008E301000800
:10005000E3010008E3010008E3010008E3010008F0
:10006000E3010008E3010008E3010008E3010008E0
:10007000E3010008E3010008E3010008E3010008D0
:10008000E3010008E3010008E3010008E3010008C0
:10009000E3010008E3010008E3010008E3010008B0
:1000A000E3010008E3010008E3010008E3010008A0
:1000B000E3010008E3010008E3010008E301000890
:1000C000E3010008E3010008E3010008E301000880
:1000D000E3010008E3010008E3010008E301000870
:1000E000E3010008E3010008E301000800F002F862
:1000F00000F05AF80AA090E8000C82448344AAF168
:100100000107DA4501D100F04FF8AFF2090EBAE865
:100110000F0013F0010F18BFFB1A43F0010318473B
:10012000B40D0000D40D00000A444FF0000C10F88C
:10013000013B13F0070408BF10F8014B1D1108BF65
:1001400010F8015B641E05D010F8016B641E01F805
:10015000016BF9D113F0080F1EBF10F8014BAD1C55
:100160000C1B09D16D1E58BF01F801CBFAD505E073
:1001700014F8016B01F8016B6D1EF9D59142D6D3CD
:10018000704700000023002400250026103A28BFF5
:1001900078C1FBD8520728BF30C148BF0B607047F9
:1001A0001FB51FBD10B510BD00F058F81146FFF780
:1001B000F7FF00F047FE00F076F803B4FFF7F2FF18
:1001C00003BC00F07DF8000009488047094800475B
:1001D000FEE7FEE7FEE7FEE7FEE7FEE7FEE7FEE7F7
:1001E000FEE7FEE704480549054A064B7047000054
:1001F000A50C0008ED00000870040020700A002023
:1002000070060020700600204FF0000200B5134673
:1002100094469646203922BFA0E80C50A0E80C5026
:10022000B1F12001BFF4F7AF090728BFA0E80C50D7
:1002300048BF0CC05DF804EB890028BF40F8042BD0
:1002400008BF704748BF20F8022B11F0804F18BF3D
:1002500000F8012B7047704770477047754600F0F3
:100260002BF8AE4605006946534620F00700854648
:1002700018B020B5FFF7B6FFBDE820404FF00006EC
:100280004FF000074FF000084FF0000B21F007017E
:10029000AC46ACE8C009ACE8C009ACE8C009ACE8C1
:1002A000C0098D46704710B50446AFF30080204664
:1002B000BDE81040FFF781BF0048704710040020E0
:1002C00001491820ABBEFEE7260002007047FEE79A
:1002D000704700002DE9F84FDFF8B8910024A9F12C
:1002E000040B23460F2709F1040AABF1040EC9E001
:1002F0000125A5402A40AA427DD1674ED1F804C00D
:10030000ACEB0608B44532D014DCBCF1030F3AD094
:1003100009DCBCF1000F2AD0BCF1010F1CD0BCF1EC
:10032000020F31D11DE0BCF1110F17D0BCF1120F3B
:100330002AD119E0B8F5881F19D006DCB8F5803F3E
:1003400015D0B8F5801F1FD111E0B8F5001F0ED0F1
:10035000B8F5041F18D10AE0CB6815E0CB681B1D67
:1003600012E0CB6808330FE0CB680C330CE08B68ED
:100370002BB1012B4FF0080303D0456104E00423A7
:1003800002E0056100E00023FF2A01D8064601E0F3
:1003900000F104064FEA840501D9A5F12005D6F83D
:1003A000008007FA05FC28EA0C0803FA05F548EA7C
:1003B0000508C6F800804D68ED0062D5374DAE697E
:1003C00046F00106AE61AD6924F0030605F00105B3
:1003D0000095334D06EB050CDCF80850A607360FE8
:1003E00007FA06F825EA0805DFF8B880404503D18A
:1003F0004FF0000817E044E0DFF8AC80404502D140
:100400004FF001080FE0DFF8A480404502D14FF023
:10041000020808E0DFF89880404502D14FF0030859
:1004200001E04FF0040808FA06F848EA0508CCF89D
:1004300008804D68D9F80060ED024D4601D516439D
:1004400000E096432E604D68DAF80060AD02554634
:1004500001D5164300E096432E604D68DBF800603E
:10046000AD035D4601D5164300E096432E604D680E
:10047000DEF80060ED03754601D5164300E09643B3
:100480002E60641C0D682A46E5407FF431AFBDE85C
:10049000F88F000008040140000011100010024015
:1004A0000000014000080140000C01400010014024
:1004B000001401400AB1016170470904FBE7000024
:1004C00001488068704700000004002002488168ED
:1004D000027811448160704700040020074810B57D
:1004E000016841F010010160032000F067F80F205F
:1004F00000F006F800F024F8002010BD00200240B3
:1005000070B50D4D04464FF47A712878B1FBF0F0C8
:100510000A490968B1FBF0F000F0AEFA48B9102CB6
:1005200007D200222146501E00F028F800206C60FF
:1005300070BD012070BD0000000400200C040020EC
:100540000C4808B5816941F001018161816901F0C0
:1005500001010091C16941F08051C161C06900F0A1
:10056000805000900448416821F0E06141F0007142
:10057000416008BD0010024000000140F0B40E4B85
:100580001B680C46C3F30223C3F10705042D00D9F1
:100590000425191D072901D2002300E0DB1E0126D6
:1005A00006FA05F1491E214099409E40761E1640EC
:1005B0003143F0BC00F078BB0CED00E0064900F0E0
:1005C000070208684FF6FF03184040EA0220034A7A
:1005D00010430860704700000CED00E00000FA05D1
:1005E0002DE9F0470F46050061D0434E306800F01A
:1005F0000700B84209D2306820F007003843306065
:10060000306800F00700B84251D128683B4C8107A0
:1006100012D5400703D5606840F4E0606060287838
:10062000000703D5606840F4605060606068A968A6
:1006300020F0F000084360602878C00728D0686880
:10064000012810D02168022810D0890700292EDA4D
:10065000616821F0030101436160FFF731FF8046CB
:1006600041F288390DE021688903EFE78901EDE760
:10067000FFF726FFA0EB0801494502D90320BDE89A
:10068000F0876068696800F00C00B0EB810FEFD173
:10069000306800F00700B8420BD9306820F007003E
:1006A00038433060306800F00700B84201D00120C4
:1006B000E5E72878400705D56068E96820F4E06040
:1006C000084360602878000706D56068296920F42F
:1006D000605040EAC100606000F018F86168084AA4
:1006E000C1F30311515CC840064908600648006820
:1006F000FFF706FF0020C2E7002002400010024082
:10070000C20E00080C040020040400200E4A5168A8
:100710000E4801F00C03042B11D0082B0FD10C480C
:10072000C1F38343C903C05C0AD55168084AC1F3C9
:100730004041921E515C054A5043B0FBF1F07047B6
:1007400004494843704700000010024000127A003C
:10075000B20E000800093D002DE9F84F040070D0EA
:100760002078C04DC00749D06868C0F381000128D7
:1007700007D06868C0F38100022809D16868C00307
:1007800006D52868800339D560680028E7D035E0B1
:100790006068B0F5803F0BD010B1B0F5A02F11D03C
:1007A000286820F480302860286820F4802002E047
:1007B000286840F480302860606890B1FFF780FEC0
:1007C00006460AE0286840F480202860F0E700BF71
:1007D000FFF776FE801B642873D828688003F7D55E
:1007E0000CE0FFF76DFE064605E000BFFFF768FE70
:1007F000801B6428F0D828688003F7D420789A4EAC
:1008000080074FF001094FF0000839D5686810F0F3
:100810000C0F07D06868C0F38100022809D168680E
:10082000C00306D42868800714D52069012808D1A0
:1008300010E02069B0B1C6F80090FFF741FE07460E
:1008400005E00AE1FFF73CFEC01B0228C4D8286877
:100850008007F7D52868616920F0F80040EAC100F8
:1008600028600DE0C6F80080FFF72AFE074604E086
:10087000FFF726FEC01B022823D828688007F7D47C
:10088000207800072CD57948A169D9B1C0F800902B
:10089000FFF716FE074604E0FFF712FEC01B022812
:1008A0000FD8686A8007F7D571484FF4FA5100688D
:1008B000B0FBF1F0009000BF0098411E0091FAD209
:1008C0000EE080E0C0F80080FFF7FAFD074604E084
:1008D000FFF7F6FDC01B022875D8686A8007F7D4B9
:1008E0002078400760D5E8690027C00008D4E8698F
:1008F00040F08050E861E869012700F080500090E6
:100900005C480168C90513D40168834641F48071CD
:100910000160FFF7D5FD824606E000BFFFF7D0FD7E
:10092000A0EB0A0064284ED8DBF80000C005F5D51E
:10093000E06801280AD008B1052813D0286A20F001
:1009400001002862286A20F0040002E0286A40F0D2
:1009500001002862E06841F2883B98B1FFF7B0FDE2
:1009600082460BE0286A40F004002862EEE700BFF0
:10097000FFF7A6FDA0EB0A0159455AD8286A80075F
:10098000F6D50CE0FFF79CFD824605E0FFF798FDE9
:10099000A0EB0A0159454CD8286A8007F6D41FB14C
:1009A000E86920F08050E861E06988B36968C1F3C4
:1009B0008101022944D00228C6F8608004D0FFF7E4
:1009C0007FFD044638E034E0FFF77AFD074604E097
:1009D000FFF776FDC01B02282BD828688001F7D4CA
:1009E000206AB0F5803F05D16868A16820F4003026
:1009F00008436860D4E908010843696821F4741168
:100A000008436860C6F86090FFF75AFD044606E0A8
:100A100025E000BFFFF754FD001B022809D8286815
:100A20008001F7D51BE000BFFFF74AFD001B02283D
:100A300002D90320BDE8F88F28688001F4D40EE0C5
:100A40000128F7D06868226A00F48031914204D10D
:100A5000616A00F47010884201D00120EAE70020AA
:100A6000E8E70000001002400000424280044242D9
:100A70000C0400200070004010B5401EB0F1807FD3
:100A800001D3012010BD4FF0E02460610F216017F9
:100A900000F00AF90020A06107202061002010BDAD
:100AA000FEE7000030B585B000241848009401949A
:100AB00002940394816941F020018161816901F010
:100AC00020010491816941F004018161816901F093
:100AD00004010491816941F00801816180690C4D34
:100AE00000F0080004900022C0212846FFF7E2FC35
:100AF000C02000901120CDE9010402200390694636
:100B00002846FFF7E7FB05B030BD000000100240AB
:100B1000000C0140FEE7FEE710B5AE2000F064F9DE
:100B2000002000F061F9102000F05EF9402000F094
:100B30005BF9B02000F058F9812000F055F9FF2052
:100B400000F052F9A12000F04FF9A62000F04CF976
:100B5000A82000F049F93F2000F046F9C82000F035
:100B600043F9D32000F040F9002000F03DF9D520F2
:100B700000F03AF9802000F037F9D82000F034F97D
:100B8000052000F031F9D92000F02EF9F12000F015
:100B90002BF9DA2000F028F9122000F025F9DB20EB
:100BA00000F022F9302000F01FF98D2000F01CF930
:100BB000142000F019F9BDE81040AF2000F014B97E
:100BC00070B5202000F010F9022000F00DF900248B
:100BD00004F1B000C0B200F007F9002000F004F901
:100BE000102000F001F90025002000F014F96D1C20
:100BF000EDB2802DF8D3641CE4B2082CE8D370BDAC
:100C00002DE9F0410646002404F1B000C0B200F026
:100C1000EBF8002000F0E8F8102000F0E5F8E5011E
:100C200005F1800703E0705D00F0F5F86D1CAF4240
:100C3000F9D8641CE4B2082CE6D3BDE8F081704713
:100C40007047FFF743BC30B58FB028216846FFF7E7
:100C5000DBFA14210AA8FFF7D7FA01210804CDE92D
:100C600000100024029402250491CDE907504FF4AE
:100C7000E01009906846FFF76FFD08B172B6FEE715
:100C80000F20CDE90A054FF48060CDE90C40022128
:100C90000AA80E94FFF7A4FC002801D072B6FEE764
:100CA0000FB030BD7047FEE70907090E002804DBCE
:100CB00000F1E02080F80014704700F00F0000F110
:100CC000E02080F8141D704771B54FF461754FF046
:100CD000E023104E009819E02C46A04200D80446AC
:100CE0009869614201EBC10110EBC10105D49A6919
:100CF000824208DA8A42FADA05E08A199969814261
:100D0000FCDD9142FADC0098001B00900028E3D142
:100D100078BD0000401901002DE9F047124C06464D
:100D200000254FF080094FF4000A4FF480074FF080
:100D300040082760300601D5484600E05046206054
:100D40000120FFF7C1FFC4F800800120FFF7BCFFBE
:100D500027600120FFF7B8FF70066D1C060EEDB28C
:100D6000082DE6D3BDE8F087100C014010B5084C03
:100D700080202060402020600120FFF7A5FF4FF475
:100D800000002060BDE810400120FFF79DBF00007B
:100D9000100C014010B5084C4FF4000020604020BA
:100DA00020600120FFF790FF80202060BDE8104008
:100DB0000120FFF789BF0000100C014030B5094D3C
:100DC000402028600120FFF77FFF064808380068B0
:100DD000C0F3C0144FF4800028600120FFF774FFB7
:100DE000204630BD100C014010B50446FFF7BEFF91
:100DF0007820FFF791FFFFF7E1FF0020FFF78CFF5E
:100E0000FFF7DCFF2046FFF787FFFFF7D7FFBDE8BE
:100E10001040FFF7BFBF10B50446FFF7A7FF7820CB
:100E2000FFF77AFFFFF7CAFF4020FFF775FFFFF7D4
:100E3000C5FF2046FFF770FFFFF7C0FFBDE8104079
:100E4000FFF7A8BFFFF74AFBFFF7FDFEFFF72AFEFB
:100E5000FFF762FE2020FFF7C7FF0220FFF7C4FF65
:100E6000FFF7AEFE0248FFF7CBFE00F003F8FEE707
:100E70000000002010B52E20FFF7B6FF2720FFF757
:100E8000B3FF0020FFF7B0FF0020FFF7ADFF072002
:100E9000FFF7AAFF0120FFF7A7FF0020FFF7A4FF3D
:100EA000FF20FFF7A1FFBDE810402F20FFF79CBFF8
:100EB000010202030405060708090A0B0C0D0E0FB8
:100EC00010100000000000000000010203040607EB
:100ED00008090000F40E00080000002010040000C3
:100EE000280100081C100008100400206006000003
:100EF000840100088100245DC03090505090207E15
:100F0000C11D64447902BC90D05090882868A828FC
:100F1000A804E454546468489020C000245D03048D
:100F2000C93284651308053C46928105B9836C106B
:100F3000101417200C03070813A4AC4A12924F2078
:100F40000F800FF807F0FE047288090A8A6408F01F
:100F500080000A61C004CA71853CC20201081D19E3
:100F6000031C618E13448485050402010304091ADD
:100F700012141414128B4882B14CE31CFA033F067E
:100F800006181CF008084808A88454C46202E31C30
:100F900006020405090A0A0A020A0A1A19018B192B
:100FA0008C000F510C718222C45444A808680808B0
:100FB0004010080B17314A8A061283A28407E0E624
:100FC0002607F8033CE00456020102130101180D44
:100FD0000C031017141414D4348404F408590100B9
:100FE0000F22F404C404F49454545457104FA040F6
:100FF000033EC0C01F060108081015014B110CF973
:1010000012081B080A011208140190900F4F8080EB
:0C10100090908020FD3182101324F40029
:04000005080000ED02
:00000001FF
