:020000040800F2
:1000000088080020050100088F0E0008B50D0008C3
:100010008D0E000871010008B110000800000000FA
:10002000000000000000000000000000930E000827
:10003000AB01000800000000910E0008950E0008BA
:100040001F0100081F0100081F0100081F01000810
:100050001F0100081F0100081F0100081F01000800
:100060001F0100081F0100081F0100081F010008F0
:100070001F0100081F010008750100081F0100088A
:100080001F0100081F0100081F0100081F010008D0
:100090001F0100081F0100081F0100081F010008C0
:1000A0001F0100081F0100081F0100081F010008B0
:1000B0001F0100081F0100081F0100081F010008A0
:1000C0001F0100081F0100081F0100081F01000890
:1000D0001F0100081F0100081F0100081F01000880
:1000E0001F0100081F0100081F010008DFF810D0E1
:1000F00000F02CF800480047F1100008AFF3008032
:10010000880800200648804706480047FEE7FEE7CB
:10011000FEE7FEE7FEE7FEE7FEE7FEE7FEE7FEE7B7
:10012000F70E0008ED000008D2B201E000F8012B44
:10013000491EFBD270470022F6E710B513460A4667
:1001400004461946FFF7F0FF204610BD064C074D48
:1001500006E0E06840F0010394E807009847103497
:10016000AC42F6D3FFF7C6FF6C1100088C110008F3
:10017000FEE70000014800F01BB80000400400202A
:1001800030B590F840500124AC40C56B6C600468F9
:1001900063604368102B036803D099600068C260F5
:1001A00030BD9A600068C16030BD704772B6FEE72E
:1001B0002DE9F05FC16B0C6801680B68D0F840C096
:1001C000042202FA0CF2494DDFF824A1494E4A4FAD
:1001D000DFF828B1DFF828E122422CD05A072AD5CF
:1001E0000A68920603D40A6822F004020A600168D1
:1001F000A94201D1042219E0514501D1402215E064
:10020000B14202D14FF4806210E0B94202D14FF402
:1002100080420BE0594502D14FF4802206E071453F
:1002200002D14FF4800201E04FF080622F4908397B
:100230004A60C16A3BE04FF0020808FA0CF818EA7D
:10024000040F4FF000094FF0010235D05FEA8378C8
:1002500032D50B689B0605D40B6823F00A030B60AC
:1002600080F821200168A94201D1022219E05145FC
:1002700001D1202215E0B14202D14FF4007210E00A
:10028000B94202D14FF400520BE0594502D14FF46C
:10029000003206E0714502D14FF4001201E04FF048
:1002A0000072124908394A6080F82090816A00295A
:1002B0001AD0BDE8F05F0847082505FA0CF525427D
:1002C00012D01B0710D50B6823F00E030B6090F8BB
:1002D0004010C36B02FA01F15960826380F821205B
:1002E00080F82090016BE2E7BDE8F09F0800024033
:1002F0001C0002403000024044000240580002400E
:100300006C00024030B528B308C8134914221944C0
:10031000B1FBF2F18900C163104981630221417789
:100320001A6843F6F0718A43D0E900142143D0E9FA
:1003300002452C43214304692143446921438469D4
:100340002143114319600021416301224277017763
:10035000084630BD012030BDF8FFFDBF000002405F
:1003600070B5044690F82000002501280CD001202B
:1003700084F8200094F821600020012E06D084F833
:1003800020000225284670BD022070BD022684F898
:100390002160A0632068066826F0010606602046FA
:1003A000FFF7EEFEE06A00282068016802D041F005
:1003B0000E0106E021F0040101602068016841F0AF
:1003C0000A0101602068016841F001010160D9E77C
:1003D00070B5044600F00CF90546601C02D00448D4
:1003E0000078044400F004F9401BA042FAD370BD29
:1003F000000000202DE9F84FDFF8B8910024A9F1A2
:10040000040B23460F2709F1040AABF1040EC9E0DF
:100410000125A5402A40AA427DD1674ED1F804C0EB
:10042000ACEB0608B44532D014DCBCF1030F3AD073
:1004300009DCBCF1000F2AD0BCF1010F1CD0BCF1CB
:10044000020F31D11DE0BCF1110F17D0BCF1120F1A
:100450002AD119E0B8F5881F19D006DCB8F5803F1D
:1004600015D0B8F5801F1FD111E0B8F5001F0ED0D0
:10047000B8F5041F18D10AE0CB6815E0CB681B1D46
:1004800012E0CB6808330FE0CB680C330CE08B68CC
:100490002BB1012B4FF0080303D0456104E0042386
:1004A00002E0056100E00023FF2A01D8064601E0D2
:1004B00000F104064FEA840501D9A5F12005D6F81C
:1004C000008007FA05FC28EA0C0803FA05F548EA5B
:1004D0000508C6F800804D68ED0062D5374DAE695D
:1004E00046F00106AE61AD6924F0030605F0010592
:1004F0000095334D06EB050CDCF80850A607360FC7
:1005000007FA06F825EA0805DFF8B880404503D168
:100510004FF0000817E044E0DFF8AC80404502D11E
:100520004FF001080FE0DFF8A480404502D14FF002
:10053000020808E0DFF89880404502D14FF0030838
:1005400001E04FF0040808FA06F848EA0508CCF87C
:1005500008804D68D9F80060ED024D4601D516437C
:1005600000E096432E604D68DAF80060AD02554613
:1005700001D5164300E096432E604D68DBF800601D
:10058000AD035D4601D5164300E096432E604D68ED
:10059000DEF80060ED03754601D5164300E0964392
:1005A0002E60641C0D682A46E5407FF431AFBDE83B
:1005B000F88F0000080401400000111000100240F4
:1005C0000000014000080140000C01400010014003
:1005D00000140140C26821EA02030A4043EA0241D2
:1005E000016170470AB1016170470904FBE700002F
:1005F00001488068704700000000002002488168C0
:10060000027811448160704700000020074810B54F
:10061000016841F010010160032000F075F80F201F
:1006200000F006F800F024F8002010BD0020024081
:1006300070B50D4D04464FF47A712878B1FBF0F097
:100640000A490968B1FBF0F000F0DCFA48B9102C57
:1006500007D200222146501E00F036F800206C60C0
:1006600070BD012070BD0000000000200C000020C3
:100670000C4808B5816941F001018161816901F08F
:1006800001010091C16941F08051C161C06900F070
:10069000805000900448416821F0E06141F0007111
:1006A000416008BD0010024000000140002809DB45
:1006B00000F01F02012191404009800000F1E0207C
:1006C000C0F8001170470000F0B40E4B1B680C46D8
:1006D000C3F30223C3F10705042D00D90425191D16
:1006E000072901D2002300E0DB1E012606FA05F1EE
:1006F000491E214099409E40761E16403143F0BC71
:1007000000F0D7BC0CED00E0064900F007020868D5
:100710004FF6FF03184040EA0220034A10430860E6
:10072000704700000CED00E00000FA052DE9F047ED
:100730000F46050061D0434E306800F00700B84214
:1007400009D2306820F0070038433060306800F08C
:100750000700B84251D128683B4C810712D54007A9
:1007600003D5606840F4E06060602878000703D536
:10077000606840F4605060606068A96820F0F00034
:10078000084360602878C00728D06868012810D026
:100790002168022810D0890700292EDA616821F02B
:1007A000030101436160FFF723FF804641F288396E
:1007B0000DE021688903EFE78901EDE7FFF718FFF6
:1007C000A0EB0801494502D90320BDE8F087606825
:1007D000696800F00C00B0EB810FEFD1306800F0D9
:1007E0000700B8420BD9306820F00700384330606A
:1007F000306800F00700B84201D00120E5E7287812
:10080000400705D56068E96820F4E060084360604F
:100810002878000706D56068296920F4605040EA0E
:10082000C100606000F038F86168084AC1F3031144
:10083000515CC8400649086006480068FFF7F8FEAA
:100840000020C2E7002002400010024052110008C0
:100850000C00002004000020044805490068496895
:10086000044AC1F30221515CC84070470C000020CB
:1008700000100240621100080448054900684968F8
:10088000044AC1F3C221515CC84070470C000020EB
:1008900000100240621100080E4A51680E4801F033
:1008A0000C03042B11D0082B0FD10C48C1F3834348
:1008B000C903C05C0AD55168084AC1F34041921E81
:1008C000515C054A5043B0FBF1F07047044948437E
:1008D000704700000010024000127A004211000828
:1008E00000093D002DE9F84F040070D02078C04D7C
:1008F000C00749D06868C0F38100012807D0686844
:10090000C0F38100022809D16868C00306D52868B1
:10091000800339D560680028E7D035E06068B0F51D
:10092000803F0BD010B1B0F5A02F11D0286820F473
:1009300080302860286820F4802002E0286840F495
:1009400080302860606890B1FFF752FE06460AE0EA
:10095000286840F480202860F0E700BFFFF748FED9
:10096000801B642873D828688003F7D50CE0FFF754
:100970003FFE064605E000BFFFF73AFE801B6428F5
:10098000F0D828688003F7D420789A4E80074FF07B
:1009900001094FF0000839D5686810F00C0F07D036
:1009A0006868C0F38100022809D16868C00306D4D2
:1009B0002868800714D52069012808D110E0206933
:1009C000B0B1C6F80090FFF713FE074605E00AE154
:1009D000FFF70EFEC01B0228C4D828688007F7D591
:1009E0002868616920F0F80040EAC10028600DE045
:1009F000C6F80080FFF7FCFD074604E0FFF7F8FDAE
:100A0000C01B022823D828688007F7D42078000765
:100A10002CD57948A169D9B1C0F80090FFF7E8FD5D
:100A2000074604E0FFF7E4FDC01B02280FD8686A00
:100A30008007F7D571484FF4FA510068B0FBF1F028
:100A4000009000BF0098411E0091FAD20EE080E0B5
:100A5000C0F80080FFF7CCFD074604E0FFF7C8FDB3
:100A6000C01B022875D8686A8007F7D42078400731
:100A700060D5E8690027C00008D4E86940F08050DC
:100A8000E861E869012700F0805000905C48016847
:100A9000C90513D40168834641F480710160FFF7F2
:100AA000A7FD824606E000BFFFF7A2FDA0EB0A000B
:100AB00064284ED8DBF80000C005F5D5E0680128B1
:100AC0000AD008B1052813D0286A20F00100286256
:100AD000286A20F0040002E0286A40F00100286241
:100AE000E06841F2883B98B1FFF782FD82460BE057
:100AF000286A40F004002862EEE700BFFFF778FDA7
:100B0000A0EB0A0159455AD8286A8007F6D50CE0AF
:100B1000FFF76EFD824605E0FFF76AFDA0EB0A01D4
:100B200059454CD8286A8007F6D41FB1E86920F0EF
:100B30008050E861E06988B36968C1F381010229E6
:100B400044D00228C6F8608004D0FFF751FD044667
:100B500038E034E0FFF74CFD074604E0FFF748FDBE
:100B6000C01B02282BD828688001F7D4206AB0F572
:100B7000803F05D16868A16820F4003008436860B0
:100B8000D4E908010843696821F4741108436860D6
:100B9000C6F86090FFF72CFD044606E025E000BF94
:100BA000FFF726FD001B022809D828688001F7D529
:100BB0001BE000BFFFF71CFD001B022802D9032029
:100BC000BDE8F88F28688001F4D40EE00128F7D042
:100BD0006868226A00F48031914204D1616A00F4AD
:100BE0007010884201D00120EAE70020E8E7000009
:100BF0000010024000004242800442420C000020EB
:100C00000070004010B5401EB0F1807F01D301207C
:100C100010BD4FF0E02460610F21601700F049FA29
:100C20000020A06107202061002010BD704770B532
:100C3000040004D094F84100002510B106E0012022
:100C400070BD84F84050204600F024F8242084F839
:100C500041002068C16821F40051C160204600F0C5
:100C6000CBF92068016921F4904101612068416954
:100C700021F02A0141612068C16841F40051C1603E
:100C80006564202084F8410084F8420065630020F8
:100C900070BD000070B586B0002506460095019530
:100CA0000295039500681F49884238D11E4988691A
:100CB00040F480408861886900F48040049088692D
:100CC00040F0040088618869184C00F0040004902A
:100CD00048150090022001900320039069462046A9
:100CE000FFF788FB2015CDE90005694620460295EF
:100CF000FFF780FB0F4C0E4820601020C4E901056F
:100D00008020C4E903052020C4E905502046E561A0
:100D1000FFF7F8FA08B1FFF749FAB463666206B064
:100D200070BD000000380140001002400008014082
:100D3000440002404004002070B5044690F8410091
:100D4000202801D0022070BD49B342B32162A284A1
:100D5000E28400206064212384F84130A56B114BAC
:100D6000AB62A56B104BEB62A56B104B2B63A36BB7
:100D70005863256813462A1DA06BFFF7F1FA216816
:100D80006FF0400008602068143050E8001F41F008
:100D9000800140E80012002AF5D1002070BD01203A
:100DA00070BD0000430F0008850F0008F90E000811
:100DB00070477047FEE70000094808B5416941F0F7
:100DC000010141614069002200F0010000901146DC
:100DD0000E20FFF779FCBDE808400E20FFF766BC47
:100DE0000010024070B586B00024184800940194A9
:100DF00002940394816941F020018161816901F0CD
:100E000020010491816941F004018161816901F04F
:100E100004010491816941F0080181618069012226
:100E200000F008000A4E1502049029463046FFF7EC
:100E3000D9FB01200095CDE9010402200390694609
:100E40003046FFF7D7FA06B070BD00000010024030
:100E5000000C01400C4810B50A4901604FF4E13123
:100E60004160002181600C22C160C0E904128161EF
:100E7000C161FFF7DCFE002803D0BDE81040FFF79A
:100E800095B910BD00380140F8030020FEE7FEE7E9
:100E900070477047FFF7B2BB30B58FB02821684666
:100EA000FFF749F914210AA8FFF745F901210804C1
:100EB000CDE900100024029402250491CDE90750E9
:100EC0004FF4E01009906846FFF70CFD08B172B6C8
:100ED000FEE70F20CDE90A054FF48060CDE90C4014
:100EE00002210AA80E94FFF721FC002801D072B657
:100EF000FEE70FB030BD704770B5446A20684069A6
:100F000094F84110C0F3C0100025212904D118B174
:100F1000E584204600F062F82068406994F84210A9
:100F2000C0F38010222904D118B1E585204600F0D5
:100F30002EF8606C40F0100060642046FFF776FEEB
:100F400070BD10B50146406A09680968890616D463
:100F50000021C1840168143151E8002F22F0800281
:100F600041E80023002BF5D101680C3151E8002F36
:100F700042F0400241E80023002BF5D110BDFFF7FD
:100F800017FF10BD10B5406AFFF713FF10BD0168D1
:100F90000C3151E8002F22F4907241E80023002B1D
:100FA000F5D10168143151E8002F22F0010241E827
:100FB0000023002BF5D1016B012909D101680C3107
:100FC00051E8002F22F0100241E80023002BF5D158
:100FD000202180F8421000210163704701680C3124
:100FE00051E8002F22F0C00241E80023002BF5D188
:100FF000202180F84110704770B5044600680169EF
:10100000E26821F44051114301612169A06808435D
:10101000616908432168CA6841F20C639A4302433C
:10102000CA6020684169A26921F44071114341619D
:101030001E492068884202D1FFF71EFC01E0FFF73D
:101040000BFC00EBC00101EB001260686421800022
:10105000B2FBF0F3B3FBF1F36FF018067343B2FB8E
:10106000F0F5B2FBF0F605EB8305322303EB051533
:10107000B5FBF1F5B6FBF1F605F0F00505EB06154D
:10108000B2FBF0F6B2FBF0F0B0FBF1F06FF018023B
:10109000504306EB800003EB0010B0FBF1F0216839
:1010A00000F00F002844886070BD00000038014047
:1010B000FEE70907090E002804DB00F1E02080F8B4
:1010C0000014704700F00F0000F1E02080F8141DBC
:1010D000704702E008C8121F08C1002AFAD1704701
:1010E0007047002001E001C1121F002AFBD17047A8
:1010F000FFF78CFAFFF7D0FEFFF774FEFFF75CFEF8
:10110000FFF7A8FE00200B4B41214FF47A721954CF
:10111000401C9042FBDB07490748FFF70DFE074DD7
:101120004FF4807421462846FFF754FA6420FFF7F5
:101130004FF9F7E710000020F8030020000C0140F1
:10114000010202030405060708090A0B0C0D0E0F25
:101150001010000000000000000001020304060758
:101160000809000000000102030400008C110008BF
:101170000000002010000000D21000089C110008A0
:101180001000002078080000E210000801000000B4
:0C11900010000000000000000024F4002B
:04000005080000ED02
:00000001FF
