:020000040800F2
:10000000080700208901000821120008E90F0008F4
:100010001D12000891020008F915000800000000F8
:100020000000000000000000000000008112000835
:10003000950200080000000051120008B5120008E7
:10004000A3010008A3010008A3010008A301000800
:10005000A3010008A301000899020008A3010008F9
:10006000A3010008A3010008A3010008A3010008E0
:10007000A3010008A3010008A3010008A3010008D0
:10008000A3010008A3010008A3010008A3010008C0
:10009000A3010008A3010008A3010008A5020008AD
:1000A000A3010008A3010008A3010008A3010008A0
:1000B000A3010008A3010008A3010008A301000890
:1000C000A3010008A3010008A3010008A301000880
:1000D000A3010008A3010008A3010008A301000870
:1000E000A3010008A3010008A301000800F002F822
:1000F00000F03AF80AA090E8000C82448344AAF188
:100100000107DA4501D100F02FF8AFF2090EBAE885
:100110000F0013F0010F18BFFB1A43F0010318473B
:10012000241B0000441B0000103A24BF78C878C18B
:10013000FAD8520724BF30C830C144BF04680C60ED
:10014000704700000023002400250026103A28BF35
:1001500078C1FBD8520728BF30C148BF0B60704739
:100160001FB51FBD10B510BD00F058F81146FFF7C0
:10017000F7FF01F0FDFA00F076F803B4FFF7F2FFA5
:1001800003BC00F07DF8000009488047094800479B
:10019000FEE7FEE7FEE7FEE7FEE7FEE7FEE7FEE737
:1001A000FEE7FEE704480549054A064B7047000094
:1001B0001D130008ED0000080801002008070020BA
:1001C00008030020080300204FF0000200B513468A
:1001D00094469646203922BFA0E80C50A0E80C5067
:1001E000B1F12001BFF4F7AF090728BFA0E80C5018
:1001F00048BF0CC05DF804EB890028BF40F8042B11
:1002000008BF704748BF20F8022B11F0804F18BF7D
:1002100000F8012B7047704770477047754600F033
:100220002BF8AE4605006946534620F00700854688
:1002300018B020B5FFF7B6FFBDE820404FF000062C
:100240004FF000074FF000084FF0000BAC46ACE851
:10025000C009ACE8C009ACE8C009ACE8C00921F0AD
:1002600007018D46704710B50446AFF30080204665
:10027000BDE81040FFF781BF004870471000002024
:1002800001491820ABBEFEE72600020070470000BF
:10029000FEE700007047000080B5012000F040F844
:1002A00080BD000080B5202000F03AF880BD00003D
:1002B000EFF3108072B600BFFEE70000B0B5044651
:1002C00000F046F9054640F20400C2F20000007852
:1002D000611C18BF044400BF00F03AF9401BA04263
:1002E000FAD3B0BDB0B50446202801D0012C15D1F9
:1002F00040F60005C4F201052846214600F01CF92D
:10030000012807D005F58060214600F015F9002886
:1003100018BFB0BD01F064FA01F078FAB0BD00007A
:1003200080B540F21441C4F201010A68024208BFDC
:1003300080BD0860FFF7D6FF80BD00002DE9F04FBB
:1003400082B00E68002E00F0F38041F20042C4F249
:100350000102042340F2004E904208BF03234FF6EF
:10036000FF7CC4F2010E009300240123C1F2100CA3
:100370004FF0000A4FF0000941E0012504F00C03A2
:100380000F279F402BEA070705FA03F33B4342F888
:1003900026304E6840F20C45F202DEF8082054BFC9
:1003A00022EA080242EA0802C4F20105CEF8082057
:1003B0002A68B30254BF22EA080242EA08022A600D
:1003C000B303DEF8042054BF22EA080242EA08021E
:1003D000F303CEF80420DEF800204FF0010354BFF1
:1003E00022EA080242EA0802CEF800200E680AF16A
:1003F000010A36FA0AF204F1040400F0998003FAC3
:100400000AFB16EA0B08F1D04A68624510DC122A92
:1004100050D8DFE802F0330A41454F4F4F4F4F4F5E
:100420004F4F4F4F4F4F4F484C00D1F80C9041E089
:100430004FF6FF75C1F22105AA420FDC0025C1F27B
:100440001105AA421AD00025C1F21205AA4215D000
:100450000025C1F22105AA4210D02BE00025C1F2EF
:100460002205AA420AD00025C1F23105AA4205D0D0
:100470000025C1F23205AA421CD100BF8A6842B1F0
:10048000012A14BFC0F814B0C0F810B04FF008092A
:1004900010E04FF004090DE0CA6802F1080909E014
:1004A0004FF0000906E0CA6802F1040902E0CA68D8
:1004B00002F10C0922460546B8F5807F24BF203A98
:1004C00004352E680F279740BE4309FA02F23243E3
:1004D0002A60CA79D2067FF589AF41F21803C4F2C7
:1004E00002031A684FEA9A0642F001021A601A687B
:1004F00040F6000302F001020192019AAEF57E720D
:1005000052F826B0C4F2010398420FD040F60043DF
:10051000C4F2010398423FF430AF41F20003C4F249
:100520000103009D984208BF022527E7002525E723
:1005300002B0BDE8F08F00008068084018BF0120BD
:1005400070470000002A08BF0904016170470000DD
:1005500040F20410C2F200000068704740F204004C
:1005600040F20411C2F20000C2F2000100780A68F1
:10057000104408607047000080B542F20000C4F2E9
:100580000200016841F010010160032000F066F8EC
:100590000F2000F005F800F02BF8002080BD0000CF
:1005A000B0B540F20402C2F2000240F2000112783B
:1005B000C2F200014FF47A730968B3FBF2F2044609
:1005C000B1FBF2F1084600F0BDFA0F2C4FF0010527
:1005D0000CD858B94FF0FF3021460022002500F01A
:1005E0002DF840F20800C2F2000004602846B0BDB9
:1005F00082B041F21800C4F202000168022241F008
:1006000001010160016801F0010101910199416856
:1006100041F080514160406800F0805000900098A7
:100620000420C4F20100016862F31A61016002B0A3
:100630007047000080B500F0E1FF80BD70B5144642
:100640000D46064600F0EAFF2946224600F0EAFD84
:100650000146304600F0EAFF70BD000080B500F0B2
:10066000F7FF80BD2DE9F04381B0002800F08980BC
:1006700042F20008C4F202080446D8F800000D4611
:1006800000F0070088420CD2D8F8000020F00700E4
:100690002843C8F80000D8F8000000F00700A8427E
:1006A0006FD1206841F204098107C4F2020917D50D
:1006B000410705D5D9F8001041F4E061C9F80010F0
:1006C000010705D5D9F8001041F46051C9F80010B0
:1006D000D9F80010A26821F0F0011143C9F8001008
:1006E000C00745D1D8F8000000F00700A8420CD997
:1006F000D8F8000020F007002843C8F80000D8F818
:10070000000000F00700A8423BD12068410707D550
:10071000D9F80010E26821F4E0611143C9F8001033
:10072000000708D5D9F80000216920F4605040EA9C
:10073000C100C9F8000000F04FF8D9F8001041F6E8
:100740003442C1F30311C0F60002515C40F20002D2
:1007500020FA01F140F20800C2F200000068C2F283
:1007600000021160FFF71CFF002001B0BDE8F0831C
:100770006068022809D0012829D159F8041C89038E
:1007800007D4012001B0BDE8F08359F8041C8901A9
:10079000F7D5D9F8001021F003010843C9F800008B
:1007A000FFF7D6FE064641F2883700BFD9F80000B1
:1007B000616800F00C00B0EB810F93D0FFF7C8FE2A
:1007C000801BB842F2D9032001B0BDE8F08359F88C
:1007D000041C8907D5D5DCE741F2040CC4F2020CF5
:1007E000DCF8003003F00C00082841F20020C0F2D1
:1007F0007A0018BF7047C3F383420AA18A5CD90309
:1008000005D440F60010C0F23D0050437047DCF8BC
:10081000001008A3C1F34041595C5043B0FBF1F014
:10082000704700BF02030405060708090A0B0C0DF8
:100830000E0F1010010200002DE9F04182B00028D7
:1008400000F0C4800446007841F20006C007C4F2FC
:10085000020643D0706800F00C00042817D07068BE
:1008600000F00C00082802D17068C0030FD465683E
:100870002DB1B5F5A02F10D0B5F5803F11D030685F
:1008800020F480303060306820F480200CE0306844
:10089000800323D5606808BB98E0306840F480206E
:1008A0003060306840F480303060FFF751FE002D3A
:1008B000054610D03068800310D4FFF749FE401B76
:1008C0006428F7D904E100BFFFF742FE401B64280B
:1008D0004FF0030077D830688003F5D42078800784
:1008E00018D5706810F00C0F07D0706800F00C007D
:1008F000082826D17068C00323D43068800702D549
:100900002069012862D13068616920F0F80040EA6E
:10091000C1003060207800073DD5A06938B30020C1
:10092000C4F242200121C0F88014FFF711FE0546F1
:10093000706A80072DD4FFF70BFE401B0228F7D901
:10094000C6E02069002840F20000C4F2422000F016
:10095000968001210160FFF7FBFD054630688007A6
:10096000D1D4FFF7F5FD401B0228F7D9B0E00020F5
:10097000C4F242200021C0F88014FFF7E9FD0546CB
:10098000706A800707D5FFF7E3FD401B0228F7D9FF
:100990009EE000F05FFC207840071BD4E5698DB134
:1009A000706800F00C00082847D1012D0ED0706847
:1009B000216A00F480328A4208D1616A00F4701022
:1009C000884203D1002002B0BDE8F081012002B0CE
:1009D000BDE8F081F06910F0805808D1F06940F06E
:1009E0008050F061F06900F080500190019847F26A
:1009F0000007C4F200073868C00510D4386840F416
:100A000080703860FFF7A4FD054600BF3868C00558
:100A100005D4FFF79DFD401B6428F7D958E0E56831
:100A20001DB1052D3CD0012D3ED0306A20F00100D3
:100A30003062306A20F0040039E00027C4F2422717
:100A400000203866FFF784FD022D05460CD100BF5B
:100A50003068800154D5FFF77BFD401B02284FF022
:100A60000300F5D9AFE700BF30688001AAD5FFF7D2
:100A70006FFD401B02284FF00300F5D9A3E70021CA
:100A80000160FFF765FD0546306880077FF542AFDE
:100A9000FFF75EFD401B02284FF00300F4D992E7F8
:100AA000306A40F004003062306A40F00100306289
:100AB000FFF74EFD002D054641F2883714D000BFE8
:100AC000306A800713D4FFF743FD401BB842F7D9C3
:100AD000032002B0BDE8F081FFF73AFD401BB842A9
:100AE0004FF003003FF66FAF306A8007F4D4B8F1DF
:100AF000000F7FF453AFF06920F08050F0614DE7B4
:100B0000206AB0F5803F05D17168A26821F40031F8
:100B1000114371607168626A21F4741110430843D3
:100B2000706001203866FFF713FD044630688001CD
:100B30003FF548AFFFF70CFD001B02284FF0030004
:100B4000F4D940E780B500F09DFB80BD10B590F86A
:100B50003C20012A4FF0020231D0012380F83C30C2
:100B600080F83D200268D2F804E0D2F808C00C6892
:100B70002EF07003234340F2FF74C4F20004A2423B
:100B8000536005DCB2F1804F0ED040F2004307E025
:100B900042F60043C4F201039A4205D040F6000336
:100BA000C4F200039A4204D149682CF0800319432F
:100BB00091600121002280F83D1080F83C20104611
:100BC00010BD0000002804BF0120704710B5044686
:100BD00090F83D0028B9002084F83C00204600F041
:100BE0001FF8022084F83D002068211D00F0B8FBAA
:100BF000012084F8460084F83E0084F83F0084F821
:100C0000400084F8410084F8420084F8430084F8EE
:100C1000440084F8450084F83D00002010BD000029
:100C200082B0006840F60001C4F20001884211D091
:100C3000B0F1804F1BD141F21C00C4F202000168E8
:100C400041F001010160006800F00100019001988D
:100C500002B0704741F21C00C4F20200016841F08A
:100C600004010160006800F004000090009802B0E8
:100C70007047000090F83D1001291CBF012070470B
:100C8000022180F83D10006840F2FF71C4F20001BB
:100C9000884205DCB0F1804F0ED040F2004107E001
:100CA00042F60041C4F20101884205D040F600013D
:100CB000C4F20001884206D1816801F007010629CB
:100CC00004BF00207047016841F00101016000206D
:100CD000704700000146006841F21113026A1A428F
:100CE00008D1026A40F244431A4203D1026822F05A
:100CF000010202600122002081F83D2070470000BF
:100D000010B5044690F83C0001284FF0020008BFDF
:100D100010BD012284F83C2084F83D0020684FF685
:100D2000777382689A4382600A684F2A0FDC1F2A11
:100D300022DD202A23D0302A21D0402A4DD14B68F1
:100D4000CA68194600F034FC206840213BE06F2A55
:100D500017DDB2F5005F20D0B2F5805F2AD0702A8F
:100D60003BD1D1E9012CCB68614600F051FB2068F2
:100D7000816841F077011AE00AB1102A2DD111469D
:100D800021E0502A18D0602A27D14B68CA6819463A
:100D900000F020FC2068602115E0D1E9012CCB682F
:100DA000614600F035FB2068816841F48041816034
:100DB00000200BE0002009E04B68CA68194600F0EB
:100DC000F7FB2068502100F02FFB0020012184F860
:100DD0003D10002184F83C1010BD0120F6E7000012
:100DE00080B586B0016840F60000C4F20000814280
:100DF0004FF00001CDE90411CDE9021101D006B098
:100E000080BD41F21801C4F202010A6800F5823087
:100E100042F008020A60096801F008010191019995
:100E20004FF40071029102210391059102A9FFF78D
:100E300085FA06B080BD0000B0B5044690F83C00CD
:100E4000012804BF0220B0BD0D464FEAB2010120C7
:100E5000032984F83C0037D8DFE801F0020A1222A7
:100E60002068294600F0E8FA206850F8181F0EE0C4
:100E70002068294600F010FB206850F8181F16E083
:100E80002068294600F03CFB206850F81C1F41F008
:100E900008010160016821F00401016029690FE087
:100EA0002068294600F05EFB206850F81C1F41F4C2
:100EB00000610160016821F4806101602969090213
:100EC0000268114301600020002184F83C10B0BD8D
:100ED000002804BF0120704710B5044690F83D007B
:100EE00028B9002084F83C00204600F01FF80220BA
:100EF00084F83D002068211D00F032FA012084F8BA
:100F0000460084F83E0084F83F0084F8400084F8EE
:100F1000410084F8420084F8430084F8440084F8D7
:100F2000450084F83D00002010BD0000704700001F
:100F3000B0B5044641B1082909D0042914BF04F111
:100F4000410004F13F0004E004F13E0001E004F13F
:100F50004000007801281CBF0120B0BD022041B133
:100F6000082909D0042914BF84F8410084F83F00FF
:100F700004E084F83E0001E084F84000206842F676
:100F800044450122C4F2010500F030FA2068A5F1C1
:100F90004401884203D1296841F40041296040F2AC
:100FA000FF71C4F20001884205DCB0F1804F0ED021
:100FB00040F2004107E042F60041C4F201018842DC
:100FC00005D040F60001C4F20001884206D18168D4
:100FD00001F00701062904BF0020B0BD016841F0FF
:100FE000010101600020B0BDFEE700002DE9F041E5
:100FF00086B0002641F21800CDE90466CDE902660C
:10100000C4F20200016840F6004441F02001016092
:101010000168C4F2010401F0200101910199016805
:10102000012241F0040101600168012701F004017F
:1010300001910199016841F00801016000684FF4D5
:10104000887100F00800019001982046FFF77AFAB5
:10105000204640210022FFF775FA40F2000802AD59
:10106000C1F21108A4F5806029460297CDE90386F4
:10107000FFF764F94FF4A870CDE90207022005904C
:10108000204629460496FFF759F92020CDE90208A9
:10109000204629460496FFF751F98020CDE9020643
:1010A000204629460496FFF749F90620022100222E
:1010B000FFF7C4FA0620FFF7BDFA1720022100222D
:1010C000FFF7BCFA1720FFF7B5FA06B0BDE8F081CC
:1010D00080B586B040F270000021C2F200004FF6E9
:1010E000FF7CCDE90411CDE90211CDE900114FF0EB
:1010F00080424723C0E9021C01618021C0E900232E
:101100008161FFF75FFD002818BFFFF7D1F84FF4AA
:101110008050029040F27000C2F2000002A9FFF776
:10112000EFFD002818BFFFF7C3F80020CDE900004D
:1011300040F27000C2F200006946FFF707FD002888
:1011400018BFFFF7B5F806B080BD000010B58EB02F
:1011500040F2B8000021C2F2000040F60002C724AD
:101160000D91CDE90B11CDE90911CDE90711CDE9BB
:101170000511CDE90311CDE90111C4F2000241F6D8
:101180001F43C0E9021401618021C0E9002381618D
:10119000FFF718FD002818BFFFF78AF84FF48050BA
:1011A0000A9040F2B800C2F200000AA9FFF7A8FDB9
:1011B000002818BFFFF77CF840F2B800C2F2000028
:1011C000FFF786FE002818BFFFF772F840F2B8005C
:1011D0000024C2F2000008A9CDE90844FFF7B6FCDC
:1011E000002818BFFFF764F86020CDE9010440F241
:1011F000B800C2F2000001A90C2203940594FFF785
:101200001BFE002818BFFFF753F840F2B800C2F2E7
:101210000000FFF7E5FD0EB010BD0000FEE7000086
:10122000FEE7000000F0070080F00703042B28BF52
:1012300004234FF0FF3C03380CFA03F338BF0020BF
:10124000994381400CFA00F022EA000008437047FD
:101250007047000081B040F20000C2F20000006858
:1012600044F6D351C1F26201A0FB0101480A00908B
:1012700000BF0098411E00280091F9D101B07047CD
:1012800070470000B0B501380024B4EB106F1CBFEC
:101290000120B0BD4EF21005CEF2000568604FF09F
:1012A000FF300F2100F0C2F90720AC602860204613
:1012B000B0BD000080B5FFF751F980BD70B590B0AA
:1012C00006AC20462821FEF77FFF012006900A90F9
:1012D0004FF4E01000254FF4803102260F90204695
:1012E0000595CDE90355CDE90155CDE90715CDE9C2
:1012F0000D61FFF7A1FA78B90F20CDE901064FF48F
:101300008060CDE9040501A802210395FFF7AAF941
:10131000002804BF10B070BDFEF7CAFF7047000080
:1013200040F27001C2F20001096801380A6842F017
:1013300001020A6000224A624A6A8242FCD3086AB9
:1013400041F21112104200D07047086A40F2444244
:10135000104218BF7047086820F00100086070470D
:1013600010B540F2FF7E0368C4F2000E42F6004C56
:101370007045C4F2010C05DCB0F1804F0AD040F298
:10138000004203E0604505D040F60002C4F20002CE
:10139000904203D14A6823F070031343704505DC83
:1013A000B0F1804F0AD040F2004203E0604505D022
:1013B00040F60002C4F20002904203D1CA6823F44E
:1013C0004073134323F080024B69D1F800E08C682E
:1013D0001A4360450260C462C0F828E002D109697E
:1013E000CCF830100121416110BD000080B501F042
:1013F0001F014FF0010CD0F820E00CFA01F32EEAA7
:1014000003030362036A02FA01F11943016280BD1A
:10141000D0F808C011432CF47F4C41EA032141EA83
:101420000C01816070470000826822F07002114355
:1014300041F0070181607047B0B5026A036A42F665
:10144000004423F001030362D0F804E0D0F818C090
:101450008B6822F00202C4F20104A04242EA0302B5
:1014600005D1CB6822F00C0223F004031A430B6869
:10147000A04207D1D1E905452EF4407E44EA0E048E
:1014800044EA050E2CF073052B43C0F804E0836199
:10149000496841630262B0BDB0B5026A036A42F6B0
:1014A000004423F010030362D0F804E0D0F818C021
:1014B0008B6822F02002C4F20104A04242EA031227
:1014C00007D1CB686FF0400522F0C00205EA031394
:1014D0001A430B68A04207D1D1E905452EF4406EAE
:1014E0004EEA840444EA850E2CF4E64545EA0323DB
:1014F000C0F804E08361496881630262B0BD000006
:10150000B0B5026A036A42F6004423F480730362B2
:10151000D0F804E0D0F81CC08B6822F40072C4F24A
:101520000104A04242EA032207D1CB6840F2FF4502
:101530001B0222F44062AB431A430B68A04207D15E
:10154000D1E905452EF4405E4EEA041444EA051E36
:101550002CF073052B43C0F804E0C3614968C163F4
:101560000262B0BDB0B5D0F820C0026A42F60045B4
:1015700022F4805202624268C3690C68D1F808E024
:10158000C4F20105A84204D14D6922F4804242EA26
:10159000851223F4E64343EA04234260C3612CF43A
:1015A0000055496845EA0E3201640262B0BD000090
:1015B000D0F820C0036A23F001030362836923F09B
:1015C000F00343EA02122CF00A031943826101621C
:1015D00070470000D0F820C0036A23F010030362B4
:1015E000836923F4704343EA02322CF0A00343EAF8
:1015F0000111826101627047FEE70000002848BFC8
:10160000704700F01F01012202FA01F14EF20012B0
:101610004009CEF2000242F8201070474EF60C50FE
:10162000CEF200000068C0F3022070474EF614535B
:1016300000F00F02CEF2000309011A4400F16043EA
:10164000B0F1FF3FC8BF03F564421170704700005E
:101650004EF60C51CEF200010A684FF6FF031A4015
:1016600060F30A2242F0806040F0FD70086070472D
:1016700010B540F60044C4F20104204610210022B7
:10168000FEF760FF6420FEF719FE204610210122BC
:10169000FEF758FF10BD000080B540F2B800C2F25E
:1016A00000000068052101649620FEF707FE80BD5A
:1016B00080B540F60040C4F201004FF48071012271
:1016C000FEF740FF80BD0000B0B540F60044C4F214
:1016D0000104204640210122FEF734FF1420FFF7C9
:1016E0001FFE204640210022FEF72CFF20468021CD
:1016F000FEF722FF0028F9D040F27005C2F2000583
:101700002846FFF7B7FA2868002141622046802169
:10171000FEF712FF0128F9D02846FFF7DBFA286808
:10172000406A00F0CFF849F67F7244F64003CEF2EB
:101730007112C3F6367300F055F90023C4F2590351
:10174000002200F04FF90023C3F6E073002200F0FE
:1017500049F9B0BD10B540F2B804C2F20004204609
:101760000C21FFF7E5FB20680521016410BD000096
:10177000FEF702FFFFF7A2FDFFF738FCFFF7E6FCDC
:10178000FFF7A6FCFFF7E6FF4FF0FF300021002235
:10179000FEF754FF0024C4F2240406E0FFF788FF9C
:1017A00000F02AF86420FEF789FDFFF78DFF002284
:1017B000234600F02AFA0028F0D100F011F800F0DA
:1017C00025F8EFE780B540F2B800C2F200000068EB
:1017D0000F2101644FF4FA60FEF770FD80BD000038
:1017E00080B540F60040C4F201004FF48071002241
:1017F000FEF7A8FE80BD000080B540F20010C2F2E6
:10180000000000210160FFF747FF80BD80B540F276
:101810000010C2F20000016821B14FF4FA60FEF737
:101820004DFD80BD01210160FFF722FFFFF7CAFFD8
:1018300080BD491058BFC1F140415B1058BFC3F192
:1018400040438B42EFF300807047000051EA030CE5
:1018500017D41CF5801F58BFBCF5801F00F106800F
:10186000994218BF704708BF9042704707D711F5DB
:10187000801F58BF13F5801F19D4994270478942C1
:1018800070471CF5801F08D5BCF5801FF7D58B422B
:1018900018BF704708BF824270474FF4001C1CEB12
:1018A000410F38BF1CEB430F01D28B42704770B51C
:1018B00000F042F9922449004FF000514FF080535C
:1018C000FFF7B7BF10F0004248BF4042B0FA80F3C4
:1018D00010FA03F10AD0C3F11D0303F5806302EB94
:1018E00003524FEA415002EBD12170474FF0000004
:1018F0007047000051EA030C17D41CF5801F58BF35
:10190000BCF5801F00F10680994218BF704708BFE0
:101910009042704707D711F5801F58BF13F5801FFD
:1019200019D499427047894270471CF5801F08D529
:10193000BCF5801FF7D58B4218BF704708BF8242A5
:1019400070474FF4001C1CEB410F38BF1CEB430FDA
:1019500001D28B42704770B500F0EEF89224490036
:101960004FF080514FF00053FFF763BF51EA030C73
:1019700017D41CF5801F58BFBCF5801F00F10680EE
:10198000994218BF704708BF9042704707D711F5BA
:10199000801F58BF13F5801F19D4994270478942A0
:1019A00070471CF5801F08D5BCF5801FF7D58B420A
:1019B00018BF704708BF824270474FF4001C1CEBF1
:1019C000410F38BF1CEB430F01D28B42704770B5FB
:1019D00000F0B2F8922449004FF000514FF08053CC
:1019E000FFF727BF70B5DFF848C11CEA111E1EBF04
:1019F0001CEA13159EEA0C0F95EA0C0F00F06F809D
:101A000081EA03044EEAD47EAE4421EA4C1123EA73
:101A10004C1341F4801143F48013AEF17F7EA1FB9F
:101A2000024CA0FB0365361955EB0C05A1FB034CDA
:101A30004CF10003A0FB021C16EB0C06654153F1B0
:101A40000003094218BF46F0010613F4007F0BD1D2
:101A50004FEA03314FEA053041EA155140EA16508A
:101A600034036FF003020AE04FEAC3214FEAC520B6
:101A700041EA555140EA5650F4026FF0020202EB7F
:101A80002E4201EB025585EACE710AD05FEA440C82
:101A900018BF24F0004450F1000041F1000120EA99
:101AA000D47040F2FE7C624500D270BDA84214BFE3
:101AB0004FF080444FF04044002E08BF0024BEF198
:101AC000806FA8BFA1F1C041BDE8704080F2828064
:101AD00001F1C04101F000414FF0000070470CEAF5
:101AE00013159EEA0C0F18BF95EA0C0F06D081EA79
:101AF000030E4FF000000EF0004170BD00F01CF826
:101B00008900013E00F007B800F009B84FEA430C25
:101B10005FEA5C5C08D081EA030100F05BB84FEA41
:101B2000410C5FEA5C5CF6D102494FF0000070475F
:101B30000000FF070000F87F0EF1020E2EF0030EEA
:101B40005EF8046B364205D4012A43EB030515F514
:101B5000001F12D8012841EB010C1CF5001F0CD806
:101B60000ED14FEAD17C0CEB4C0C0CF1020C15F5AC
:101B7000001F08BF4CEBD37C04E04FF0080C01E0E1
:101B80004FEAD37C0CEB4C0526FA05F606F0070667
:101B9000B6F1040C06D20EEB860CBDE870404CF09A
:101BA000010C6047DFE80CF0090B02024FF0004126
:101BB000A1F500214FF0000070BD19461046012824
:101BC00051EB010418BFD4F5001484BF002001F0CC
:101BD000004170BD0808A0F500114FEA31017047BF
:101BE00010B5FFF733FE0CBF0120002010BD10B56B
:101BF000FFF72CFE14BF0120002010BD10B5FFF729
:101C000079FE8CBF0120002010BD10B5FFF772FED9
:101C10002CBF0120002010BD10B5FFF7A7FE94BF18
:101C20000120002010BD10B5FFF7A0FE34BF012039
:101C3000002010BD000000000000000001020304AD
:101C400006070809681C00080000002010000000BA
:101C500028010008781C000810000020F806000089
:101C600044010008000000000024F400010000000E
:081C700010000000000000005C
:04000005080000ED02
:00000001FF
