:020000040800F2
:100000006004002005010008670C0008BB0B000815
:10001000650C00089D010008010E000800000000AA
:100020000000000000000000000000006B0C000851
:100030009F01000800000000690C00086D0C00081A
:100040001F0100081F0100081F0100081F01000810
:100050001F0100081F0100081F0100081F01000800
:100060001F0100081F0100081F0100081F010008F0
:100070001F0100081F0100081F0100081F010008E0
:100080001F0100081F0100081F0100081F010008D0
:100090001F0100081F0100081F0100081F010008C0
:1000A0001F0100081F0100081F0100081F010008B0
:1000B0001F0100081F0100081F0100081F010008A0
:1000C0001F0100081F0100081F0100081F01000890
:1000D0001F0100081F0100081F0100081F01000880
:1000E0001F0100081F0100081F010008DFF810D0E1
:1000F00000F042F800480047950E0008AFF300807A
:10010000600400200648804706480047FEE7FEE7F7
:10011000FEE7FEE7FEE7FEE7FEE7FEE7FEE7FEE7B7
:10012000CF0C0008ED000008D2B201E000F8012B6E
:10013000491EFBD270470022F6E710B513460A4667
:1001400004461946FFF7F0FF204610BD421C10F888
:10015000011B0029FBD1801A704710B5002200E076
:10016000521C835C8C5CA34201D1002BF8D1D8B225
:10017000E1B2401A10BD0000064C074D06E0E068F1
:1001800040F0010394E8070098471034AC42F6D3DE
:10019000FFF7B0FF700F0008900F0008FEE77047F0
:1001A00072B6FEE72DE9F84FDFF8B8910024A9F107
:1001B000040B23460F2709F1040AABF1040EC9E032
:1001C0000125A5402A40AA427DD1674ED1F804C03E
:1001D000ACEB0608B44532D014DCBCF1030F3AD0C6
:1001E00009DCBCF1000F2AD0BCF1010F1CD0BCF11E
:1001F000020F31D11DE0BCF1110F17D0BCF1120F6D
:100200002AD119E0B8F5881F19D006DCB8F5803F6F
:1002100015D0B8F5801F1FD111E0B8F5001F0ED022
:10022000B8F5041F18D10AE0CB6815E0CB681B1D98
:1002300012E0CB6808330FE0CB680C330CE08B681E
:100240002BB1012B4FF0080303D0456104E00423D8
:1002500002E0056100E00023FF2A01D8064601E024
:1002600000F104064FEA840501D9A5F12005D6F86E
:10027000008007FA05FC28EA0C0803FA05F548EAAD
:100280000508C6F800804D68ED0062D5374DAE69AF
:1002900046F00106AE61AD6924F0030605F00105E4
:1002A0000095334D06EB050CDCF80850A607360F19
:1002B00007FA06F825EA0805DFF8B880404503D1BB
:1002C0004FF0000817E044E0DFF8AC80404502D171
:1002D0004FF001080FE0DFF8A480404502D14FF055
:1002E000020808E0DFF89880404502D14FF003088B
:1002F00001E04FF0040808FA06F848EA0508CCF8CF
:1003000008804D68D9F80060ED024D4601D51643CE
:1003100000E096432E604D68DAF80060AD02554665
:1003200001D5164300E096432E604D68DBF800606F
:10033000AD035D4601D5164300E096432E604D683F
:10034000DEF80060ED03754601D5164300E09643E4
:100350002E60641C0D682A46E5407FF431AFBDE88D
:10036000F88F000008040140000011100010024046
:100370000000014000080140000C01400010014055
:10038000001401400AB1016170470904FBE7000055
:100390000148806870470000000000200248816822
:1003A000027811448160704700000020074810B5B2
:1003B000016841F010010160032000F05FF80F2098
:1003C00000F006F800F024F8002010BD00200240E4
:1003D00070B50D4D04464FF47A712878B1FBF0F0FA
:1003E0000A490968B1FBF0F000F0C6FA48B9102CD0
:1003F00007D200222146501E00F020F800206C6039
:1004000070BD012070BD0000000000200C00002025
:10041000094808B5816941F001018161816901F0F4
:1004200001010091C16941F08051C161C06900F0D2
:100430008050009008BD000000100240F0B40E4B48
:100440001B680C46C3F30223C3F10705042D00D932
:100450000425191D072901D2002300E0DB1E012617
:1004600006FA05F1491E214099409E40761E16402D
:100470003143F0BC00F0CEBC0CED00E0064900F0CA
:10048000070208684FF6FF03184040EA0220034ABB
:1004900010430860704700000CED00E00000FA0512
:1004A0002DE9F0470F46050061D0434E306800F05B
:1004B0000700B84209D2306820F0070038433060A6
:1004C000306800F00700B84251D128683B4C8107E2
:1004D00012D5400703D5606840F4E060606028787A
:1004E000000703D5606840F4605060606068A968E8
:1004F00020F0F000084360602878C00728D06868C2
:10050000012810D02168022810D0890700292EDA8E
:10051000616821F0030101436160FFF739FF804604
:1005200041F288390DE021688903EFE78901EDE7A1
:10053000FFF72EFFA0EB0801494502D90320BDE8D3
:10054000F0876068696800F00C00B0EB810FEFD1B4
:10055000306800F00700B8420BD9306820F007007F
:1005600038433060306800F00700B84201D0012005
:10057000E5E72878400705D56068E96820F4E06081
:10058000084360602878000706D56068296920F470
:10059000605040EAC100606000F038F86168084AC5
:1005A000C1F30311515CC840064908600648006861
:1005B000FFF70EFF0020C2E70020024000100240BB
:1005C000560F00080C0000200400002004480549D4
:1005D00000684968044AC1F30221515CC840704771
:1005E0000C00002000100240660F00080448054976
:1005F00000684968044AC1F3C221515CC840704791
:100600000C00002000100240660F00080E4A5168DE
:100610000E4801F00C03042B11D0082B0FD10C480D
:10062000C1F38343C903C05C0AD55168084AC1F3CA
:100630004041921E515C054A5043B0FBF1F07047B7
:1006400004494843704700000010024000127A003D
:10065000460F000800093D002DE9F84F040070D056
:100660002078C04DC00749D06868C0F381000128D8
:1006700007D06868C0F38100022809D16868C00308
:1006800006D52868800339D560680028E7D035E0B2
:100690006068B0F5803F0BD010B1B0F5A02F11D03D
:1006A000286820F480302860286820F4802002E048
:1006B000286840F480302860606890B1FFF768FED9
:1006C00006460AE0286840F480202860F0E700BF72
:1006D000FFF75EFE801B642873D828688003F7D577
:1006E0000CE0FFF755FE064605E000BFFFF750FEA1
:1006F000801B6428F0D828688003F7D420789A4EAD
:1007000080074FF001094FF0000839D5686810F0F4
:100710000C0F07D06868C0F38100022809D168680F
:10072000C00306D42868800714D52069012808D1A1
:1007300010E02069B0B1C6F80090FFF729FE074627
:1007400005E00AE1FFF724FEC01B0228C4D8286890
:100750008007F7D52868616920F0F80040EAC100F9
:1007600028600DE0C6F80080FFF712FE074604E09F
:10077000FFF70EFEC01B022823D828688007F7D495
:10078000207800072CD57948A169D9B1C0F800902C
:10079000FFF7FEFD074604E0FFF7FAFDC01B022845
:1007A0000FD8686A8007F7D571484FF4FA5100688E
:1007B000B0FBF1F0009000BF0098411E0091FAD20A
:1007C0000EE080E0C0F80080FFF7E2FD074604E09D
:1007D000FFF7DEFDC01B022875D8686A8007F7D4D2
:1007E0002078400760D5E8690027C00008D4E86990
:1007F00040F08050E861E869012700F080500090E7
:100800005C480168C90513D40168834641F48071CE
:100810000160FFF7BDFD824606E000BFFFF7B8FDAF
:10082000A0EB0A0064284ED8DBF80000C005F5D51F
:10083000E06801280AD008B1052813D0286A20F002
:1008400001002862286A20F0040002E0286A40F0D3
:1008500001002862E06841F2883B98B1FFF798FDFB
:1008600082460BE0286A40F004002862EEE700BFF1
:10087000FFF78EFDA0EB0A0159455AD8286A800778
:10088000F6D50CE0FFF784FD824605E0FFF780FD1A
:10089000A0EB0A0159454CD8286A8007F6D41FB14D
:1008A000E86920F08050E861E06988B36968C1F3C5
:1008B0008101022944D00228C6F8608004D0FFF7E5
:1008C00067FD044638E034E0FFF762FD074604E0C8
:1008D000FFF75EFDC01B02282BD828688001F7D4E3
:1008E000206AB0F5803F05D16868A16820F4003027
:1008F00008436860D4E908010843696821F4741169
:1009000008436860C6F86090FFF742FD044606E0C1
:1009100025E000BFFFF73CFD001B022809D828682E
:100920008001F7D51BE000BFFFF732FD001B022856
:1009300002D90320BDE8F88F28688001F4D40EE0C6
:100940000128F7D06868226A00F48031914204D10E
:10095000616A00F47010884201D00120EAE70020AB
:10096000E8E70000001002400000424280044242DA
:100970000C0000200070004010B5401EB0F1807FD8
:1009800001D3012010BD4FF0E02460610F216017FA
:1009900000F040FA0020A06107202061002010BD77
:1009A00070B5040004D094F84100002510B106E0B1
:1009B000012070BD84F84050204600F023F8242028
:1009C00084F841002068C16821F40051C1602046CC
:1009D00000F07EF92068016921F4904101612068EE
:1009E000416921F02A0141612068C16841F4005148
:1009F000C1606564202084F8410084F8420065638A
:100A0000002070BD30B585B000240094019402949C
:100A1000039400681449884224D11448816941F440
:100A200080418161816901F480410491816941F0D3
:100A30000401816180690E4D00F0040004904FF4C0
:100A40000070009002200190032003906946284620
:100A5000FFF7A8FB2815CDE9000469462846029453
:100A6000FFF7A0FB05B030BD003801400010024088
:100A7000000801402DE9F843044690F842009946E9
:100A800016460D46202802D00220BDE8F883ADB1FD
:100A9000A6B100206064222184F842102063FFF791
:100AA00077FCA6858046E685A0684FF48057B8425B
:100AB00001D1206920B12E46002526E00120E4E77F
:100AC000002622E04346002220212046CDF8009057
:100AD00000F05AF908B10320D7E726B1A068B84260
:100AE0001BD038B108E020684068C0F3080025F842
:100AF000020B07E0206980B12068406800F07F00A9
:100B000006F8010BE08D401EE085E08D0028D9D16C
:100B1000202084F842000020B7E720684068EFE713
:100B20002DE9F843044690F841001F4616460D464D
:100B3000202802D00220BDE8F8837DB176B10020E4
:100B40006064212084F84100FFF722FCA6848046DF
:100B5000E684A068B0F5805F02D003E00120EAE7F8
:100B6000206910B12E4600250EE000260CE0802101
:100B7000204600F009F9A0B9AEB116F8010B2168C2
:100B80004860E08C401EE084E08C43464FF0000259
:100B900000970028EBD14FF04001204600F0F4F818
:100BA00030B10320C7E735F8020BC0F30800E6E7D1
:100BB000202084F841000020BDE7FEE770B586B034
:100BC000002418480094019402940394816941F030
:100BD00020018161816901F020010491816941F066
:100BE00004018161816901F004010491816941F08E
:100BF000080181618069012200F008000A4E150297
:100C0000049029463046FFF7BDFB01200095CDE951
:100C100001040220039069463046FFF7C3FA06B08C
:100C200070BD000000100240000C01400C4810B5DF
:100C30000A4901604FF4E1314160002181600C22DA
:100C4000C160C0E904128161C161FFF7A9FE0028FB
:100C500003D0BDE81040FFF7A3BA10BD0038014033
:100C600014000020FEE7FEE770477047FFF796BBD1
:100C700030B58FB028216846FFF75DFA14210AA825
:100C8000FFF759FA01210804CDE90010002402946D
:100C900002250491CDE907504FF4E0100990684611
:100CA000FFF7DAFC08B172B6FEE70F20CDE90A05BE
:100CB0004FF48060CDE90C4002210AA80E94FFF7A2
:100CC000EFFB002801D072B6FEE70FB030BD7047D1
:100CD00070B5044600680169E26821F4405111438F
:100CE00001612169A0680843616908432168CA68F5
:100CF00041F20C639A430243CA6020684169A269C9
:100D000021F44071114341611E492068884202D19B
:100D1000FFF76CFC01E0FFF759FC00EBC00101EBB1
:100D20000012606864218000B2FBF0F3B3FBF1F3C2
:100D30006FF018067343B2FBF0F5B2FBF0F605EB6B
:100D40008305322303EB0515B5FBF1F5B6FBF1F690
:100D500005F0F00505EB0615B2FBF0F6B2FBF0F07E
:100D6000B0FBF1F06FF01802504306EB800003EB8C
:100D70000010B0FBF1F0216800F00F0028448860FB
:100D800070BD0000003801402DE9F041984617463B
:100D90000E460446069D27E0681C25D02DB1FFF7BE
:100DA000F7FAA0EB0800A8421ED920680C3050E8E2
:100DB000001F21F4D07140E80012002AF5D120680C
:100DC000143050E8001F21F0010140E80012002A11
:100DD000F5D1202084F8410084F84200002084F8F6
:100DE00040000320BDE8F0812068006836EA00007A
:100DF00004D00020B842CFD00020F3E70120F9E76B
:100E0000FEE70000014A024900F023B8750E000811
:100E1000100000200907090E002804DB00F1E02083
:100E200080F80014704700F00F0000F1E02080F817
:100E3000141D704702E008C8121F08C1002AFAD129
:100E400070477047002001E001C1121F002AFBD14A
:100E500070472DE9F04116460F460446002503E091
:100E60003946B047641C6D1C20780028F8D128460C
:100E7000BDE8F08138B504468DF8000040F6FF73F8
:100E8000012269460248FFF74BFE204638BD0000AC
:100E90001400002086B014216846FFF74CF9FFF7D4
:100EA00085FAFFF7E5FEFFF789FEFFF7BFFE642333
:100EB000062219A11A48FFF733FE1A4D4FF4807429
:100EC0006846FFF743F9401E82B26423694614481E
:100ED000FFF7D0FD9DF800000028F1D012A1684670
:100EE000FFF73BF978B112A16846FFF736F960B118
:100EF00011A0FFF787FF6846FFF728F9014668460B
:100F0000FFF719F9DCE7002200E00122214628461C
:100F1000FFF738FAEFE7000068656C6C6F0A0000B5
:100F200014000020000C01406F70656E000000008E
:100F3000636C6F73650000006572726F7220636F7F
:100F400064650000010202030405060708090A0B94
:100F50000C0D0E0F10100000000000000000010238
:100F60000304060708090000000001020304000052
:100F7000900F00080000002014000000340E00084C
:100F8000A40F0008140000204C040000440E0008C8
:100F90000100000010000000000000000024F40028
:040FA000000000004D
:04000005080000ED02
:00000001FF
