:020000040800F2
:10000000401800209D010008D32700089521000812
:10001000D12700081F080008112E0008000000006A
:1000200000000000000000000000000005010008C2
:1000300021080008000000004901000861280008AC
:10004000B7010008B7010008B7010008B7010008B0
:10005000B7010008B7010008B7010008B7010008A0
:10006000B7010008B7010008B7010008B701000890
:10007000B7010008B7010008B7010008B701000880
:10008000B7010008B7010008B7010008B701000870
:10009000B7010008B7010008B701000839080008D7
:1000A000B7010008B7010008B7010008B701000850
:1000B000B7010008ED280008B7010008B7010008E3
:1000C000B7010008B7010008B7010008B701000830
:1000D000B7010008052E0008B7010008B7010008A5
:1000E00023080008B7010008B7010008DFF810D0A6
:1000F00000F066FB004800471D410008AFF3008098
:1001000040180020224B19680868B0E8F00F80F30F
:100110000988BFF36F8F4FF0000080F311884EF015
:100120000D0E70470000000006480068006880F36C
:10013000088862B661B6BFF34F8FBFF36F8F00DFE1
:1001400000BF00BF08ED00E0EFF30980BFF36F8F41
:100150000F4B1A6820E9F00F106008B54FF05000FF
:1001600080F31188BFF34F8FBFF36F8F04F086FFCA
:100170004FF0000080F31188BDE808401968086856
:10018000B0E8F00F80F30988BFF36F8F704700BFAE
:1001900010020020EFF305807047000006488047FA
:1001A00006480047FEE7FEE7FEE7FEE7FEE7FEE75C
:1001B000FEE7FEE7FEE7FEE7EB280008ED0000089B
:1001C000202A04DB203A21FA02F00021704721FAAC
:1001D00002F3D040C2F12002914008431946704713
:1001E00040EA01039B0703D009E008C9121F08C0B9
:1001F000042AFAD203E011F8013B00F8013B521E39
:10020000F9D27047D2B201E000F8012B491EFBD2AF
:1002100070470022F6E710B513460A460446194611
:10022000FFF7F0FF204610BD10B5002200E0521C81
:10023000835C8C5CA34201D1002BF8D1D8B2E1B22F
:10024000401A10BD2DE9FE4F804681EA0300C00F21
:100250000C46009021F0004123F00045B8EB02006D
:10026000A94105D24046214690461C460B4602460F
:1002700023F00040104347D0270DC7F30A00C3F313
:100280000A510290401A019040286BDAC3F3130020
:1002900040F4801B0098924620B10023D2EB030A61
:1002A00063EB0B0B01985946C0F14002504600F039
:1002B00082F906460D4650465946019A00F08AF9E1
:1002C00010EB08006141002487EA115284EAE773C9
:1002D0001A4340D0009A62B3019A012A4FEA0752AA
:1002E00015DC001B61EB02014FF0004202EA0752ED
:1002F000CDE90042001C41F5801132462B4600F04A
:100300008AF903B0BDE8F08F40462146F9E7001BAB
:1003100061EB0201001C41F5801300185B412018BD
:10032000A2F5001747EB030140EAD570B6196D41FD
:1003300011E06D084FEA360645EAC0754FEA0752EC
:10034000001B61EB0201001C41F5801149084FEAD6
:1003500030000019514132462B4603B0BDE8F04F42
:1003600000F04AB90098012240000023D0EB0202BD
:1003700063EBE073009821464FEAE074B8EB0000AD
:1003800061EB0401E9E783F000435BE781F00041A2
:1003900058E72DE9FE4F81EA030404F0004421F000
:1003A000004100944FF0000B23F0004350EA010499
:1003B0005ED052EA03045BD0C3F30A54C1F30A557A
:1003C0002C44A4F2F3340194A0FB0254C1F31301B2
:1003D00041F48011C3F3130343F4801301FB02447F
:1003E00000FB034E840A970A44EA815447EA835784
:1003F000A4FB076802958D0A05FB07854FEA932C3D
:1004000004FB0C542705029D4FEA065847EA1637AD
:10041000B5EB08056EEB070C870E920E47EA8117C5
:1004200042EA8312A7FB0201B6EB0B0164EB000466
:100430002B0D43EA0C335E1844EB1C50DA46514650
:10044000E7FB0201C5F313044FEA0B3343EA1453ED
:100450004FEA0432019C43EA0603A4F10C0402941F
:10046000009CCDE900B400F0D6F803B0BDE8F08FF1
:1004700000200146F9E770B521F0004303430CD09A
:10048000C1F30A550024D5EB040564EB0403D61729
:10049000AD1AB34102DB0020014670BD201841EBCC
:1004A000025170BD0EB5C10F80EAE0700844CA0762
:1004B000002140F233438DE80E000A460B4600F05F
:1004C000AAF803B000BD000030B5041E71F10004AD
:1004D00004DB4FF00044404264EB0101141E73F151
:1004E000000405DB1C464FF00043524263EB04035B
:1004F0008B4208BF824230BD30B5041E71F100044A
:1005000004DB4FF00044404264EB0101141E73F120
:10051000000405DB1C464FF00043524263EB04032A
:10052000994208BF904230BD30B50B4601460020CD
:100530002022012409E021FA02F59D4205D303FAA5
:1005400002F5491B04FA02F52844151EA2F1010226
:10055000F1DC30BD2DE9F05F0546002092469B4658
:1005600088460646814640241BE0284641464746C9
:100570002246FFF725FE53465A46C01A914110D332
:1005800011461846224600F016F82D1A67EB0108AE
:100590004F4622460120002100F00DF817EB00091C
:1005A0004E41201EA4F10104DFDC484631462A46B4
:1005B0004346BDE8F09F202A04DB203A00FA02F10E
:1005C000002070479140C2F1200320FA03F3194341
:1005D00090407047202A06DBCB17203A41FA02F000
:1005E00043EAE07306E041FA02F3D040C2F1200290
:1005F000914008431946704710B5141E73F100046A
:1006000008DA401C41F1000192185B411A4301D104
:1006100020F0010010BD2DE9F04D92469B4611B12E
:10062000B1FA81F202E0B0FA80F220329046FFF790
:10063000C2FF04460F4640EA0A0041EA0B01534656
:100640005A46084313D0114653EA010019D0C8F1A5
:1006500040025046FFF7B4FD05460E465046594647
:100660004246FFF7A8FF084305D0012004E02046DA
:100670003946BDE8F08D0020054346EAE0762C437C
:1006800037430A986305E40AA0EB08000022FD0A3C
:1006900044EA47540A3002D500200146E9E7010543
:1006A00010196941DDE9084500196941BDE8F04DBF
:1006B000A2E72DE9F04D81EA030404F0004B21F09C
:1006C000004514464FF0000A23F0004150EA0502AD
:1006D00020D054EA01021DD0C5F30A570246C5F3E3
:1006E0001303C1F31300C1F30A5640F4801543F419
:1006F0008013A7EB0608101BD64608F2FD3873EBF3
:10070000050002D308F1010801E092185B41B8F13D
:10071000000F03DA00200146BDE8F08D00204FF401
:100720008011064684460EE0171B73EB050705D3C0
:10073000121B63EB050306434CEA010C49084FEA20
:10074000300092185B4150EA0107EDD152EA0300F4
:1007500012D082EA040083EA0501084305D0101B89
:10076000AB4106D20122002306E000224FF00043F5
:1007700002E06FF0010253101AEB06004CEB085137
:1007800010EB0A0041EB0B01BDE8F04DFFF734BF61
:10079000C1F30A52C1F3130140F2FF3341F4801157
:1007A0009A4202DA00200146704740F233439A42EF
:1007B000A2F2334202DC5242FFF702BDFFF7FBBE5A
:1007C000064C074D06E0E06840F0010394E807009E
:1007D00098471034AC42F6D3FFF78CFC005A00085F
:1007E000205A000830B58C1810F8012B12F00F03B6
:1007F00001D110F8013B120906D110F8012B03E0DA
:1008000010F8015B01F8015B5B1EF9D101E001F812
:10081000013B521EFBD1A142E6D3002030BDFEE7D2
:10082000704710B54FF4806000F0D6F8BDE8104076
:100830004FF4805000F0D0B8802000F0CDB872B6F0
:10084000FEE710B590F821100022022905D00421FE
:10085000816380F82020012010BD01680B6823F01F
:100860000E030B6001680B6823F001030B6090F826
:100870004030C46B012101FA03F3636080F821105A
:1008800080F82020104610BD10B590F821100024EB
:10089000022903D00421816301243DE001680A6834
:1008A00022F00E020A6001680A6822F001020A6062
:1008B0001A4A0168914201D1012121E0174A1432FC
:1008C000914201D110211BE0144A2832914201D1FA
:1008D000891515E0114A3C32914201D189140FE08B
:1008E0000E4A5032914202D14FF4803108E00B4A57
:1008F0006432914202D14FF4801101E04FF08071D7
:10090000064A083A5160012180F82110002180F840
:100910002010416B01B18847204610BD08000240FD
:1009200070B5044600F066F90546601C02D0044824
:100930000078044400F05EF9401BA042FAD370BD79
:100940000002002070B54FF48055A84224D1184809
:1009500000F0C6FE164C002021684862154E29465C
:10096000304600F035F90128F9D0114800F00CFFAD
:100970002068406AFFF796FD0F4A104BFFF709FD0C
:1009800000220F4BFFF705FD4FF0FF32FFF773FD1D
:100990000C4AC2E9000170BD8028FCD103F002FDC1
:1009A000014609480180BDE8704008A002F032BA53
:1009B0001C050020000801407F9F71E14048363F40
:1009C00000005940300000203800002025643D3DE3
:1009D0003D3DA1B700000000044910B50A6802427D
:1009E00002D00860FFF7AEFF10BD00001404014004
:1009F0002DE9F84FDFF8B8910024A9F1040B234644
:100A00000F2709F1040AABF1040EC9E00125A54046
:100A10002A40AA427DD1674ED1F804C0ACEB06084B
:100A2000B44532D014DCBCF1030F3AD009DCBCF180
:100A3000000F2AD0BCF1010F1CD0BCF1020F31D144
:100A40001DE0BCF1110F17D0BCF1120F2AD119E033
:100A5000B8F5881F19D006DCB8F5803F15D0B8F579
:100A6000801F1FD111E0B8F5001F0ED0B8F5041F8C
:100A700018D10AE0CB6815E0CB681B1D12E0CB68EB
:100A800008330FE0CB680C330CE08B682BB1012BE3
:100A90004FF0080303D0456104E0042302E0056140
:100AA00000E00023FF2A01D8064601E000F1040619
:100AB0004FEA840501D9A5F12005D6F8008007FA90
:100AC00005FC28EA0C0803FA05F548EA0508C6F80B
:100AD00000804D68ED0062D5374DAE6946F00106E5
:100AE000AE61AD6924F0030605F001050095334DB4
:100AF00006EB050CDCF80850A607360F07FA06F8D7
:100B000025EA0805DFF8B880404503D14FF000081A
:100B100017E044E0DFF8AC80404502D14FF0010817
:100B20000FE0DFF8A480404502D14FF0020808E052
:100B3000DFF89880404502D14FF0030801E04FF004
:100B4000040808FA06F848EA0508CCF808804D6859
:100B5000D9F80060ED024D4601D5164300E09643FA
:100B60002E604D68DAF80060AD02554601D5164397
:100B700000E096432E604D68DBF80060AD035D46F3
:100B800001D5164300E096432E604D68DEF8006004
:100B9000ED03754601D5164300E096432E60641CB4
:100BA0000D682A46E5407FF431AFBDE8F88F0000BC
:100BB0000804014000001110001002400000014034
:100BC00000080140000C01400010014000140140E9
:100BD0008068084000D001207047C26821EA020303
:100BE0000A4043EA0241016170470AB1016170475E
:100BF0000904FBE7014880687047000000020020FC
:100C000070B5040025D094F83D00002520B984F883
:100C10003C50204600F050F9242084F83D00206824
:100C2000016821F0010101602068016841F4004180
:100C300001602068016821F40041016000F0EAFAD7
:100C40004D4A6168914201D84C4900E04C498842C4
:100C500001D2012070BD4B492368B0FBF1F15E6801
:100C600026F03F060E435E606368934206D94FF458
:100C7000967359434FF47A73B1FBF3F12368491C1F
:100C80001E6A26F03F06314319626168914210D80E
:100C90004900401EB0FBF1F2521CC2F30B02042AC1
:100CA00001D2042022E0B0FBF1F0401CC0F30B00A5
:100CB0001CE0A268F2B301EBC10303EB0116431E73
:100CC000B3FBF6F35B1C43F480431B0549D092B39E
:100CD00001EBC10202EB0111401EB0FBF1F0401C20
:100CE000C0F30B0040F4804040F400402168CA6922
:100CF0004CF6FF739A431043C861D4E907100143CF
:100D00002068026822F0C00211430160D4E90301A7
:100D100001432068826848F2FF339A43114381609F
:100D2000D4E9050108432168CA6822F0FF02104394
:100D3000C86001E00EE016E02068016841F00101A2
:100D400001602564202084F83D00256384F83E502E
:100D5000002070BD01EB4106431EB3FBF6F35B1CA4
:100D6000B3E70120C2E701EB4101401EB0FBF1F007
:100D7000401CC0F30B00B7E7A086010080841E0072
:100D800000093D0040420F002DE9FF4F83B09A4615
:100D9000DDE9119793460446DDF84080FFF72AFF0E
:100DA000054694F83D0020287FD1192301224049AF
:100DB0002046009501F086FA002876D194F83C0090
:100DC000012872D0012084F83C0020680168C9071E
:100DD00003D1016841F0010101602068016821F43C
:100DE00000610160212084F83D00402084F83E002D
:100DF00000262664C4F82480A4F82A90608D2085FB
:100E00002C48E062CDE9007553465A4620460499C5
:100E100001F0D8F970B930E02A463946204601F091
:100E2000F7FA58B1206C042804D12068016841F415
:100E300000710160012007B0BDE8F08F606A216891
:100E400000780861606A401C6062218D491E89B289
:100E50002185628D521E628522685369DB435B07E0
:100E60000BD469B100781061606A401C6062208D0B
:100E7000401E2085608D401E6085208D0028CBD1CE
:100E80002A463946204601F0F1F90028CAD154F823
:100E90003D0B016841F400710160202004F81E0937
:100EA000E67766770020C6E7FFE70220C3E7000089
:100EB000020010000000FFFF10B586B00021009175
:100EC00001910291039100680F4988421AD10F4C99
:100ED000A06940F00800A061A069694600F0080020
:100EE0000490C02000901220019003200390084835
:100EF000FFF77EFDE06940F40010E061E06900F476
:100F00000010049006B010BD0054004000100240D4
:100F1000000C0140024881680278114481607047EA
:100F200000020020074810B5016841F0100101607F
:100F3000032000F0A7F80F2000F006F800F050F8AA
:100F4000002010BD0020024030B505461F4887B084
:100F5000C16941F00201C161C06906A900F0020047
:100F6000009001A800F036F90498B0B100F052F9F1
:100F700040001749174AB0FBF1F11748491E0260BB
:100F8000416040F2E7320021C0E9032181608161C4
:100F900000F04CFB040003D015E000F03BF9E8E75B
:100FA0000D4800F0C5FB04000DD11D2000F03CF8F9
:100FB000102D07D2002229461D2000F043F80748D3
:100FC000056000E0012407B0204630BD001002405B
:100FD00040420F00000400400407002004020020EB
:100FE0000F4808B5816941F001018161816901F013
:100FF00001010091C16941F08051C161C0690022C5
:1010000000F0805000900F21901E00F01BF8054862
:10101000416821F0E06141F00071416008BD0000CD
:101020000010024000000140002809DB00F01F0210
:10103000012191404009800000F1E020C0F800113A
:1010400070470000F0B40E4B1B680C46C3F302233C
:10105000C3F10705042D00D90425191D072901D264
:10106000002300E0DB1E012606FA05F1491E21409F
:1010700099409E40761E16403143F0BC01F0EEBE12
:101080000CED00E0064900F0070208684FF6FF0388
:10109000184040EA0220034A1043086070470000ED
:1010A0000CED00E00000FA052DE9F0470F460500C1
:1010B00061D0434E306800F00700B84209D2306872
:1010C00020F0070038433060306800F00700B84275
:1010D00051D128683B4C810712D5400703D5606881
:1010E00040F4E06060602878000703D5606840F451
:1010F000605060606068A96820F0F000084360609C
:101100002878C00728D06868012810D021680228F4
:1011100010D0890700292EDA616821F0030101430C
:101120006160FFF767FD804641F288390DE0216874
:101130008903EFE78901EDE7FFF75CFDA0EB08010C
:10114000494502D90320BDE8F0876068696800F06E
:101150000C00B0EB810FEFD1306800F00700B8420F
:101160000BD9306820F0070038433060306800F059
:101170000700B84201D00120E5E72878400705D5EF
:101180006068E96820F4E060084360602878000740
:1011900006D56068296920F4605040EAC1006060AB
:1011A00000F058F86168084AC1F30311515CC84067
:1011B0000649086006480068FFF7C6FE0020C2E73F
:1011C0000020024000100240DA5900080C02002002
:1011D000040200200F2202600C4A536803F003034C
:1011E0004360536803F0F0038360536803F4E063E3
:1011F000C36052684FF4E06303EAD202026104481C
:10120000006800F00700086070470000001002400E
:10121000002002400448054900684968044AC1F3B7
:101220000221515CC84070470C02002000100240AF
:10123000EA5900080448054900684968044AC1F3AE
:10124000C221515CC84070470C02002000100240CF
:10125000EA5900080E4A51680E4801F00C03042BAD
:1012600011D0082B0FD10C48C1F38343C903C05CD4
:101270000AD55168084AC1F34041921E515C054AA3
:101280005043B0FBF1F070470449484370470000F9
:101290000010024000127A00CA59000800093D00FF
:1012A0002DE9F84F040070D02078C04DC00749D018
:1012B0006868C0F38100012807D06868C0F3810026
:1012C000022809D16868C00306D52868800339D58B
:1012D00060680028E7D035E06068B0F5803F0BD04B
:1012E00010B1B0F5A02F11D0286820F4803028600C
:1012F000286820F4802002E0286840F480302860CC
:10130000606890B1FFF776FC06460AE0286840F472
:1013100080202860F0E700BFFFF76CFC801B64288A
:1013200073D828688003F7D50CE0FFF763FC064606
:1013300005E000BFFFF75EFC801B6428F0D828683A
:101340008003F7D420789A4E80074FF001094FF0C0
:10135000000839D5686810F00C0F07D06868C0F332
:101360008100022809D16868C00306D42868800774
:1013700014D52069012808D110E02069B0B1C6F861
:101380000090FFF737FC074605E00AE1FFF732FC63
:10139000C01B0228C4D828688007F7D5286861696F
:1013A00020F0F80040EAC10028600DE0C6F8008097
:1013B000FFF720FC074604E0FFF71CFCC01B0228D7
:1013C00023D828688007F7D4207800072CD57948DF
:1013D000A169D9B1C0F80090FFF70CFC074604E002
:1013E000FFF708FCC01B02280FD8686A8007F7D5F2
:1013F00071484FF4FA510068B0FBF1F0009000BF63
:101400000098411E0091FAD20EE080E0C0F8008002
:10141000FFF7F0FB074604E0FFF7ECFBC01B0228D8
:1014200075D8686A8007F7D42078400760D5E869E6
:101430000027C00008D4E86940F08050E861E869FE
:10144000012700F0805000905C480168C90513D462
:101450000168834641F480710160FFF7CBFB82464F
:1014600006E000BFFFF7C6FBA0EB0A0064284ED8D9
:10147000DBF80000C005F5D5E06801280AD008B106
:10148000052813D0286A20F001002862286A20F07D
:10149000040002E0286A40F001002862E06841F29E
:1014A000883B98B1FFF7A6FB82460BE0286A40F024
:1014B00004002862EEE700BFFFF79CFBA0EB0A01E7
:1014C00059455AD8286A8007F6D50CE0FFF792FBF9
:1014D000824605E0FFF78EFBA0EB0A0159454CD888
:1014E000286A8007F6D41FB1E86920F08050E861CF
:1014F000E06988B36968C1F38101022944D00228F8
:10150000C6F8608004D0FFF775FB044638E034E08D
:10151000FFF770FB074604E0FFF76CFBC01B0228D7
:101520002BD828688001F7D4206AB0F5803F05D118
:101530006868A16820F4003008436860D4E90801B5
:101540000843696821F4741108436860C6F8609024
:10155000FFF750FB044606E025E000BFFFF74AFB1B
:10156000001B022809D828688001F7D51BE000BFBE
:10157000FFF740FB001B022802D90320BDE8F88FCB
:1015800028688001F4D40EE00128F7D06868226A48
:1015900000F48031914204D1616A00F470108842F5
:1015A00001D00120EAE70020E8E700000010024037
:1015B00000004242800442420C02002000700040C1
:1015C0007047704770B590F83C20012A26D001245E
:1015D00080F83C40022280F83D2003685A689D68EC
:1015E00022F070060A6832435A600D4B02689A4234
:1015F00008D0B2F1804F05D00A4B9A4202D00A4B74
:101600009A4204D1496825F080031943916080F81B
:101610003D40002180F83C10084670BD022070BD9E
:10162000002C0140000400400008004010B50400F8
:1016300003D094F83D0010B107E0012010BD002058
:1016400084F83C00204600F01FF8022084F83D009A
:10165000211D206801F050F9012084F8460084F82B
:101660003E0084F83F0084F8400084F8410084F88C
:10167000420084F8430084F8440084F8450084F86C
:101680003D00002010BD000008B5124A0168124854
:10169000914207D1816941F400618161806900F460
:1016A000006014E0B1F1804F0AD00C4A91420FD192
:1016B000C16941F00401C161C06900F0040006E0A5
:1016C000C16941F00101C161C06900F001000090F1
:1016D00008BD0000002C014000100240000800403E
:1016E00090F83D10012901D001207047022180F8B7
:1016F0003D1000680B49884208D0B0F1804F05D0FA
:101700000949884202D00949884204D1816801F020
:101710000701062903D0016841F0010101600020A2
:1017200070470000002C0140000400400008004009
:1017300090F83D10012901D001207047022180F866
:101740003D100168CA6842F00102CA6000680B4996
:10175000884208D0B0F1804F05D00949884202D0B4
:101760000849884204D1816801F00701062903D0A5
:10177000016841F00101016000207047002C014028
:10178000000400400008004001680A6A41F2111399
:101790001A4207D10A6A9B101A4203D10A6822F042
:1017A00001020A60012180F83D100020704770B5E9
:1017B000044690F83C000025012817D0012684F843
:1017C0003C60022084F83D002068826822F07702A5
:1017D00022F47F4282600868502838D00DDC20282F
:1017E0004FD005DC90B3102811D14AE0022070BD23
:1017F000302846D040280AD13BE060282FD07028FE
:101800000DD0B0F5805F03D0B0F5005F12D0012598
:1018100084F83D60002084F83C00284670BDCB6809
:10182000D1E90121206801F0AAF82068816841F01F
:10183000770109E0CB68D1E90121206801F09FF828
:101840002068816841F480418160E1E719E0CA685D
:101850004968206801F048F95021206806E0CA680C
:101860004968206801F051F96021206801F091F881
:10187000CEE7CA684968206801F036F9402120683F
:10188000F4E7226801461046F0E7704770B5044659
:10189000006801694FF00005C943890715D4C16884
:1018A000C943890711D4E91E01610120207720680E
:1018B00080698007204602D0FFF7E7FF04E000F0D0
:1018C000D3F8204600F065F9257720680169C943FF
:1018D000490717D4C168C943490713D46FF00401FD
:1018E0000161022020772068806910F4407F204643
:1018F00002D0FFF7CAFF04E000F0B6F8204600F07F
:1019000048F9257720680169C943090716D4C168D9
:10191000C943090712D46FF0080101610420207740
:101920002068C0698007204602D0FFF7AEFF04E0C0
:1019300000F09AF8204600F02CF92577206801691C
:10194000C943C90617D4C168C943C90613D46FF087
:1019500010010161082020772068C06910F4407FE1
:10196000204602D0FFF791FF04E000F07DF820460A
:1019700000F00FF9257720680169C943C90708D12C
:10198000C168C943C90704D1891E0161204600F01E
:1019900087F920680169C943090609D4C168C943A8
:1019A000090605D46FF0800101612046FFF708FEAB
:1019B00020680169C943490609D4C168C943490679
:1019C00005D46FF040010161204600F073F92068F2
:1019D0000169C94389060BD4C168C943890607D484
:1019E0006FF0200101612046BDE87040FFF7E9BDBE
:1019F00070BD000000B585B00021009101910291F9
:101A00000391026814480221B2F1804F14D0134BA5
:101A10009A420FD1826942F0080282618069039183
:101A200000F0080004900802CDE9000169460C4866
:101A3000FEF7DEFF05B000BD826942F0040282615C
:101A40008069039100F0040004900320CDE90001B7
:101A500069460448ECE7000000100240000800401E
:101A6000000C014000080140704770B5044690F832
:101A70003C0000260D4601280FD0012084F83C00D0
:101A80006AB1042A1DD0082A2FD00C2A3FD0012683
:101A9000002084F83C00304670BD022070BD2068F4
:101AA00000F080FF2068816941F0080181612068B1
:101AB000816921F004018161206881692A691143EB
:101AC00011E0206800F096FF2068816941F4006110
:101AD00081612068816921F4806181612068816968
:101AE0002A6941EA02218161D2E7206800F0AEFF55
:101AF0002068C16941F00801C1612068C16921F015
:101B00000401C1612068C1692A69114311E020689C
:101B100000F0C8FF2068C16941F40061C16120681C
:101B2000C16921F48061C1612068C1692A6941EA03
:101B30000221C161ACE710B5040003D094F83D0068
:101B400010B107E0012010BD002084F83C002046C1
:101B500000F01EF8022084F83D00211D206800F0EE
:101B6000CBFE012084F8460084F83E0084F83F0054
:101B700084F8400084F8410084F8420084F843006F
:101B800084F8440084F8450084F83D00002010BD2E
:101B90007047704710B50446022249B104290ED09F
:101BA000082913D094F84100012816D0012010BD57
:101BB00094F83E000128F9D184F83E200FE094F813
:101BC0003F000128F2D184F83F2008E094F840005B
:101BD0000128EBD184F8402001E084F84120012263
:101BE000206800F0BFFE0F492068884203D1426C94
:101BF00042F4004242642068884208D0B0F1804F2D
:101C000005D00949884202D00849884204D1816838
:101C100001F00701062903D0016841F001010160CC
:101C2000002010BD002C01400004004000080040CE
:101C300030B504460D460068002200F093FE174BB5
:101C400041F2111120688A10984209D1036A0B42AF
:101C500006D1036A134203D1436C23F40043436467
:101C60002068036A0B4206D1016A114203D1016860
:101C700021F00101016001203DB1042D08D0082DA3
:101C800009D084F84100002030BD84F83E00FAE716
:101C900084F83F00F7E784F84000F4E7002C0140A7
:101CA00000680349884201D1FFF734B9704700004A
:101CB000000400407047704770470000F8B50168A5
:101CC00004460868CA684B6910F00F0F4FF0000512
:101CD00059D003F0010602F49077374365D0C1076D
:101CE00005D0D10503D5616C41F001016164410764
:101CF00005D5D90703D0616C41F002016164810709
:101D000005D5D90703D0616C41F004016164010776
:101D100007D502F02001314303D0616C41F0080186
:101D20006164616C00293AD0800604D5900602D522
:101D3000204600F052FF20684069616CC0F38010BB
:101D4000090700D460B3204600F020FF20684069F6
:101D5000400621D52068143050E8001F21F04001D2
:101D600040E80012002AF5D1E06BA8B16D4941634B
:101D7000E06BFEF789FD002811D0E06B416B01B0EC
:101D8000BDE8F040084783060FD593060DD52046E1
:101D9000BDE8F84000F021BF2046FFF78DFFF8BDF9
:101DA0002046FFF789FF6564F8BD266B2023012ECE
:101DB0007CD1C6067AD5D60678D5086848680090E2
:101DC00048694FF00206400640D5E16B086840685C
:101DD0000004000CE8D0A28D8242E5D9E085886934
:101DE00020282DD020680C3050E8001F21F480718D
:101DF00040E80012002AF5D12068143050E8001F96
:101E000021F0010140E80012002AF5D120681430C9
:101E100050E8001F21F0400140E80012002AF5D1EF
:101E200084F84230256320680C3050E8001F21F010
:101E3000100140E80012002AF5D1E06BFEF701FD29
:101E40006663A08DE18D401A81B22AE0A08DE18DFC
:101E5000401A81B2E08D0028A6D00029A4D02268C3
:101E60000C3252E8000F20F4907042E80007002F77
:101E7000F5D12068143050E8002F22F0010240E82C
:101E80000027002FF5D184F84230256320680C30FC
:101E900050E8002F22F0100240E80023002BF5D17B
:101EA00066632046FFF707FFF8BDFFE705062BD561
:101EB000150629D594F841002128F5D1A068B0F580
:101EC000805F01D12069B0B1206A411C2162216884
:101ED00000784860E08C401E0004000CE084E3D1F0
:101EE0002068C16821F08001C1602068C16841F0AC
:101EF0004001C160D8E7206A0088C0F3080048604C
:101F0000206A801C2062E5E74006CDD55006CBD57F
:101F1000CA68204622F04002CA6084F8413000F0CE
:101F200038F9C1E77D2B000870B5040004D094F89F
:101F30004100002510B106E0012070BD84F840503A
:101F4000204600F023F8242084F841002068C1686E
:101F500021F40051C160204600F0A0FE2068016914
:101F600021F4904101612068416921F02A01416119
:101F70002068C16841F40051C1606564202084F884
:101F8000410084F842006563002070BD30B585B023
:101F90000024009401940294039400681849884234
:101FA0002CD11848816941F480418161816901F433
:101FB00080410491816941F0040181618069124D81
:101FC00000F0040004904FF4007000900220019093
:101FD0000320039069462846FEF70AFD2815CDE93F
:101FE0000004694628460294FEF702FD00220521FE
:101FF0002520FFF727F82520FFF716F805B030BD9C
:1020000000380140001002400008014090F84230C2
:10201000202B01D00220704721B11AB100230363A5
:1020200000F098BE0120704770B5006829498842C9
:102030004FD1294C608801043FD4214642040978DD
:102040004FF000052DD50A2936D140F400406080BC
:1020500022A12348FEF7E8F8224EA0B122A1204891
:10206000FEF7E2F8B0B121A11D48FEF7DDF898B106
:102070001FA11B48FEF7D8F880B13570C821184859
:10208000FEF7C7F818E04FF480711A48FEF7A5FD77
:10209000042004E0012002E0022000E00320307070
:1020A000ECE70D2911D0C0F30D020D4B401C80B29E
:1020B00099546080C72800D96580BDE87040084801
:1020C00001220549C830FFF7A1BF40F4804060807D
:1020D000F3E770BD00380140F40100204D300000EE
:1020E000F4050020000000204D3100004D320000BA
:1020F0004D330000000C01402DE9F843044690F8F0
:1021000041001F4616460D46202802D00220BDE899
:10211000F8837DB176B100206064212084F841000D
:10212000FEF768FDA6848046E684A068B0F5805F6F
:1021300002D003E00120EAE7206910B12E46002515
:102140000EE000260CE08021204600F01EFEA0B923
:10215000AEB116F8010B21684860E08C401EE084A7
:10216000E08C43464FF0000200970028EBD14FF07F
:102170004001204600F009FE30B10320C7E735F8E2
:10218000020BC0F30800E6E7202084F8410000209D
:10219000BDE77047FEE701684A69D24352050FD494
:1021A0006FF480624A61002140F8301F20224273A0
:1021B0008173026942F004020261017301207047D9
:1021C000002070472DE9F843044600680D46DDE91C
:1021D000089701689846164641F4807101604B46A5
:1021E00000224FF001112046009700F06BF848B133
:1021F00020680068C00502D54FF4007020640320F9
:10220000BDE8F883216805F0FE0008613B464A46B8
:102210001549204600F09EF888B920684169806918
:1022200000903A464946204600F0F2F848B1206C4A
:10223000042804D12068016841F400710160012084
:10224000DEE7F5B2B8F1010F09D02168300A086164
:102250003A464946204600F0DBF80028E7D12068DE
:1022600005610020CCE700000200010070B51646B1
:102270000D4604461EE02046FFF78DFF08B1012001
:1022800070BD681C16D0FEF7B5FC801BA84200D8B4
:1022900085B920684069C04340070BD5002044F849
:1022A000300F20216173A073216941F02001216169
:1022B0002073E4E720684069C0434007DBD4002076
:1022C00070BD00002DE9F047984617460D460446BC
:1022D000C1F30746DDF820902AE000BFB8F1FF3FC8
:1022E00026D0FEF787FCA0EB0901414502D8B8F1E2
:1022F000000F1DD12068012E16D0806925EA00004C
:102300000004000C12D00020B84211D1002044F883
:10231000300F20216173A073216941F020012161F8
:1023200020730120BDE8F0874069E7E70120EBE773
:102330002068012E0AD0806925EA00000004000C04
:1023400006D00020B842C9D00020EBE74069F3E78F
:102350000120F7E72DE9F047984616460D4604465A
:102360004FF000094FF0200AC1F3074723E020682F
:102370004069C043400515D42068016841F40071EC
:10238000016021686FF480604861C4F8309084F87F
:102390003DA084F83E90216C41F00401216484F852
:1023A0003C9021E0701C06D0FEF724FCA0EB080056
:1023B000B04203D816B1012F1FD021E02068012FB1
:1023C00015D0806925EA00000004000C18D000BF79
:1023D00044F8309F84F80DA084F80E90216941F0F4
:1023E0002001216184F80C900120BDE8F08740694C
:1023F00025EA00000004000CEAD12068406901E0F1
:102400002068806925EA00000004000CAFD1ECE7E9
:1024100070B516460D4604461EE02046FFF7BBFE8B
:1024200008B1012070BD681C16D0FEF7E3FB801BCD
:10243000A84200D885B920684069C04300060BD582
:10244000002044F8300F20216173A073216941F00E
:10245000200121612073E4E720684069C043000641
:10246000DBD4002070BD000000B587B01C220649F7
:102470006846FDF7B5FE0021684601F019FF0349E3
:10248000086007B000BD0000AC590008F001002052
:102490002DE9F04385B000243E4800940194029455
:1024A0000394816941F020018161816901F020017B
:1024B0000491816941F004018161816901F00401A5
:1024C0000491816941F0080181618069DFF8C89059
:1024D00000F008004FF406650490002229464846A3
:1024E000FEF783FBDFF8B480002205214046FEF7AB
:1024F0007CFB0095022601250396CDE9015469462F
:102500004846FEF775FA264F8020CDE90007694658
:1025100002944846FEF76CFA0520CDE90005CDE9A6
:10252000024669464046FEF763FAA802CDE9000775
:10253000694602944046FEF75BFA43F63810CDE94F
:102540000004694640460294FEF752FA28030090C0
:102550001448CDE9010469464846FEF749FAE80304
:10256000CDE90004694648460294FEF741FA00228C
:1025700005211720FEF766FD1720FEF755FD002206
:1025800005212820FEF75EFD2820FEF74DFD05B051
:10259000BDE8F0830010024000080140000C01403B
:1025A00000002110000011100D4810B50B4901600A
:1025B0000C49416000214FF480428160C0E9031260
:1025C00041618161C1610162FEF71AFB002803D0FD
:1025D000BDE81040FEF733B910BD000000540040C4
:1025E000C8040020A086010010B586B00024184859
:1025F0000094019402940394049414490594016096
:102600004721C0E901144FF6FF71C0E9031480218E
:10261000C0E90541FFF70AF808B1FEF710F94FF4D9
:102620008050009069460A48FFF7C1F808B1FEF7EC
:1026300006F9049404A906480594FEF7C3FF002890
:1026400001D0FEF7FCF806B010BD0000002C0140E0
:102650001C05002010B58EB000240794089409943E
:102660000A940B941C2168460C94FDF7D2FD224875
:102670004FF0804101601121C0E901141321C0E92C
:10268000031480218161FEF7D1FF08B1FEF7D7F86E
:102690004FF48050079007A91748FFF788F808B152
:1026A000FEF7CDF81448FFF746FA08B1FEF7C7F871
:1026B0000B940BA910480C94FEF784FF08B1FEF7A9
:1026C000BEF86020CDE900040294002269460A4861
:1026D0000494FFF7CAF908B1FEF7B1F8042269467D
:1026E0000548FFF7C2F908B1FEF7A9F80248FFF75D
:1026F00081F90EB010BD00006405002010B58EB049
:1027000000240794089409940A940B941C216846A9
:102710000C94FDF77EFD1F481D49016041F61F41E5
:10272000C0E90114C721C0E9031480218161FEF7CB
:102730007DFF08B1FEF783F84FF48050079007A99A
:102740001448FFF734F808B1FEF779F81148FFF79D
:10275000F2F908B1FEF773F80B940BA90D480C942D
:10276000FEF730FF08B1FEF76AF86020CDE90004FB
:1027700002940C22694607480494FFF776F908B1E1
:10278000FEF75DF80348FFF735F90EB010BD000005
:1027900000080040AC0500200C4810B50A49016053
:1027A0004FF4E1314160002181600C22C160C0E939
:1027B00004128161C161FFF7B7FB002803D0BDE8B7
:1027C0001040FEF73CB810BD00380140BC060020A8
:1027D000FEE7FEE72DE9F0470C468046AE2101EB0F
:1027E00048001746C0B201F0CFFB04F00F0082464C
:1027F00001F0CAFB102000EB1410064601F0C4FBE8
:1028000015483D0100EB0714DFF85090A5F5007561
:1028100005E000BF19F8050001F0C8FB6D1CAC42D3
:10282000F8D8AF2101EB4800C0B201F0ADFB504633
:1028300001F0AAFB304601F0A7FB07484D460830DF
:1028400000EB071603E0285D01F0B0FB641CA64214
:10285000F9D8BDE8F087000008FEFFFFBC53000870
:1028600010B5502080F31188BFF34F8FBFF36F8FE7
:1028700002F0DEFC18B104494FF0805008600020DF
:1028800080F3118810BD000004ED00E030B58FB07A
:1028900028216846FDF7BDFC14210AA8FDF7B9FC04
:1028A00001210804CDE900100024029402250491BE
:1028B000CDE907504FF4E01009906846FEF7F0FCB0
:1028C00008B172B6FEE70F20CDE90A054FF480602B
:1028D000CDE90C4002210AA80E94FEF7E5FB002882
:1028E00001D072B6FEE70FB030BD70470148FEF769
:1028F000CDBF000004070020F0B50268164B174C4E
:10290000174D4FF08047984205D0B84203D0A042FF
:1029100001D0A84203D122F070064A68324398429F
:1029200005D0B84203D0A04201D0A84203D122F47E
:102930004074CA6822434C6922F08002224302603C
:102940008A68C2620A688262984201D10969016399
:1029500001214161F0BD0000002C01400004004055
:102960000008004010B501F01F030121046A9940DE
:102970008C430462016A9A401143016210BD10B594
:10298000846842EA032224F47F440A43224382609B
:1029900010BD826822F070020A4342F00701816094
:1029A0007047000030B5036A026A22F00102026239
:1029B0004268846924F073050C682C4323F00205F7
:1029C0008B682B430A4DA8420BD123F00805CB6836
:1029D00022F440722B434D6923F0040315438A69A6
:1029E0002A434260846149684163036230BD00004C
:1029F000002C014030B5026A036A23F01003036221
:102A0000436884690D6824F4E64444EA05248D682B
:102A100022F0200242EA05120B4DA8420ED1CD68E9
:102A200022F0800242EA05124D6923F4406343EA32
:102A300085038D6922F0400243EA85034360846187
:102A400049688163026230BD002C014030B5036AE1
:102A5000026A22F4807202624268C46923F400733D
:102A600024F073050C682C438D6843EA05230C4D54
:102A7000A8420ED1CD6823F4006343EA05234D69D3
:102A800022F4405242EA05128D6923F4806342EA3F
:102A900005124260C4614968C163036230BD000031
:102AA000002C014030B5046A026A22F480520262AE
:102AB0004268C3690D6823F4E64343EA05238D6841
:102AC00024F4005444EA0534064DA84204D14D696B
:102AD00022F4804242EA85124260C361496801647F
:102AE000046230BD002C014010B5036A046A24F072
:102AF00001040462846924F0F00444EA021423F01F
:102B00000A020A438461026210BD10B5036A046AB6
:102B100024F010040462846923F0A00324F47044B8
:102B200044EA023243EA01118261016210BD0000F1
:102B3000114C00BF01F07EF801F0EEFF207806286E
:102B400015D2DFE800F0120309060C0F02F0C4F8FA
:102B50000DE000F0C5FF0AE000F0EAFD07E001F03B
:102B600043F804E002F076F801E002F053F80A209E
:102B700001F092FBDEE700000000002010B5406A83
:102B80000021C185C184FFF797F810BD01680C31A1
:102B900051E8002F22F4907241E80023002BF5D178
:102BA0000168143151E8002F22F0010241E80023AE
:102BB000002BF5D1016B012909D101680C3151E8D5
:102BC000002F22F0100241E80023002BF5D1202134
:102BD00080F8421000210163704708B590F8421058
:102BE000222901D0022008BD82684FF480539A4206
:102BF00001D1016921B1816A9A421BD04AB10AE030
:102C00000268816A5268C2F308020A80816A891CDC
:102C100008E0026972B10268526802F07F020A702D
:102C2000816A491C8162C18D491E0904090CC18554
:102C300003D01BE002685268F1E70168CA6822F01D
:102C40002002CA600168CA6822F48072CA60016802
:102C50004A6922F001024A61202180F842100021D5
:102C60004163026B012A03D0FFF7DEF9002008BDA3
:102C7000016301680C3151E8002F22F0100241E895
:102C80000023002BF5D101680A68D20602D50A6834
:102C900049680091818DFFF70EF8E7E770B50446AB
:102CA00000680169E26821F4405111430161216922
:102CB000A0680843616908432168CA6841F20C634F
:102CC0009A430243CA6020684169A26921F44071B5
:102CD000114341611E492068884202D1FEF7AAFAD9
:102CE00001E0FEF797FA00EBC00101EB001260680B
:102CF00064218000B2FBF0F3B3FBF1F36FF0180630
:102D00007343B2FBF0F5B2FBF0F605EB830532231B
:102D100003EB0515B5FBF1F5B6FBF1F605F0F00593
:102D200005EB0615B2FBF0F6B2FBF0F0B0FBF1F0EC
:102D30006FF01802504306EB800003EB0010B0FB6D
:102D4000F1F0216800F00F002844886070BD000099
:102D50000038014081628285C285002141642221C0
:102D600080F84210016921B10168CA6842F480729A
:102D7000CA6001684A6942F001024A610068C1689C
:102D800041F02001C160002070472DE9F0419846D4
:102D900017460E460446069D27E0681C25D02DB137
:102DA000FDF728FFA0EB0800A8421ED920680C30D0
:102DB00050E8001F21F4D07140E80012002AF5D13C
:102DC0002068143050E8001F21F0010140E8001293
:102DD000002AF5D1202084F8410084F84200002028
:102DE00084F840000320BDE8F0812068006836EADE
:102DF000000004D00020B842CFD00020F3E701202B
:102E0000F9E700000148FEF759BF0000BC060020AA
:102E1000FEE700000FB4054B10B503A9044A029861
:102E200000F0FEF810BC5DF814FB0000C93B000880
:102E3000700200200FB4084B10B504A902AA039831
:102E400000F0EEF8044602A9002000F06CFC2046D9
:102E500010BC5DF814FB0000273700080907090EB5
:102E6000002804DB00F1E02080F80014704700F037
:102E70000F0000F1E02080F8141D704702E008C840
:102E8000121F08C1002AFAD170477047002001E0E4
:102E900001C1121F002AFBD1704700002DE9FF5F1E
:102EA00082B00021DDE90430020DDDF840B00343BB
:102EB00018D044F61050A2F2FF3242431514119874
:102EC00001281FD0A5EB0B00401C5FEA000A4FF061
:102ED00000064E4FDFF83891B046504615D5CAF17E
:102EE000000413E0119801244AA3012801D16FEADC
:102EF0000B010298119AC0E90031C0E9024206B004
:102F0000BDE8F09FCBF10000DFE704460021404A16
:102F1000491842EB0450CDE9001012E0E00707D059
:102F200032463B4640464946FDF733FA80468946DD
:102F300032463B4610461946FDF72BFA06460F4629
:102F40006410002CEAD1DDE90401DDE90023BAF1C7
:102F5000000F06DAFDF71DFA42464B46FDF719FA57
:102F600005E0FDF7A6FB42464B46FDF7A2FB0446F3
:102F70000E460022284BFDF7BFFA03D84FF0FF3072
:102F8000014607E00022254B20463146FDF75AF95D
:102F9000FDF7FEFB102409E0002C0ADB0A220023C7
:102FA000FDF7D8FA039B30321A55641E50EA01022D
:102FB000F2D1641C039AC4F111031444119A012A3A
:102FC00003D0012208430DD10AE0084304D00020B9
:102FD0004FF0110B119072E7A3EB0B056D1E0DE086
:102FE0005B4504DD4FF0000205F1010504E003DA62
:102FF0004FF00002A5F10105002AECD002981199CA
:10300000C0E90231C0E9004579E700000000144042
:103010000000F03F300000000000F0430000E03FFF
:103020002DE9FF4F95B09A46884606460025EEE109
:10303000252877D100242746F94A0121039400E08E
:10304000044316F8013F203B01FA03F01042F7D188
:1030500030782A2811D06FF02F033078A0F1300299
:10306000092A16D8039A44F0020402EB820203EB09
:1030700042021044761C0390EFE758F8042B0392A9
:10308000002A03DA504244F40054039044F002044E
:10309000761C30782E2816D116F8010F44F004045F
:1030A0002A280DD06FF02F023078A0F13003092BC1
:1030B00009D807EB870302EB4303C718761CF3E735
:1030C00058F8047B761C30786C280FD006DC4C282E
:1030D00017D068280DD06A2814D104E0742810D0C5
:1030E0007A280FD10DE044F400140AE044F480146F
:1030F00001E044F440147278824202D104F5801455
:10310000761C761C307866280BD013DC582877D0D4
:1031100009DC002875D04528F6D04628F4D0472889
:103120001AD193E118E0632835D0642879D0652856
:1031300012D18BE1702873D008DC6728F1D06928A0
:103140006FD06E280DD06F2806D1ACE073282CD03C
:10315000752874D0782853D05246179990476D1C23
:1031600054E1C4F30250022809D003280DD0D8F846
:10317000001004280DD00D6008F1040846E1D8F8CD
:103180000010EA17C1E90052F6E7D8F800100D80E8
:10319000F2E70D70F0E718F8041B8DF8001000201E
:1031A0008DF80100EB46012003E058F804BB4FF016
:1031B000FF3061074FF0000102D40DE009F1010179
:1031C0008946B9420FDA8145F8DB1BF8091000295E
:1031D000F4D108E009F1010189468142FADB1BF8CC
:1031E00009100029F6D103985346A0EB09072146A0
:1031F0003846179A00F080FA284400EB090507E0EA
:1032000044E008E10DE01BF8010B52461799904786
:10321000B9F10109F7D2534621463846179AF2E030
:1032200039E00A21C4F302524FF0000B0091022A48
:1032300006D058F8040BC117032A09D00AE023E08E
:1032400008F1070020F00702F2E80201904605E0CD
:1032500000B2C117042A01D140B2C117002906DA11
:103260000A460021404261EB02012D2202E02205C4
:1032700004D52B228DF80420012203E0E20701D0BF
:103280002022F7E7914657E00A2100E010214FF095
:10329000000B00910BE010214FF0000B44F00404F0
:1032A0000827009103E008204FF0000B0090C4F3C2
:1032B0000252022A05D058F8040B0021032A08D034
:1032C00008E008F1070020F00702F2E8020190464A
:1032D00003E080B2042A00D1C0B24FF000092207F7
:1032E0002AD53278702A07D0DDF800C08CF0100C97
:1032F0005CEA0B0C05D00EE040228DF80420012280
:1033000008E050EA010306D030238DF804308DF830
:10331000052002229146009B83F0080353EA0B0329
:103320000AD150EA010201D1620705D530228DF899
:1033300004204FF001097F1E3278582A04D039A2A8
:103340000C920CAA02920BE03BA2F9E75B46009AB2
:10335000FDF700F90C9B9B5C029A521E02921370BF
:1033600050EA0102F2D1029804A9081A00F1200BD8
:10337000600702D524F4803400E001275F4502DDB8
:10338000A7EB0B0000E0002000EB0B01009003987E
:103390004944401A0390E00306D453462146179A45
:1033A000039800F0A9F90544002706E001A8524659
:1033B000C05D179990476D1C7F1C4F45F6DBE003FD
:1033C0000CD553462146179A039800F095F9054409
:1033D00004E030205246179990476D1C0099481E12
:1033E00000900029F5DC08E0029802995246007826
:1033F000491C0291179990476D1CBBF10001ABF17C
:10340000010BF1DC5BE100F065F90544761C3078D6
:1034100000287FF40DAE19B02846BDE8F08F0000FB
:10342000092801003031323334353637383961629A
:10343000636465660000000030313233343536375E
:10344000383941424344454600000000600700D43B
:10345000062708F1070020F00700F0E80223804665
:1034600003F0004C5FEA0C0001D097A009E02005B2
:1034700001D596A005E0E00701D095A001E0AFF2EC
:103480004C001390307823F0004365280CD006DC04
:10349000452809D046281DD047287FD13BE0662823
:1034A00018D067287AD136E00021112F01DB1120D6
:1034B00000E0781CCDE9000104A90CA8FFF7EEFCA0
:1034C000DDE90D010C9A4FF0000B07F10109109294
:1034D00000914EE04FF000400097CDE9011004A9A3
:1034E0000CA8FFF7DBFCDDE90D020C9B0F994FF0F8
:1034F000000B91461093009211B9791C00EB010961
:10350000B7EB090003D4C0F1FF3B07F10109A9EBB8
:103510000700019042E0012F00DA01270021112F5E
:1035200001DD112000E03846CDE9000104A90CA816
:10353000FFF7B4FCDDE90D010C9A00914FF0000B90
:10354000B946109221070FD4009A4A4503DA9146F2
:1035500001E0A9F10109B9F1010F05DD109AA9F106
:103560000101515C3029F4D0B84202DA10F1040FA5
:1035700003DA0121CDE9011010E0002803DC8344C7
:10358000A9EB000102E0411C494500DD8946A0EBA2
:103590000B00401C01904FF000400290200705D422
:1035A0000198484502DB4FF0FF30019000208DF874
:1035B0004B0002980DF14B07B0F1004F25D00220CF
:1035C0000C902B200D90029800280CDA40420290BB
:1035D0002D200D9007E00A210298FCF7A5FF30315D
:1035E000029007F8011D0C99481E0C900029F2DC8E
:1035F00002980028EFD1791E0D980870307800F0FD
:10360000200040F0450007F8020D11A8C01BC01DA6
:1036100002901398007800B1012000EB0901019895
:1036200001EBE071029801440398401A401E039098
:10363000E00306D453462146179A039800F05CF83D
:1036400005441398007818B15246179990476D1C9D
:10365000E00323D553462146179A039800F04CF80F
:1036600005441BE0BBF1000F07DB0098584504DD63
:103670001098179910F80B0001E017993020524666
:10368000904701980BF1010B401E05F101050190D7
:1036900004D12E205246179990476D1CB9F10001B4
:1036A000A9F10109DEDC05E017F8010B5246179974
:1036B00090476D1C0299481E02900029F4DC534685
:1036C0002146179A03989EE62D0000002B0000006B
:1036D000200000002DE9F041044600251E46174653
:1036E000880404D405E039462020B0476D1C641ED0
:1036F000F9D52846BDE8F0812DE9F04104460025C2
:103700001E469046C80301D5302700E020278804D4
:1037100004D505E041463846B0476D1C641EF9D516
:103720002846BDE8F0810A68531C0B601070704792
:103730002DE9F0476D486E4C0078617888420ED0D4
:103740006070002000F01EF900F036FD69A2022131
:10375000012000F091FD4FF4FA70FDF7E1F82078B8
:103760004FF4967830B10020207001F057FB4046AE
:10377000FDF7D6F8634D0020C5E9000001F0F6FA28
:10378000614EDFF88891D5E9000100221346FCF76D
:103790009BFEF8D0D5E90001B2463346002206462A
:1037A0000F46FCF7F0FDC4E9040132463B4658A041
:1037B000FFF730FBD4E904010022584BFCF79CFED4
:1037C00003D2BDE8F04700F0D3B9D4E904010022E8
:1037D0004B46FCF779FE03D2BDE8F04700F0AEB8E7
:1037E00001F0ECF901F012FB4046FDF799F80020DA
:1037F000C5E9000001F0BAFAD5E90001002213463C
:10380000FCF762FEF8D0D5E90001002253460646D7
:103810000F46FCF7B8FDC4E9020132463B4640A022
:10382000FFF7F8FA01F0FAFA46464046FDF778F855
:103830000020C5E9000001F099FA3C4FD5E90001EC
:1038400000221346FCF740FEF8D0D5E90001002223
:103850003B46FCF798FD00224B46C4E90401FCF707
:1038600033FE01D200F06AF801F0C8FA022020709D
:103870003046FDF755F80020C5E9000001F076FA62
:10388000D5E9000100221346FCF71EFEF8D0D5E969
:10389000000100223B4605460E46FCF774FDC4E9D4
:1038A00006012A46334622A0FFF7B4FAD4E9020102
:1038B000D4E90623FCF708FE06D201F045F996206C
:1038C000FDF72EF801F07AF9D4E90201D4E90623D4
:1038D000FCF712FE08D200F0F5FB9620FDF720F869
:1038E000BDE8F04701F06AB9BDE8F08700000020AC
:1038F000080000206D6F6465203A2061766F69646E
:10390000000000003000002000000C4000002440B7
:1039100066726F6E743A25660D0A000000804140A1
:103920006C6566743A25660D0A00000000001C40B4
:1039300072696768743A25660D0A000070B50E4812
:103940000078002817D10D4C012204212046FDF7F4
:103950004CF90B4D002201212846FDF746F90122C2
:1039600011462046FDF741F92846BDE87040002287
:103970000221FDF73AB970BD28000020000C01407B
:10398000000801400F4910B5087078B1FEF762FEDB
:1039900000210D48FEF7FEF804210B48FEF7FAF867
:1039A000BDE810404FF4FA70FCF7BABF002106489A
:1039B000FEF73EF904210448FEF73AF9BDE810404D
:1039C00000F04CBB280000206405002071B54FF4C6
:1039D00061754FF0E023104E009819E02C46A0428C
:1039E00000D804469869614201EBC10110EBC101A6
:1039F00005D49A69824208DA8A42FADA05E08A191D
:103A000099698142FCDD9142FADC0098001B00902C
:103A10000028E3D178BD00004019010000B585B051
:103A2000002102910A498A6942F004028A61896987
:103A300001F0040104914FF48071CDE900100220DF
:103A4000039069460348FCF7D3FF05B000BD0000B2
:103A500000100240000801401FB5164800780028F9
:103A600026D11549486001F095F901F01BF8802333
:103A700038220821042000F075FB104C10A1684684
:103A8000E378A278FFF7D6F96A460221032000F016
:103A9000F3FB637822780EA16846FFF7CBF96A46FC
:103AA0000221042000F0E8FB4FF4FA70FCF738FF25
:103AB0001FBD00000000002008000020F8010020C9
:103AC00054656D70203A2025642E25642043000043
:103AD00048756D69203A2025642E2564202525002F
:103AE0001D4810B501781D48427891420DD04170B3
:103AF0000020FFF747FF00F05FFB19A20221012021
:103B000000F0BAFB6420FCF70BFF00F0CFFA20B9FD
:103B100001F00CF808B900F02BF800F0C7FA28B94A
:103B200001F004F8012801D100F0CCFA00F0BEFA4F
:103B3000012804D100F0FAFF08B901F005F800F0FF
:103B4000B5FA012807D100F0F1FF012803D1BDE843
:103B5000104001F033B810BD000000200800002024
:103B60006D6F6465203A20666F6C6C6F77000000A3
:103B700070B51148007838B110480A2102685163C5
:103B800000680D21816370BD0D4C00220421204688
:103B9000FDF72BF80B4D012211462846FDF725F8BD
:103BA000002201212046FDF720F82846BDE870409C
:103BB00001220221FDF719B8280000206405002029
:103BC000000C01400008014038B504468DF80000A3
:103BD00040F6FF73012269460248FEF78DFA20463F
:103BE00038BD0000BC0600200C4810B501780C4818
:103BF000427891420ED041700020FFF7C3FE00F0E2
:103C0000DBFA08A20221012000F036FB4FF4FA7023
:103C1000FCF786FEBDE8104000F074BB00000020F9
:103C2000080000206D6F6465203A20676573747525
:103C3000726500002DE9F0413B4C4FF400663146BF
:103C40002046FCF7C5FF394DA7144FF4005860B962
:103C500039462046FCF7BCFF012806D141462046E4
:103C6000FCF7B6FF012800D1287031462046FCF74A
:103C7000AFFF01280CD139462046FCF7A9FF38B91F
:103C800041462046FCF7A4FF012801D103202870FB
:103C900031462046FCF79CFF01280CD139462046CE
:103CA000FCF796FF012806D141462046FCF790FF1D
:103CB00008B90220287031462046FCF789FF60B918
:103CC00039462046FCF784FF38B941462046FCF7C8
:103CD0007FFF012801D10420287031462046FCF7DF
:103CE00077FF60B939462046FCF772FF012806D1FC
:103CF00041462046FCF76CFF08B905202870314684
:103D00002046FCF765FF58B939462046FCF760FFAE
:103D100030B941462046FCF75BFF08B90020287007
:103D20002878BDE8F0810000000C01400000002070
:103D300001B502E00820401EFDD20098411E00910E
:103D4000F8D208BDF0B51D4616460F46044600F0F1
:103D5000A9F86006000E00F07DF800F0CBF801280D
:103D600015D0384600F076F800F0C4F8012812D0DB
:103D700000F098F8012000EB4400C0B200F06AF8AF
:103D800000F0B8F801280AD000246F1E18E000F0F7
:103D90009DF80120F0BD00F099F80220F0BD00F080
:103DA00095F80320F0BD00BF00F010F83055BC427C
:103DB00001D1012000E0002000F02CF8641CA4B226
:103DC000AC42F1D300F082F80020F0BD2DE9F041C3
:103DD00000220F4D20260E4F144608354FF40018D0
:103DE0005006020E2E600120FFF7A2FF3868400641
:103DF00001D5521CD2B2C5F800800120FFF798FF10
:103E0000641CE4B2082CEBD31046BDE8F08100003E
:103E10000808014030B50E4A4FF4001405461460FE
:103E20000120FFF785FF0DB1402001E04FF4800035
:103E300010600120FFF77CFF202010600120FFF7B9
:103E400077FF1460BDE830400120FFF771BF00002C
:103E5000100801402DE9F0430024114A05464FF0B7
:103E600040084FF480094FF40016202716602806FA
:103E700001D5404600E0484610600120FFF758FF9A
:103E800017600120FFF754FF16600120FFF750FF75
:103E90006806641C050EE4B2082CE7D3BDE8F08385
:103EA00010080140084A00B5402010602020106032
:103EB0000120FFF73DFF4FF48000106001205DF806
:103EC00004EBFFF735BF000010080140084A00B5B9
:103ED0004FF480001060202010600120FFF728FFC1
:103EE0004020106001205DF804EBFFF721BF0000C7
:103EF0001008014010B5094C202020600120FFF778
:103F000017FF064808380068C0F380124FF400100D
:103F100020600120FFF70CFF104610BD1008014083
:103F2000F0B51D4616460F460446FFF7BBFF600678
:103F3000000EFFF78FFFFFF7DDFF012808D038469E
:103F4000FFF788FFFFF7D6FF012805D0002410E017
:103F5000FFF7BCFF0120F0BDFFF7B8FF0220F0BD66
:103F6000305DFFF777FFFFF7C5FF012807D0641C1E
:103F7000A4B2AC42F4D3FFF7A9FF0020F0BDFFF7D5
:103F8000A5FF0320F0BD000001B584B00121FF2290
:103F900004A88DE807000B46002278210248FCF7B0
:103FA000F3FE05B000BD0000C804002001B584B0D8
:103FB0000121FF2204A88DE807000B46402278214A
:103FC0000248FCF7E1FE05B000BD0000C804002077
:103FD00010B5012213491448FEF718F800F0E0FD6F
:103FE0006420FCF79DFC00F0EBF96420FCF798FCE2
:103FF00000F0EEF800F0E6F80CA20221012000F03B
:104000003BF902210CA2084600F036F90DA202216C
:10401000032000F031F90221BDE810400CA2042079
:1040200000F02AB9F4010020BC0600206D6F646521
:10403000203A2073746F700073706565643A202DA8
:104040002D2D2D0054656D70203A2D2D2E2D2D0017
:1040500048756D69203A2D2D2E2D2D0030B585B077
:10406000002410480094019402940394816941F063
:104070000401816180690C4D00F004000490224627
:1040800003212846FCF7B1FD032000900120CDE973
:1040900001040220039069462846FCF7A9FC05B0FC
:1040A00030BD0000001002400008014020210148FE
:1040B000FCF78EBD000C014008210148FCF788BDCB
:1040C000000C014070B51148007838B1104801214A
:1040D0000268516300680D21816370BD0D4C0022A0
:1040E00004212046FCF781FD0B4D01221146284694
:1040F000FCF77BFD002201212046FCF776FD2846D7
:10410000BDE8704000220221FCF76FBD28000020AE
:1041100064050020000C014000080140FCF702FF8C
:10412000FEF7B4FBFEF7B4F9FEF736FBFEF792FAA2
:10413000FEF73AFAFEF758FAFEF7E0FA04A0FEF7A7
:1041400069FEFFF745FFFEF78FF900F0ACF8FEE7D8
:104150004F4B0D0A0000000001460020842900D0CA
:10416000C81C70472DE9F04704461F46164689468D
:104170002020FFF709FF0220FFF706FF102000EBC9
:10418000161806F00F0A13E004F1B000C0B2FFF7F2
:10419000FBFE5046FFF7F8FE4046FFF7F5FE3546BA
:1041A00003E00020FFF702FF6D1CBD42F9DB641C39
:1041B0004C45E9DBBDE8F087002280230221104650
:1041C000FFF7D0BF0022802308211046FFF7CABFA7
:1041D00010B5AE20FFF7D8FE0020FFF7D5FE102067
:1041E000FFF7D2FE4020FFF7CFFEB020FFF7CCFE56
:1041F0008120FFF7C9FEFF20FFF7C6FEA120FFF7D1
:10420000C3FEA620FFF7C0FEA820FFF7BDFE3F209B
:10421000FFF7BAFEC820FFF7B7FED320FFF7B4FEC2
:104220000020FFF7B1FED520FFF7AEFE8020FFF79C
:10423000ABFED820FFF7A8FE0520FFF7A5FED9208A
:10424000FFF7A2FEF120FFF79FFEDA20FFF79CFEAA
:104250001220FFF799FEDB20FFF796FE3020FFF7D4
:1042600093FE8D20FFF790FE1420FFF78DFEBDE832
:104270001040AF20FFF788BE70B514460D460646C5
:1042800006E029463046FEF7A5FA0835EDB2641C73
:104290002278002AF5D170BD10B500B9012000F0D8
:1042A00089FE002010BD10B500F0AAFE002010BD50
:1042B0007FB50D4604464169B0F9080081B1A16996
:1042C00071B1FFF749FFD4E905128DE80700D4E981
:1042D00000102B46226900F080FF039004B070BDEF
:1042E000FFF73AFF03A9CDE90001208A2B4682B2ED
:1042F000D4E9001000F044FF012801D00020EDE7D0
:104300000398EBE71648008810281CD008DC092821
:104310000FD2DFE800F02210120E140E0E0E16005F
:10432000202812D0402812D0802812D0B0F5807FEB
:1043300011D000F02FB800F0DDB800F013B800F095
:1043400051B800F091B800F077B800F06DB800F007
:10435000AFB800F0A1B800F0E5B800F05BB800001D
:104360003800002010B508A0FEF754FDFFF7E6FA6C
:104370000749002008804FF4FA70FCF7D1FABDE835
:10438000104000F01BBC0000646F776E0D0A000047
:104390003800002001A0FEF73DBD00006572726F7D
:1043A000720D0A0008B50020009002236A464321DE
:1043B0007320FFF7C7FC002801D1BDF8000008BD3D
:1043C00010B500F0B7F800F031F900F0E1F801465F
:1043D000BDE8104001A0FEF71DBD00003D3D3D259C
:1043E000640D0A0010B508A0FEF714FD00F0ACFB48
:1043F0000749002008804FF4FA70FCF791FABDE8F5
:10440000104000F0DBBB00006C6566740D0A000014
:104410003800002001A0FEF7FDBC00006E6F74683C
:10442000696E670D0A00000001A0FEF7F3BC0000F2
:10443000706F700D0A00000010B508A0FEF7EAFCCE
:10444000FFF77CFA0749002008804FF4FA70FCF768
:1044500067FABDE8104000F0B1BB000070757368EA
:104460000D0A00003800002010B508A0FEF7D2FCAD
:10447000FFF728FE0749002008804FF4FA70FCF788
:104480004FFABDE8104000F099BB00007269676800
:10449000740D0A003800002001A0FEF7BBBC00002C
:1044A000726F74617465206C6566740D0A0000009B
:1044B00001A0FEF7AFBC0000726F746174652072DA
:1044C000696768740D0A000031B59DF8000020B1DD
:1044D000012802D0FF24204638BD01236A46EF217F
:1044E0007320FFF71DFD04464FF49670FFF720FC84
:1044F000F1E7000010B508A0FEF78CFCFFF738FBD1
:104500000749002008804FF4FA70FCF709FABDE86B
:10451000104000F053BB000075700D0A0000000051
:104520003800002001A0FEF775BC000077617665B9
:104530000D0A000010B586B0002002901248816973
:1045400041F0040181618069104C00F00400049086
:1045500020200090112001900320039069462046FE
:10456000FCF746FA4020009069462046FCF740FAE6
:10457000012220212046FCF738FB01224021204661
:10458000FCF733FB06B010BD0010024000080140EC
:1045900038B500208DF8000004464FF42F70FFF767
:1045A000C7FB0020FFF790FF01461CA0FEF732FC7E
:1045B00001236A4600217320FFF7C4FB002804D1C1
:1045C0009DF80000202801D0FF2038BD01236A4655
:1045D00019467320FFF7B6FB0028F6D19DF80000BE
:1045E000762801D0FE2038BD0F4D00BF05EB4402F8
:1045F00015F8141001237320521CFFF791FC0028BA
:10460000F1D1641CA4B2DB2CF0D30120FFF75CFFD6
:104610000020FFF759FF002038BD000072746E3A89
:104620003D3D3D25640D0A003A0000200A4800B5D2
:10463000816985B041F0080181618069694600F0B7
:104640000800049080200090044801900448FCF782
:10465000CFF905B000BD000000100240000021109D
:10466000000801402DE9F041184C0F4605466669E7
:104670002068001D00F0DAFB38B9206890F82C1093
:1046800001208840A1698143A161681C07D137B12D
:104690002168BDE8F0410E48091D00F00BBC206800
:1046A0003544B5424560216805D2A068BDE8F041B7
:1046B000091D00F0E7BB6068091D00F0E3FB206BFB
:1046C000854200D22563BDE8F08100001002002081
:1046D000280800202DE9F041054600F0F7FB2E4C9C
:1046E0002069401C206120682C4F10B1E06940B364
:1046F0002DE025602069012829D1002606EB8600DF
:1047000007EB800000F0B0FB761C072EF6D32348A1
:104710008C3000F0A9FB2148A03000F0A5FB1F4819
:10472000B43000F0A1FB1D48C83000F09DFB1B48D1
:10473000DC3000F099FB19488C3060601430A060C8
:1047400005E02068E96AC06A884200D82560E06A0E
:10475000401CE062E96A0120A26988401043A06120
:1047600001EB810007EB8000291D00F0A3FB00F0A6
:10477000CDFBE06900280CD02068E96AC06A884255
:1047800007D207494FF080500860BFF34F8FBFF347
:104790006F8FBDE8F0810000100200204C07002060
:1047A00004ED00E010B5044690F8510058B101281E
:1047B0000CD002280FD0502080F31188BFF34F8F08
:1047C000BFF36F8FFEE7206B00F0B4FB2046BDE81F
:1047D000104000F0AFBB10BD10484FF440614207DD
:1047E00006D0C01D0D4920F00700411AC1F54061F7
:1047F0000B4A00230144C2E900030839103A21F0B2
:10480000070111604B600B600B1AC0E90013936045
:104810004FF000405360D060704700003C0800201B
:104820005C020020144E154CA6F1C8074FF08058CA
:10483000DFF84C9012E000BF00F048FBF068C5685C
:10484000281D00F0F3FA2069401E2061E068401E38
:10485000E06000F05BFB2846FFF7A4FFE06800285B
:10486000EAD138680128F9D9C9F80080BFF34F8F21
:10487000BFF36F8FF2E70000140800201002002041
:1048800004ED00E02DE9F0479A46DDE90984814610
:104890006FF00303206B03EB82021044089D20F0AD
:1048A0000706700707D0502080F31188BFF34F8FA1
:1048B000BFF36F8FFEE723180A5C83F834200A5C8D
:1048C00012B1401C1028F6D3002784F84370072D3E
:1048D00000D30625E562C4E91157201D00F0CFFA88
:1048E00004F1180000F0CBFA2461C5F107006462FE
:1048F000A061E76484F8507052464946304600F0A3
:10490000BFF82060B8F1000F01D0C8F80040BDE842
:10491000F087000030B5114900E011460A68824274
:10492000FBD34B685C18844203D14068184448604C
:10493000084643681C18944209D1084C103C24686E
:10494000A24209D052681A4442600A6812680260A2
:10495000814200D0086030BD0460F9E75C020020AD
:1049600006484168096829B14168C968C968496849
:10497000016370474FF0FF31FAE70000100200209A
:1049800008484068401C4FF0500080F3118804D064
:10499000BFF34F8FBFF36F8FFEE7BFF34F8FBFF3B0
:1049A0006F8FFEE7640200202DE9F04105460027E5
:1049B00000F05CFB314E306808B9FFF70DFFF0687E
:1049C00005424BD1C5B3083568070ED005F0070086
:1049D000C0F108000544680707D0502080F3118813
:1049E000BFF34F8FBFF36F8FFEE72DB37068854223
:1049F00034D82248103001460C6801E020460C46AD
:104A00006168A94202D221680029F7D131688C423D
:104A100024D007682168016060680837411B1029AD
:104A20000FD96019420708D0502080F31188BFF3D6
:104A30004F8FBFF36F8FFEE710E041606560FFF7B7
:104A400069FF61687068401A7060B268904200D275
:104A5000B060F06801430020C4E9000100F04CFCA4
:104A6000780707D0502080F31188BFF34F8FBFF332
:104A70006F8FFEE73846BDE8F08100004C02002051
:104A800010B5031F4FF080741C601B1F21F0010143
:104A90001960191F024B0B60143940380A6010BDB1
:104AA000814900082DE9F0470020FEF7B7FFDFF845
:104AB0006080DFF860A000244FF4807900254F4625
:104AC00049464046FCF784F80028F8D02820FEF735
:104AD0007DFFB94639464046FCF77AF801280ED0EA
:104AE0005FF0000707EB46006D1CC6B2082DE6DB41
:104AF0000AF80460641C052CE0DBBDE8F0870127A0
:104B000049464046FCF764F80028F9D1EAE700007E
:104B100000080140F801002003480078012801D076
:104B200000F07CB970470000000000204FF4004105
:104B30000148FCF74DB80000000801401021014871
:104B4000FCF746B8000C014070B51148007838B148
:104B500010480D210268516300680121816370BD16
:104B60000D4C002204212046FCF73FF80B4D00229B
:104B700001212846FCF739F8002201212046FCF7E4
:104B800034F82846BDE8704001220221FCF72DB818
:104B90002800002064050020000C014000080140AE
:104BA00010B50C210448FCF7F5FF6420FBF7B8FEB4
:104BB000BDE8104000F032B9AC05002070B51148D6
:104BC000007830B1104900200A6850630968886392
:104BD00070BD0E4C002204212046FCF706F80C4D57
:104BE000002201212846FCF700F80022012120467E
:104BF000FBF7FBFF2846BDE8704000220221FBF7CF
:104C0000F4BF00002800002064050020000C0140D3
:104C1000000801400A4810B501780A4842789142DC
:104C200009D04170FFF7C8FA07A202210120FFF75F
:104C300023FBFFF771FFBDE81040FEF70DBF00003A
:104C400000000020080000206D6F6465203A20738A
:104C5000746F70000C4810B501780C48427891428E
:104C600010D041700020FEF78DFEFFF7A5FA08A2D4
:104C700002210120FFF700FBBDE810404FF4FA705D
:104C8000FBF74EBE10BD0000000000200800002011
:104C90006D6F6465203A2074657374000D490A686D
:104CA000136843F0010313600B6800225A6209681D
:104CB000401E4A6A8242FCD3086A41F21112104235
:104CC00007D1086A9210104203D1086820F0010051
:104CD000086070471C0500201E4810B501781E486A
:104CE000427891420ED041700120FEF74BFE4FF406
:104CF000FA70FBF715FEFFF75FFA18A202210120F8
:104D0000FFF7BAFAFFF7D8F920B9FFF717FF08B98C
:104D1000FEF72EFFFFF7D0F928B9FFF70FFF0128A4
:104D200001D1FFF7CFF9FFF7C7F9012804D1FFF749
:104D300005FF08B9FFF708FFFFF7BEF9012807D103
:104D4000FFF7FCFE012803D1BDE81040FFF736BF96
:104D500010BD000000000020080000206D6F646599
:104D6000203A2074726163650000000070B5012272
:104D7000074DD40221462846FBF737FF1420FFF7E2
:104D80008DFF21462846BDE870400022FBF72DBF6D
:104D90000008014070B50120FEF740FE0122164CCC
:104DA000150229462046FBF720FF0022294620460F
:104DB000FBF71BFF47F23050FEF708FE01222946A1
:104DC0002046FBF712FF3C20FEF700FE0020FEF716
:104DD00025FE29462046FBF7FBFE0028F9D129468F
:104DE0002046FBF7F5FE0028F9D029462046FBF7C0
:104DF000EFFE0028F9D170BD0008014002490520EE
:104E00000968086470470000AC05002002491920B9
:104E10000968086470470000AC05002002490F20B3
:104E20000968086470470000AC050020D0E9013231
:104E300001699A60D0E901235A604A68824201D12F
:104E400082684A60002202610868401E08600868A3
:104E500070470000034B036003F15400086080209A
:104E6000106070477402002000F108014FF0FF321B
:104E7000C0E90112C1600161002101607047002199
:104E80000161704730B50B685A1C02D000F108026E
:104E900002E0026904E02246546825689D42FAD97E
:104EA00053684B6099608A60516008610168491CD1
:104EB000016030BD42684A6093688B6093685960B6
:104EC000916008610168491C01607047502080F3BF
:104ED0001188BFF34F8FBFF36F8F0A494868401C9A
:104EE000486001280CD10848006810F0FF0F07D077
:104EF000502080F31188BFF34F8FBFF36F8FFEE711
:104F0000704700006402002004ED00E00849486892
:104F100028B1401E486001D180F3118870475020AD
:104F200080F31188BFF34F8FBFF36F8FFEE7000050
:104F30006402002070B5002827D0144DA0F10804A9
:104F40006168E868014207D1502080F31188BFF3FF
:104F50004F8FBFF36F8FFEE722683AB1502080F386
:104F60001188BFF34F8FBFF36F8FFEE781436160FE
:104F700000F07CF860686968084468602046FFF7C4
:104F8000C9FCBDE8704000F0B7B970BD4C0200200C
:104F90004FF0E02000210161816105494FF47A72F0
:104FA0000968B1FBF2F1491E4161072101617047B7
:104FB0000C02002010B5020014D00F48806B38B1ED
:104FC000502080F31188BFF34F8FBFF36F8FFEE740
:104FD00000F04CF800211046FFF744FB00F08CF97C
:104FE000002807D105494FF080500860BFF34F8F6C
:104FF000BFF36F8F10BD00001002002004ED00E031
:1050000010B586B00024039405AA04A903A804944B
:10501000FFF720FFDDE903010094CDE90110002333
:105020000EA11048059A00F0D8F80F4900284863EF
:1050300011D0502080F31188BFF34F8FBFF36F8FD3
:105040004FF0FF3008630120C8614C6106B0BDE835
:10505000104000F041B806B010BD000049444C4576
:105060000000000025480008100200200248816B63
:10507000491C816370470000100200201448816BB6
:1050800011B1012141627047002141628169B1FA89
:1050900081F1C1F11F0101EB81020E4951F822306B
:1050A0006BB101EB820101F108034A6852684A6062
:1050B0009A4201D152684A60D1680160704750201D
:1050C00080F31188BFF34F8FBFF36F8FFEE70000AF
:1050D000100200204C0700201CB5264908780190DA
:1050E000FF20087008788DF800009DF800009DF8FA
:1050F000002000F0F000904207D0502080F311888B
:10510000BFF34F8FBFF36F8FFEE79DF800001A4B80
:1051100000F0500018700720986005E09DF800200E
:1051200052008DF80020401E9DF800201206F5D494
:105130009860032807D0502080F31188BFF34F8F69
:10514000BFF36F8FFEE74FF44070986001980870CE
:105150000A48016841F470010160016841F0704142
:105160000160FFF715FF00205860FAF7DDFF00200F
:105170001CBD000000E400E06402002020ED00E01F
:105180002DE9FF5F8346DDE90E87994616468A467C
:105190009000FFF709FC05001CD05420FFF704FC29
:1051A000040014D00020256384F85100CDE90240AA
:1051B000CDE900874B46324651465846FFF762FB21
:1051C0002046FFF787FA012004B0BDE8F09F28468B
:1051D000FFF7B0FE4FF0FF30F6E7F0B585B0DDE940
:1051E0000B640A9DA6B1DCB1542700972663022602
:1051F00084F85160002604AFCDE90246CDE900579E
:10520000FFF740FB2046FFF765FA049805B0F0BDB4
:10521000502080F31188BFF34F8FBFF36F8FFEE7ED
:10522000502080F31188BFF34F8FBFF36F8FFEE7DD
:105230002DE9F0412E4C0027A06B40B1206A401CA4
:105240002062606A00B101273846BDE8F0816669D6
:10525000761C666113D16068006838B1502080F315
:105260001188BFF34F8FBFF36F8FFEE76068A168AF
:105270006160A060A06A401CA062FFF771FB206B18
:10528000DFF87080864209D36068006880B160688A
:10529000C068C568686886420DD220632068C06A0D
:1052A00000EB800158F821000128CAD90127C8E77E
:1052B0004FF0FF30F1E7281DFFF7B8FDA86A18B1DD
:1052C00005F11800FFF7B2FDE86A0121A2698140EB
:1052D0001143A16100EB800108EB8100291DFFF75C
:1052E000E9FDE86A2168C96A8842CDD30127CBE786
:1052F000100200204C0700202DE9F0472C4D00241F
:105300002746A86B38B1FFF7E1FDA86B401EA863E4
:10531000A86B40B146E0502080F31188BFF34F8F57
:10532000BFF36F8FFEE72969224E0120D1B3A6F1AA
:10533000B40980463068E8B1F068C46804F1180028
:10534000FFF774FD201DFFF771FDE06AAA6908FAF6
:1053500000F11143A96100EB800109EB8100211DDF
:10536000FFF7A8FDE06A2968C96A8842E2D3C5F858
:105370002480DFE70CB1FFF7F3FA2C6A44B146460C
:10538000FFF756FF00B16E62641EF9D1002028625B
:10539000686A38B10849012738070860BFF34F8FA2
:1053A000BFF36F8FFFF7B2FD3846BDE8F08700000E
:1053B000100200200008002004ED00E000000000C2
:1053C000000000000000000000000000000000F8E5
:1053D00000000000000000333000000000100C0648
:1053E000100C0600000000000000000040C07840E3
:1053F000C0784000043F04043F040400007088FCAF
:1054000008300000001820FF211E0000F008F00006
:10541000E018000000211C031E211E0000F0088877
:10542000700000001E2123241927211010160E00E1
:10543000000000000000000000000000000000E08C
:1054400018040200000000071820400000020418A1
:10545000E00000000040201807000000404080F0FD
:10546000804040000202010F01020200000000F033
:10547000000000000101011F010101000000000007
:105480000000000080B0700000000000000000007C
:105490000000000000010101010101010000000005
:1054A000000000000030300000000000000000009C
:1054B00080601804006018060100000000E0100879
:1054C0000810E000000F102020100F00001010F84E
:1054D000000000000020203F20200000007008088D
:1054E000088870000030282422213000003008880D
:1054F000884830000018202020110E000000C02035
:1055000010F8000000070424243F240000F8088855
:10551000880808000019212020110E0000E01088E2
:1055200088180000000F112020110E000038080814
:10553000C83808000000003F000000000070880824
:1055400008887000001C222121221C0000E01008A5
:105550000810E0000000312222110F00000000C0FE
:10556000C00000000000003030000000000000809B
:10557000000000000000806000000000000080408B
:1055800020100800000102040810200040404040A4
:1055900040404000040404040404040000081020F7
:1055A000408000000020100804020100007048083C
:1055B0000808F0000000003036010000C030C828A4
:1055C000E810E0000718272423140B000000C0385F
:1055D000E0000000203C23020227382008F88888D9
:1055E00088700000203F202020110E00C0300808E5
:1055F00008083800071820202010080008F80808BC
:105600000810E000203F202020100F0008F88888B4
:10561000E8081000203F20202320180008F8888880
:10562000E8081000203F200003000000C0300808F8
:105630000838000007182020221E020008F8080081
:105640000008F808203F210101213F20000808F848
:10565000080800000020203F20200000000008086B
:10566000F8080800C08080807F00000008F888C02B
:1056700028180800203F20012638200008F80800DC
:1056800000000000203F20202020300008F8F80013
:10569000F8F80800203F003F003F200008F830C025
:1056A0000008F808203F200007183F00E010080815
:1056B0000810E0000F10202020100F0008F8080844
:1056C0000808F000203F210101010000E010080857
:1056D0000810E0000F18242438504F0008F888887C
:1056E00088887000203F2000030C3020007088085C
:1056F000080838000038202121221C00180808F86A
:10570000080818000000203F2000000008F80800EA
:105710000008F808001F202020201F0008788800BB
:1057200000C83808000007380E010000F80800F82B
:105730000008F800033C0700073C030008186880D5
:105740008068180820302C03032C30200838C8004B
:10575000C83808000000203F20000000100808089A
:10576000C83808002038262120201800000000FE3C
:10577000020202000000007F40404000000C30C0E8
:1057800000000000000000010638C0000002020214
:10579000FE000000004040407F00000000000402C6
:1057A00002020400000000000000000000000000F1
:1057B00000000000808080808080808000020204E1
:1057C00000000000000000000000000000008080D9
:1057D000808000000019242222223F2008F8008047
:1057E00080000000003F112020110E00000000800A
:1057F00080800000000E1120202011000000008099
:105800008088F800000E112020103F2000008080CA
:1058100080800000001F222222221300008080F0DE
:10582000888888180020203F202000000000808009
:1058300080808000006B94949493600008F800804E
:1058400080800000203F210000203F2000809898A9
:10585000000000000020203F202000000000008009
:105860009898000000C08080807F000008F8000049
:1058700080808000203F24022D302000000808F89E
:10588000000000000020203F202000008080808059
:1058900080808000203F20003F20003F80800080EB
:1058A00080800000203F210000203F2000008080F9
:1058B00080800000001F202020201F0080800080AA
:1058C0008000000080FFA12020110E000000008059
:1058D00080808000000E112020A0FF80808080004A
:1058E0008080800020203F21200001000000808077
:1058F000808080000033242424241900008080E06C
:10590000808000000000001F202000008080000038
:1059100000808000001F202020103F208080800019
:105920000080808000010E30080601008080008029
:10593000008080800F300C030C300F00008080004E
:10594000808080000020312E0E3120008080800079
:105950000080808080818E70180601000080808029
:10596000808080000021302C2221300000000000C7
:10597000807C020200000000003F40400000000068
:10598000FF00000000000000FF0000000002027C99
:10599000800000000040403F0000000000060101C0
:1059A000020204040000000000000000F459000896
:1059B000312B000800000000000000008000000003
:1059C00000000000000000000102020304050607B9
:1059D00008090A0B0C0D0E0F10100000000000004B
:1059E000000001020304060708090000000001028C
:1059F000030400004D6963726F70686F6E6500008C
:105A0000205A00080000002074020000E40700088B
:105A1000EC5B000874020020CC1500008C2E0008FE
:105A2000013B2CEF003229330134003501362A378F
:105A300007381739063A123F2E400241FF4201460D
:105A40002D470F483C492E4A1E4B004C204D004E1E
:105A50001A4F145028511052005C025D20FC5E1059
:105A60005F3F602761286200630364F7650366D9BE
:105A70006703680169C86A406D046E006F0070803A
:105A800071007200730074F07500804281448204DA
:105A900083208420850086108700880589188A1055
:105AA0008B018C378D008EF08F8190069106921EAF
:105AB000930D940A950A960C9705980A99419A14A1
:105AC0009B0A9C3F9D339EAE9FF9A048A113A21054
:105AD000A308A430A519A610A708A824A904AA1EE3
